:100000000C949C000C94C4000C94C4000C94C40088
:100010000C94C4000C94C4000C94C4000C94C40050
:100020000C94C4000C94C4000C94EE140C94801333
:100030000C94C4000C94C4000C94C4000C94C40030
:100040000C94C4000C94C4000C94C4000C94C40020
:100050000C94C4000C94C4000C94C4000C941C0FA9
:100060000C94C4000C94C4000C94C4000C94C40000
:100070000C94C4000C94C4000C94C4000C94C400F0
:100080000C94C4000C94C4000C94C4000C94C400E0
:100090000C94C4000C94C4000C94C4000C94C400D0
:1000A0000C94C4000C94C4000C94C400080B00020F
:1000B0000202010009040000010202000005240000
:1000C0001001052401010104240206052406000193
:1000D0000705810310004009040100020A00000026
:1000E00007050202400000070583024000001201DC
:1000F0000002EF02014041233680000101020301AA
:10010000120100020000004041233680000101027C
:10011000030141726475696E6F204C4C430041725B
:100120006475696E6F204C656F6E6172646F000458
:1001300003090400610E0E1111241FBECFEFDAE097
:10014000DEBFCDBF11E0A0E0B1E0ECE8FDE202C00F
:1001500005900D92AA38B107D9F724E0AAE8B1E0DA
:1001600001C01D92AB39B207E1F711E0C8E3D1E05D
:1001700004C02297FE010E949A16C433D107C9F722
:100180000E942C110C94C4160C94000040910001A4
:100190005091010125E038E0429FC001439F900D3E
:1001A000529F900D1124875E994C9093010180938A
:1001B0000001890F08951F93182F0E94C600282F51
:1001C000219F020E20E0211D1124822F1F910895EE
:1001D000609100017091010145E058E0649F900139
:1001E000659F300D749F300D1124275E394C30937C
:1001F000010120930001DC010E949E160895FC017C
:10020000858596850895CF93DF9300D000D000D0E8
:10021000CDB7DEB7AB011C821D821E82DC01ED91E1
:10022000FC910190F081E02D19821A821B829E01BF
:100230002F5F3F4FBE016C5F7F4F099526960FB62B
:10024000F894DEBF0FBECDBFDF91CF91089580E05F
:1002500090E0089580E991E0089580E991E00895A3
:10026000869A0895879A08950F931F93CF93DF93EB
:1002700000D01F92CDB7DEB78C01BE016F5F7F4FFC
:100280000E94780EAE014F5F5F4F6EE170E081EF2C
:1002900091E00E94380CBE016F5F7F4FC8010E9441
:1002A000780EAE014F5F5F4F65E070E080EF92E047
:1002B0000E94380CBE016F5F7F4FC8010E94780E0C
:1002C000AE014F5F5F4F6EE170E08FEF92E00E94F2
:1002D000380CBE016F5F7F4FC8010E94780EAE01DF
:1002E0004F5F5F4F65E070E089E593E00E94380C56
:1002F0000F900F900F90DF91CF911F910F91089564
:100300006F927F928F929F92AF92BF92CF92DF9225
:10031000EF92FF920F931F93CF93DF9300D000D003
:1003200000D0CDB7DEB74AE066E970E08BE492E03A
:100330000E94750C4AE06EE170E081EF91E00E944E
:10034000750C07E010E0912CA8EC8A2E77247A94A3
:10035000AA24AA94B7E0BB2E8CE3E82EF12C612CE2
:1003600080910D04890D8C838D827E82BE016F5F2A
:100370007F4FCE0104960E94780E0E94660F9B016B
:10038000AC01A8E1B1E00E94B4169B01AC01B02F12
:10039000A0E00E94B4169C0144275527B9017F7341
:1003A000769567957695679576956795C9018827BF
:1003B0009074892B21F0C501861B970BBC01E72F98
:1003C000EE0FEE0FF0E0EB5EFE4FC080D180828139
:1003D0006695F601869FE00DF11D1124CF0137FFD0
:1003E00003C09195819591099C0130582E9DC001C3
:1003F0003F9DD0013E9D900DA11DB61D2F9D900DDE
:10040000A11DB61D1124CD01AA27BB27FC01EE0FAB
:10041000FF1FE80FF91FE55BFD4F89819081981759
:1004200008F480838A819181981708F481838B81F5
:100430009281981708F4828340EF52E06EE170E0F9
:1004400081EF91E00E94380C4CEF52E06EE170E0D9
:100450008FEF92E00E94380CF0E29F0E8BE492E066
:1004600020E030E0F901E55BFD4F4081DC01A15463
:10047000BE4F4C93418111964C934281FC01EF5346
:10048000FE4F40832D5F3F4F0397243B310551F7CB
:100490000F5F1F4F80EA981263CF26960FB6F8942D
:1004A000DEBF0FBECDBFDF91CF911F910F91FF90A7
:1004B000EF90DF90CF90BF90AF909F908F907F9004
:1004C0006F900895CF92DF92EF92FF921F93CF9398
:1004D000DF93EC010E94660F28EEC22E23E0D22E9D
:1004E000E12CF12CA70196010E9457168881998171
:1004F000281B390B11E04A815B812417350710F462
:1005000010E008C00E94660FA70196010E945716CE
:1005100039832883812FDF91CF911F91FF90EF9036
:10052000DF90CF900895FC01DB013C912081230FE7
:1005300008F42FEF208311963C9111972181230F0E
:1005400008F42FEF218312963C912281230F08F4A7
:100550002FEF22830895CF93DF9300D01F92CDB762
:10056000DEB78823A1F10E94C6008035A8F48FEF82
:1005700089838A838B838EE190E00E94E8009C014E
:10058000220F331F280F391FBE016F5F7F4FC90134
:100590008F509E4F0E9493020E94C6008035B8F48F
:1005A0008FEF89838A838B8388E290E00E94E80042
:1005B0009C01295C3F4FC901880F991F820F931F2F
:1005C000BE016F5F7F4F855B9D4F0E9493020F902E
:1005D0000F900F90DF91CF91089581E00E94AB02C0
:1005E0004AE06EE170E081EF91E00E94750C4AE014
:1005F00066E970E08BE492E00C94750C2F923F92C8
:100600004F925F926F927F928F929F92AF92BF9222
:10061000CF92DF92EF92FF920F931F93CF93DF93CE
:10062000CDB7DEB727970FB6F894DEBF0FBECDBFAC
:100630008E839F837B01DA0141E0E41AF108F9011E
:100640008081C18082804C9011962C9011971296D7
:100650002C91882011F0C11001C0842D222311F0AB
:10066000211001C0482E312CD12CC218D308D694A9
:10067000DC2CCC24D794C79430E0912C821A930AB6
:100680009694982C882497948794841902301105A5
:1006900051F4482F552747FD5095052F001F00277F
:1006A000001F10E006C00330110519F487FF08C0D1
:1006B00002C0012B29F4F0E88F9FC001112408C06B
:1006C000819540E8849FC0011124919581959109FD
:1006D000E114F10419F01E2D4F2D02C011E040E08D
:1006E000612F742F0E9443165B01C601612F742F86
:1006F0000E9443166B01C401612F742F0E944316A0
:100700003B01AA0CBB1CCC0CDD1C660C771C512CCD
:10071000542C4424322C2224322F22270E811F8174
:10072000812C912C59823A823B83B801CE010196EB
:100730002C833D830E94780E4A0C5B1C2C0C3D1CC4
:100740002C813D81260D371D8FEF881A980A0D5F89
:100750001F4FE814F90430F727960FB6F894DEBF60
:100760000FBECDBFDF91CF911F910F91FF90EF9002
:10077000DF90CF90BF90AF909F908F907F906F90C1
:100780005F904F903F902F900895CF92DF92EF921D
:10079000FF920F931F93CF93DF9300D01F92CDB79B
:1007A000DEB76C017B0102E010E09B01AC016CE361
:1007B00070E08BE492E00E94FE029601A7016CE3D8
:1007C00070E089E593E00E94FE02BE016F5F7F4FFB
:1007D000C7010E94780EAE014F5F5F4F6EE170E07F
:1007E0008FEF92E00E94380C40EF52E06EE170E033
:1007F00081EF91E00E94380C0F900F900F90DF91E5
:10080000CF911F910F91FF90EF90DF90CF900895BF
:10081000FC0188E391E091838083138212828FEF41
:1008200086838783808781878287838781E0848727
:10083000168615861582148280911C0490911D04E1
:10084000892B21F4F0931D04E0931C04A0911A0459
:10085000B0911B04109721F01596FC93EE9314971A
:10086000F0931B04E0931A0488E491E09183808361
:1008700008951F93CF93DF9300D000D000D0CDB761
:10088000DEB78091C901811111C080EB91E00E9417
:1008900008041092C0011092BF018AE591E0909384
:1008A000B1018093B00181E08093C90120E030E084
:1008B00046E950E06BE472E080EB91E00E94260E86
:1008C000FC018FEF868380EB878380EF80878091A8
:1008D000C101811111C08FE991E00E9408041092BA
:1008E000AF011092AE018CE691E09093A00180934D
:1008F0009F0181E08093C10120E030E04EE150E0B3
:1009000061EF71E08FE991E00E94260EFC011FEF7C
:10091000168380EB878380EF808780E280931E04BC
:1009200040E052EC61E070E084E394E00E94081142
:1009300088E7898388EC8A831B831C828D831E83CE
:10094000BE016F5F7F4FCE0104960E94C5032696BD
:100950000FB6F894DEBF0FBECDBFDF91CF911F91D0
:100960000895CF93DF93EC010E94720F28813981A3
:10097000621B730B6A307105B8F3DF91CF91089554
:100980009F92AF92BF92CF92DF92EF92FF920F931E
:100990001F93CF93DF93EC01E881F98191B39064C9
:1009A00081B38F7B81BB5A852F81D52ED21ADF82EE
:1009B000AF84AA81BB812D853C854E852F5F3F5F2B
:1009C0004F5FEE80F8849984CB851181C12C0C2D6A
:1009D0006C2D7C2D71811127889471117D0D08F487
:1009E0007FEFD194889420FD170F1795889421FDEF
:1009F000170F1795889422FD170F1795889423FDDC
:100A0000170F1795889424FD170F1795889425FDC7
:100A1000170F1795889426FD170F1795889427FDB3
:100A2000170F17958894072F2111012FD50E102F1E
:100A3000002C91BB00C017FF81BB708100278894F8
:100A400000C000C0002C81BB71117E0D00C0002CC5
:100A500091BB00C016FF81BB08F47FEFE19488943E
:100A600000C000C0002C81BB30FD070F00C0002C6F
:100A700091BB00C015FF81BB0795889431FD070F1E
:100A800000C000C0002C81BB0795889400C0002CDA
:100A900091BB00C014FF81BB32FD070F07958894FE
:100AA00000C000C0002C81BB33FD070F00C0002C2C
:100AB00091BB00C013FF81BB0795889434FD070FDD
:100AC00000C000C0002C81BB0795889400C0002C9A
:100AD00091BB00C012FF81BB35FD070F07958894BD
:100AE00000C000C0002C81BB36FD070F00C0002CE9
:100AF00091BB00C011FF81BB0795889437FD070F9C
:100B000000C000C0002C81BB0795889400C0002C59
:100B100091BB00C010FF81BB172F3111102FE90CC2
:100B200000C000C0002C81BB00C000C0002C91BBE5
:100B300000C017FF81BB72810027889400C000C0ED
:100B4000002C81BB71117F0D00C0002C91BB00C037
:100B500016FF81BB08F47FEFEA0DF11D00C000C055
:100B6000002C81BB40FD070F00C0002C91BB00C0D2
:100B700015FF81BB0795889441FD070F00C000C099
:100B8000002C81BB0795889400C0002C91BB00C04D
:100B900014FF81BB42FD070F0795889400C000C079
:100BA000002C81BB43FD070F00C0002C91BB00C08F
:100BB00013FF81BB0795889444FD070F00C000C058
:100BC000002C81BB0795889400C0002C91BB00C00D
:100BD00012FF81BB45FD070F0795889400C000C038
:100BE000002C81BB46FD070F00C0002C91BB00C04C
:100BF00011FF81BB0795889447FD070F00C000C017
:100C0000002C81BB0795889400C0002C91BB00C0CC
:100C100010FF81BB172F4111102FF19400C000C0AD
:100C2000002C81BBFC0E00C000C091BB00C017FFB0
:100C300081BB71810027889400C000C0002C81BB5B
:100C400071117D0D00C0002C91BB00C016FF81BB4F
:100C500008F47FEFD194889400C000C0002C81BBC1
:100C600020FD070F00C0002C91BB00C015FF81BB09
:100C70000795889421FD070F00C000C0002C81BBA0
:100C80000795889400C0002C91BB00C014FF81BB65
:100C900022FD070F0795889400C000C0002C81BB7F
:100CA00023FD070F00C0002C91BB00C013FF81BBC8
:100CB0000795889424FD070F00C000C0002C81BB5D
:100CC0000795889400C0002C91BB00C012FF81BB27
:100CD00025FD070F0795889400C000C0002C81BB3C
:100CE00026FD070F00C0002C91BB00C011FF81BB87
:100CF0000795889427FD070F00C000C0002C81BB1A
:100D00000795889400C0002C91BB00C010FF81BBE8
:100D1000172F2111102FD50E00C000C0002C81BB51
:100D2000119709F086CEDF91CF911F910F91FF901F
:100D3000EF90DF90CF90BF90AF909F9008950F936A
:100D40001F93CF93DF93EC018B010F960E94B104A8
:100D5000F894C8010E94C004F8014281538120EE3A
:100D600031E0DA010E94AD16E4E09695879577951B
:100D70006795EA95D1F720E030E0EAE94E9F212D12
:100D80005E9F200D311D1124620F731F811D911D67
:100D9000693EF3E07F0781059105A8F1DC01CB01F5
:100DA000885E9340A109B10952E0B695A795979541
:100DB00087955A95D1F740E050E027E0829F412D7A
:100DC000929F400D511D112420910F0430E0280FF7
:100DD000391F240F351F80912C0490912D04A09170
:100DE0002E04B0912F04432F5527840F951FA11D6A
:100DF000B11D80932C0490932D04A0932E04B093E6
:100E00002F0420930F0478940E94720F788B6F87C1
:100E1000DF91CF911F910F9108959F92AF92BF9252
:100E2000CF92DF92EF92FF920F931F93CF93DF93B6
:100E3000EC01E881F98191B3906881B38F7781BB30
:100E40005A852F81D52ED21ADF82AF84AA81BB8129
:100E50002D853C854E852F5F3F5F4F5FEE80F88488
:100E60009984CB851181C12C0C2D6C2D7C2D718129
:100E70001127889471117D0D08F47FEFD194889427
:100E800020FD170F1795889421FD170F179588944B
:100E900022FD170F1795889423FD170F1795889437
:100EA00024FD170F1795889425FD170F1795889423
:100EB00026FD170F1795889427FD170F179588940F
:100EC000072F2111012FD50E102F002C91BB00C030
:100ED00017FF81BB70810027889400C000C0002CE0
:100EE00081BB71117E0D00C0002C91BB00C016FFAC
:100EF00081BB08F47FEFE194889400C000C0002C0F
:100F000081BB30FD070F00C0002C91BB00C015FF56
:100F100081BB0795889431FD070F00C000C0002CED
:100F200081BB0795889400C0002C91BB00C014FFC2
:100F300081BB32FD070F0795889400C000C0002CCC
:100F400081BB33FD070F00C0002C91BB00C013FF15
:100F500081BB0795889434FD070F00C000C0002CAA
:100F600081BB0795889400C0002C91BB00C012FF84
:100F700081BB35FD070F0795889400C000C0002C89
:100F800081BB36FD070F00C0002C91BB00C011FFD4
:100F900081BB0795889437FD070F00C000C0002C67
:100FA00081BB0795889400C0002C91BB00C010FF46
:100FB00081BB172F3111102FE90C00C000C0002C8D
:100FC00081BB00C000C0002C91BB00C017FF81BBDB
:100FD00072810027889400C000C0002C81BB711171
:100FE0007F0D00C0002C91BB00C016FF81BB08F430
:100FF0007FEFEA0DF11D00C000C0002C81BB40FD59
:10100000070F00C0002C91BB00C015FF81BB0795E6
:10101000889441FD070F00C000C0002C81BB0795DC
:10102000889400C0002C91BB00C014FF81BB42FD1E
:10103000070F0795889400C000C0002C81BB43FDBA
:10104000070F00C0002C91BB00C013FF81BB0795A8
:10105000889444FD070F00C000C0002C81BB079599
:10106000889400C0002C91BB00C012FF81BB45FDDD
:10107000070F0795889400C000C0002C81BB46FD77
:10108000070F00C0002C91BB00C011FF81BB07956A
:10109000889447FD070F00C000C0002C81BB079556
:1010A000889400C0002C91BB00C010FF81BB172F9B
:1010B0004111102FF19400C000C0002C81BBFC0E28
:1010C00000C000C091BB00C017FF81BB7181002729
:1010D000889400C000C0002C81BB71117D0D00C040
:1010E000002C91BB00C016FF81BB08F47FEFD194A8
:1010F000889400C000C0002C81BB20FD070F00C0F9
:10110000002C91BB00C015FF81BB0795889421FD81
:10111000070F00C000C0002C81BB0795889400C059
:10112000002C91BB00C014FF81BB22FD070F079567
:10113000889400C000C0002C81BB23FD070F00C0B5
:10114000002C91BB00C013FF81BB0795889424FD40
:10115000070F00C000C0002C81BB0795889400C019
:10116000002C91BB00C012FF81BB25FD070F079526
:10117000889400C000C0002C81BB26FD070F00C072
:10118000002C91BB00C011FF81BB0795889427FDFF
:10119000070F00C000C0002C81BB0795889400C0D9
:1011A000002C91BB00C010FF81BB172F2111102F05
:1011B000D50E00C000C0002C81BB119709F086CE6F
:1011C000DF91CF911F910F91FF90EF90DF90CF9023
:1011D000BF90AF909F9008950F931F93CF93DF938D
:1011E000EC018B010F960E94B104F894C8010E9493
:1011F0000D07F8014281538120EE31E0DA010E94AF
:10120000AD1604E096958795779567950A95D1F781
:1012100020E030E0EAE94E9F212D5E9F200D311D38
:101220001124620F731F811D911D693EF3E07F073A
:1012300081059105A8F1DC01CB01885E9340A109ED
:10124000B109F2E0B695A79597958795FA95D1F7EC
:1012500040E050E027E0829F412D929F400D511DBC
:10126000112420910F0430E0280F391F240F351F5F
:1012700080912C0490912D04A0912E04B0912F0404
:10128000432F5527840F951FA11DB11D80932C045A
:1012900090932D04A0932E04B0932F0420930F0459
:1012A00078940E94720F788B6F87DF91CF911F9196
:1012B0000F910895FC01118A108A0895FF920F93EF
:1012C0001F93CF93DF93EC0180918A018F5F982F5A
:1012D000977090938A0180FD02C080E001C080E891
:1012E00091FD8064947009F0806290E1F92EF80E0F
:1012F00020E030E000E011E0FE01E20FF31F648522
:10130000662331F070E0C8010E9443166F5F01C090
:1013100060E061874F2D469F040E40E0411D11247F
:10132000411102C0168202C041504683662311F06B
:10133000615061872F5F3F4F23303105E9F6DF9120
:10134000CF911F910F91FF900895EF92FF920F930D
:101350001F93CF93DF93CDB7DEB762970FB6F894A4
:10136000DEBF0FBECDBF8C017A01F901DC011C96F6
:101370008C917A8369835C834B835E834D839081F8
:101380009D8791819E8792819F87813029F4CE012C
:1013900001960E945E0906C01C861B861A86198665
:1013A00018861F82188AB701CE0101960E945A0939
:1013B000D801ED91FC910484F585E02DBE016F5FAD
:1013C0007F4FC801099562960FB6F894DEBF0FBE35
:1013D000CDBFDF91CF911F910F91FF90EF900895B6
:1013E000EF92FF920F931F93CF93DF93CDB7DEB7AA
:1013F00062970FB6F894DEBF0FBECDBF8C017A01A5
:10140000F901DC011C968C917A8369835C834B83A0
:101410005E834D8390819D8791819E8792819F8776
:10142000813029F4CE0101960E945E0906C01C8617
:101430001B861A86198618861F8283E0888BB7015F
:10144000CE0101960E945A09D801ED91FC910484C5
:10145000F585E02DBE016F5F7F4FC801099562964B
:101460000FB6F894DEBF0FBECDBFDF91CF911F91B5
:101470000F91FF90EF900895CF92DF92EF92FF923D
:101480000F931F93CF93DF9300D000D000D0CDB740
:10149000DEB78091E901811119C00E94660F609347
:1014A0009701709398018093990190939A0184E138
:1014B00090E0A0E0B0E080939B0190939C01A0930A
:1014C0009D01B0939E0181E08093E9010E94660F27
:1014D000C0909701D0909801E0909901F0909A0106
:1014E0006C197D098E099F09C0909B01D0909C01C9
:1014F000E0909D01F0909E016C157D058E059F0585
:1015000078F00E94660F6093970170939801809322
:10151000990190939A0180910D048F5F80930D043F
:101520008091E101811115C00E94660F20E63AEE1C
:1015300040E050E00E9457163093940120939301AD
:101540008AE090E0909396018093950181E08093EA
:10155000E1010E94660FE0E6CE2EEAEEDE2EE12CDF
:10156000F12CA70196010E9457168091930190914A
:101570009401281B390B80919501909196012817B1
:10158000390778F00E94660FA70196010E9457164E
:10159000309394012093930183E00E94DB008093B9
:1015A0000E0480910E04823039F140F4882379F0E2
:1015B000813009F0D0C00E948001CFC0843009F48E
:1015C0008EC008F46CC0853009F4A7C0C4C09091E7
:1015D0000D0482E3890F898388EC8A838FEF8B83E4
:1015E0009C8392E39D838E83BE016F5F7F4FCE010C
:1015F00004960E94C503B1C04AE066E970E08BE43E
:1016000092E00E94750C4AE06EE170E081EF91E09B
:101610000E94750C10910D0480E40E94DB00810F84
:101620008C8308EC0D831FEF1E83BE016F5F7F4F1D
:10163000CE0104960E94780E86E990E00E94E800B0
:101640009C01220F331F280F391FBE016F5F7F4F90
:10165000C901855B9D4F0E949302F0900D0480E4C8
:101660000E94DB008F0D8C830D831E83BE016F5F94
:101670007F4FCE0104960E94780E8EE190E00E948A
:10168000E8009C01220F331F280F391FBE016F5F36
:101690007F4FC9018F509E4F0E9493025EC0809180
:1016A0000D048C831D821FEF1E83BE016F5F7F4F71
:1016B000CE0104960E94780EAE014F5F5F4F66E93F
:1016C00070E08BE492E00E94380C80910D048983D5
:1016D0001A831B83CE0101960E9434013EC00E94F2
:1016E000ED028091D901811115C00E94660F28EE8C
:1016F00033E040E050E00E94571630939001209371
:101700008F018AE090E0909392018093910181E0B3
:101710008093D9018FE891E01BC08091D1018111A4
:1017200015C00E94660F28EE33E040E050E00E94B2
:10173000571630938C0120938B018AE090E09093B0
:101740008E0180938D0181E08093D1018BE891E03F
:101750000E946202811110920E0484E394E00E94C0
:101760005110181619060CF051C084E394E00E9441
:101770006110823351F1FCF4813309F047C00E94BB
:10178000C600182F0E94C600082F0E94C600898339
:101790000A831B830E94C600182F0E94C6008C83F8
:1017A00088EC8D831E83BE016F5F7F4FCE01049650
:1017B0000E94C5032BC08333A1F0833739F5809194
:1017C0000E048F5F80930E0421C00E94C60089839F
:1017D00088EC8A838FEF8B83CE0101960E943401BF
:1017E00015C008EC10E00E94ED0260911E048EE12D
:1017F00094E00E941A0D42E050E060E070E08EE15B
:1018000094E00E94AC0D0150110969F760911E042B
:101810008EE194E00E941A0D4AE050E060E070E032
:101820008EE194E00E94AC0D26960FB6F894DEBFD0
:101830000FBECDBFDF91CF911F910F91FF90EF9021
:10184000DF90CF900895FC012081269F020E20E0BA
:10185000211D20832181269F020E20E0211D21834E
:101860002281269F020E20E0211D2283112408954B
:10187000FA0120E030E00396261737076CF4408128
:10188000DC0113974C93418111964C934281119640
:101890004C932F5F3F4FEFCF0895CF92DF92EF929F
:1018A000FF920F931F93CF93DF931F92CDB7DEB7B5
:1018B0007B018C01C12CD12CCE14DF0461F0642F8C
:1018C000C80149830E94230C8FEFC81AD80A0D5F04
:1018D0001F4F4981F1CF0F90DF91CF911F910F9151
:1018E000FF90EF90DF90CF90089540950C944D0CB1
:1018F0008F929F92AF92BF92EF92FF920F931F939E
:10190000CF93DF93EC01188219821A824423B9F134
:10191000E0E0F0E08B010A5F1F4F7B0189E0E80EF9
:10192000F11C842E912CA12CB12CD801AE0FBF1F1D
:101930002C91D701AE0FBF1F6C912223E1F06623DB
:10194000D1F030E040E050E02F5F3F4F4F4F5F4F0E
:1019500070E080E090E06F5F7F4F8F4F9F4F0E945D
:101960001F169B01AC01C501B4010E941F16DE01C8
:10197000AE0FBF1F8C933196E330F105B1F6CE0167
:10198000DF91CF911F910F91FF90EF90BF90AF909B
:101990009F908F900895CF92DF92EF92FF92CF9316
:1019A000DF93EC0180911404909115049C012F5F4A
:1019B0003F4F3093150420931404861797079CF12A
:1019C0000E94660F9B01AC01E0911404F091150494
:1019D00088EE93E0E89FB001E99F700DF89F700DCD
:1019E0001124882777FD8095982FC0901004D090FF
:1019F0001104E0901204F09013042C193D094E09D3
:101A00005F090E9457163A83298310921504109299
:101A100014040E94660F6093100470931104809365
:101A2000120490931304DF91CF91FF90EF90DF9019
:101A3000CF9008958F929F92AF92BF92EF92FF92B4
:101A40000F931F93CF93DF9300D01F92CDB7DEB7D4
:101A50008C01F62EF80183819481A581B681892BB2
:101A60008A2B8B2BD1F00E94720F809016049090DD
:101A70001704A0901804B0901904681979098A090C
:101A80009B09D80113968D909D90AD90BC901697B0
:101A9000681579058A059B05E8F20E94720F60932C
:101AA0001604709317048093180490931904D801B6
:101AB0001B96ED91FC911C97309751F0D801179629
:101AC0004D915D916D917C911A978F2D0995F82E0E
:101AD000A0901C04B0901D04A114B10451F1F501B3
:101AE000E484D80111968D919C91129784369105CA
:101AF00008F41486D501ED91FC91828093804F2DDE
:101B0000B501CE0101960E94780CF50145855685F8
:101B1000628173819E012F5F3F4FC501F4010995DA
:101B2000D5011C96EC921C971496AD90BC9015971D
:101B3000D3CF69E170E0C8010E94CB0C0F900F90E9
:101B40000F90DF91CF911F910F91FF90EF90BF9079
:101B5000AF909F908F9008958F929F92AF92BF9277
:101B6000CF92DF92EF92FF92CF93DF93EC016A0165
:101B70007B010E94660F4B015C0161E070E080E038
:101B800090E00E94950F6881CE010E941A0D0E947C
:101B90001B0F0E94660F681979098A099B096C1549
:101BA0007D058E059F0548F3DF91CF91FF90EF9063
:101BB000DF90CF90BF90AF909F908F900895CF927D
:101BC000DF92EF92FF920F931F93CF93DF93EC017D
:101BD0004423F1F06115710581F19B0140E050E073
:101BE00060E472E48FE090E00E947916CB80DC80A4
:101BF000ED80FE8089019A010C151D052E053F051B
:101C000010F4970186010B831C832D833E8315C03E
:101C10006115710571F09B0140E050E060E472E4F1
:101C20008FE090E00E9479162B833C834D835E8386
:101C300004C01B821C821D821E82DF91CF911F91E6
:101C40000F91FF90EF90DF90CF900895CF92DF92A9
:101C5000EF92FF920F931F93CF93DF93EC016B01F1
:101C60008A017901121613061CF07A0100E010E0D7
:101C7000E881F9810480F581E02DCE010995C80144
:101C8000880F991F800F911F8C0D9D1D9B838A8348
:101C9000FE86ED86E881F9810284F385E02DCE0190
:101CA000099541E0BC018EE194E00E94DF0DCE0178
:101CB000DF91CF911F910F91FF90EF90DF90CF9028
:101CC00008958FEF80931E041092200410921F0439
:101CD00010922A04109229048FEF9FEFDC01809369
:101CE000250490932604A0932704B0932804089514
:101CF000FC01DB01408161817281242F2F71220F51
:101D0000220F220F522F35E5539F050E50E0511D33
:101D10001124352F942F9074842F807247FD1FC09B
:101D200091110AC0811103C03095452F11C045E5BE
:101D3000450F20E03BEA2FC081110CC03AEA239FF7
:101D4000020E20E0211D11243BEA321B4AEA450F16
:101D500020E021C080E0452F4095252F0DC0911136
:101D600010C081110BC03AEA239F020E20E0211D12
:101D700011244BEA421B2B5A30E00DC0252F209531
:101D800009C0811103C03B5A2BEA03C0365580E0DD
:101D900025E5251B40E06F3F09F423C06623F1F0E1
:101DA000332321F0369F030E30E0311D442321F010
:101DB000469F040E40E0411D222321F0269F020E83
:101DC00020E0211D1124562F5095559F050E50E0FF
:101DD000511D1124350F450F250F03C02FEF4FEF75
:101DE0003FEF7F3F09F420C050E0772321F0779F39
:101DF000512D09F05F5F5523A1F0332321F0359F6A
:101E0000030E30E0311D442321F0459F040E40E0D5
:101E1000411D222321F0259F020E20E0211D1124C7
:101E200003C020E040E030E03C9311964C931197C2
:101E300012962C93089508951F920F920FB60F9249
:101E400011242F933F938F939F93AF93BF938091D0
:101E50002C0490912D04A0912E04B0912F04309168
:101E60002B0423E0230F2D3720F40196A11DB11D73
:101E700005C026E8230F0296A11DB11D20932B0457
:101E800080932C0490932D04A0932E04B0932F04E0
:101E90008091300490913104A0913204B0913304C8
:101EA0000196A11DB11D8093300490933104A0933D
:101EB0003204B0933304BF91AF919F918F913F91C2
:101EC0002F910F900FBE0F901F9018952FB7F89479
:101ED00060912C0470912D0480912E0490912F0418
:101EE0002FBF08953FB7F89480913004909131044A
:101EF000A0913204B091330426B5A89B05C02F3FB2
:101F000019F00196A11DB11D3FBF6627782F892FBB
:101F10009A2F620F711D811D911D42E0660F771F80
:101F2000881F991F4A95D1F708958F929F92AF927B
:101F3000BF92CF92DF92EF92FF926B017C010E94E1
:101F4000720F4B015C01C114D104E104F104F1F002
:101F50000E941B0F0E94720F681979098A099B0958
:101F6000683E73408105910570F321E0C21AD108E3
:101F7000E108F10888EE880E83E0981EA11CB11CD0
:101F8000C114D104E104F10429F7DDCFFF90EF90F3
:101F9000DF90CF90BF90AF909F908F9008957894EE
:101FA00084B5826084BD84B5816084BD85B582605E
:101FB00085BD85B5816085BDEEE6F0E080818160FC
:101FC0008083E1E8F0E010828081826080838081FC
:101FD00081608083E0E8F0E0808181608083E1E9D6
:101FE000F0E0808182608083808181608083E0E98D
:101FF000F0E0808181608083E1ECF0E080818460AA
:102000008083808182608083808181608083E3EC33
:10201000F0E0808181608083E0ECF0E0808182608C
:102020008083E2ECF0E0808181608083EAE7F0E089
:1020300080818460808380818260808380818160F0
:10204000808380818068808308950E94BF16CF932B
:10205000DF931F92CDB7DEB76983DC01ED91FC9170
:102060000280F381E02D41E050E0BE016F5F7F4FC1
:1020700009950F90DF91CF910895CF93DF93EC01F5
:102080008C859D8597FF05C082E00E9450129D8738
:102090008C878C859D85DF91CF91089583E00C948A
:1020A000E414FC018485958597FD06C082E00E94BA
:1020B000F81190E00196089582E00E94F81190E0F6
:1020C0000895FC018485958597FD05C02FEF3FEFAE
:1020D00035872487089582E00C945012CF93DF93C4
:1020E000EC0180910D01882331F083E00E94811280
:1020F0001816190634F081E090E09B838A8380E013
:1021000090E0DF91CF910895FC0120812E5F208324
:1021100042E450E06CEA70E080E80C941C13FC018F
:1021200021818081813A59F4213209F05CC047E075
:1021300050E066E071E080E00E941C1367C08132CD
:1021400009F051C0233289F4838190E0982F8827C9
:102150003281832BA0E0B0E08093020190930301D1
:10216000A0930401B09305010FC0203239F467E059
:1021700070E086E091E00E944D130AC0223221F403
:10218000828180930D0104C02D7F203209F03EC072
:102190008091060190910701A0910801B091090179
:1021A000803B9440A105B10501F580910D0180FDB2
:1021B0001CC080910008909101089093FF0A8093C1
:1021C000FE0A87E797E790930108809300082BE0C9
:1021D00088E190E00FB6F894A895809360000FBE58
:1021E0002093600013C080E0089588E10FB6F89452
:1021F00080936000109260000FBEA8958091FE0A47
:102200009091FF0A909301088093000881E008955F
:102210002FEF3FEFFC013587248708951092370494
:102220001092360488EE93E0A0E0B0E0809338048A
:1022300090933904A0933A04B0933B048EE791E065
:1022400090933504809334048FEF9FEF9093410473
:1022500080934004089508950E94CF0F0E942B118F
:1022600084E894E00E9471150E943904C0E0D0E037
:102270000E943C0A2097E1F30E940000F9CF6150D0
:1022800030F02091F100FC0120830196F8CF2898CE
:1022900084E680938D0408954091880450918904C8
:1022A000209186043091870442175307B4F490912B
:1022B000E8009570E1F39091E80092FD19C08093D9
:1022C000F100809188049091890401968F73992779
:1022D000892B19F48EEF8093E80080918804909107
:1022E00089040196909389048093880481E008957D
:1022F00080E00895CF92DF92EF92FF920F931F93A9
:10230000CF93DF931F92CDB7DEB7082F162FF42E91
:10231000862F880F8E5F99830E944C1183E00E9464
:102320004C11E02EC02E9981D92E8C2D8E1981173B
:1023300098F4F601F7FE02C0849101C080810E94EA
:102340004C11082F80E00E944C118023FFEFCF1A20
:10235000DF0A8111EACF01C081E00F90DF91CF91B8
:102360001F910F91FF90EF90DF90CF900895809193
:10237000D70081608093D70080EA8093D80089B528
:10238000806189BD89B5826089BD09B400FEFDCF39
:1023900061E070E080E090E00E94950F8091D800AD
:1023A0008F7C80618093D8008091E000807F809353
:1023B000E0000895CF93DF931F92CDB7DEB7198267
:1023C000CE0101960E9484100E940B16BE016F5F21
:1023D0007F4F0E94841589810F90DF91CF910895DE
:1023E0002FB7FC012083F89467706093E90008958B
:1023F000CF93DF931F92CDB7DEB7682FCE01019642
:102400000E94F0118091F20099819FBF0F90DF919F
:10241000CF910895FF920F931F93CF93DF9300D036
:10242000CDB7DEB7F62E8A0190918C04992311F076
:1024300057FF03C08FEF9FEF2BC0682FCE0101968F
:102440007A830E94F0118091F20090E0A8017A81D5
:10245000801791070CF4AC01EF2DF72FF40E84E6F2
:10246000FE1639F0289880938D049091F100919395
:10247000F7CF4115510521F08091F200882321F01A
:1024800089818FBFCA0104C08BE68093E800F8CF32
:102490000F900F90DF91CF911F910F91FF900895B2
:1024A000CF93DF931F92CDB7DEB741E050E0BE017E
:1024B0006F5F7F4F0E940A12019719F4898190E0A3
:1024C00002C08FEF9FEF0F90DF91CF910895CF93D0
:1024D000DF931F92CDB7DEB7682FCE0101960E9421
:1024E000F0119091E800892F807295FF04C09091BF
:1024F000F20080E4891B99819FBF0F90DF91CF91FB
:1025000008956F927F928F929F92AF92BF92CF92D7
:10251000DF92EF92FF920F931F93CF93DF931F925F
:10252000CDB7DEB7782E7B01C42EB52E80918C04FA
:10253000882369F0042F152F8AEFD82E872D8072FB
:10254000982E9AE3A92E872D8074882E11C08FEFC4
:102550009FEF57C0872D0E946712682E81110CC013
:10256000DA94A9F361E070E080E090E00E94950FBA
:102570000115110579F73BC0282F30E0021713072A
:102580000CF4602E672DCE0101960E94F01180910F
:10259000E80085FF29C0262D30E0021B130B99208F
:1025A00039F06A948FEF6816B1F01092F100F9CF0C
:1025B000F701862D77FE07C0815058F094919093D3
:1025C000F1003196F9CF815020F091919093F10074
:1025D000FACFE20EF31E8091E80085FF0FC00115CF
:1025E000110511F481100AC089818FBFC1CF5D9898
:1025F00084E680938E048C2D9B2D03C0A092E8006E
:10260000F3CF0F90DF91CF911F910F91FF90EF903B
:10261000DF90CF90BF90AF909F908F907F906F9002
:1026200008951092E9001092890410928804909302
:102630008704809386040895CF92DF92FF920F93D0
:102640001F93CF93DF9300D0CDB7DEB7F82E8A016A
:102650006B0101151105B1F0F601F7FE02C084917E
:1026600001C0808149835A830E944C110150110995
:10267000FFEFCF1ADF0A49815A818111EACF8FEF2C
:102680009FEF01C0CA010F900F90DF91CF911F9172
:102690000F91FF90DF90CF900895BF92CF92DF927D
:1026A000EF92FF920F931F93CF93DF936C018B01F7
:1026B000EB013BEFB32E2097C1F07E01C134D10571
:1026C0001CF020E4E22EF12C8091E80082FFFCCF88
:1026D000C8018C1B9D0B6E2D8C0D9D1D0E943F1102
:1026E000B092E800CE19DF09E6CFC801DF91CF91A3
:1026F0001F910F91FF90EF90DF90CF90BF900895C2
:102700001F920F920FB60F921124DF92EF92FF9259
:102710000F931F932F933F934F935F936F937F93E9
:102720008F939F93AF93BF93EF93FF93CF93DF93D9
:10273000CDB7DEB76C97DEBFCDBF1092E9008091B8
:10274000E80083FF23C168E0CE0145960E943F1157
:1027500082EF8093E8003D8937FF05C08091E80053
:1027600080FFFCCF03C08EEF8093E800832F80763C
:1027700009F0F0C02E894F89D88C21110CC0303857
:1027800029F480918B048093F10002C01092F10033
:102790001092F100F4C0842F90E09D29213049F47B
:1027A0003111EDC0019709F0EAC080918B048D7F53
:1027B0000AC0233059F43111E2C0019709F0DFC09B
:1027C00080918B04826080938B04D9C0253041F4C2
:1027D0008091E80080FFFCCF40684093E300CFC0C9
:1027E000263009F08DC0EB8CFC8C22E0D2122CC07C
:1027F00080E090E00E9411130E94DA1199E08E01AE
:102800000F5F1F4FF801292F11922A95E9F799833D
:10281000DA8291E09E8390EA98879AEF99872091D7
:10282000880430918904275F3F4F3C832B838D833D
:10283000C7010E94111349E050E0B80180E00E94F6
:102840001C130E94DA119BC0C7010E9411130E9441
:102850000B16BE016B5E7F4F0E94AD15009719F0FD
:102860000CF08DC090C081E0D8120EC08B8D9C8D75
:10287000089719F481E08093850480918504811183
:102880002FC060E071E031C0E3E0DE127CC08F89D0
:10289000882349F1823029F440E860E18EE191E03B
:1028A0001CC0813029F440E86BE082E191E015C062
:1028B000833009F068C00E940B168E010F5F1F4F16
:1028C000B8010E94CC15F80101900020E9F731977A
:1028D000E01BF10B40E06E2FC8010E947A114DC041
:1028E0006EEE70E002C06FE271E06115710509F4EF
:1028F0004AC0FB01449150E080E80E941C133FC095
:10290000273009F440C0283021F481E08093F100A1
:1029100036C02930A1F53370B1F5EFE0F1E081E088
:1029200021E036E39081992361F08093E9002093C0
:10293000EB0091919093EC003093ED008F5F873026
:1029400089F78EE78093EA001092EA008F898093DE
:102950008C0415C08B8D9C8D0E941113898D811163
:1029600005C0CE0145960E948F1007C00E940B162D
:10297000BE016B5E7F4F0E94EB15882321F08EEF26
:102980008093E80003C081E28093EB006C960FB661
:10299000F894DEBF0FBECDBFDF91CF91FF91EF91D5
:1029A000BF91AF919F918F917F916F915F914F9167
:1029B0003F912F911F910F91FF90EF90DF900F901B
:1029C0000FBE0F901F9018958093E9008091F20040
:1029D000882319F08AE38093E80008951F920F92EC
:1029E0000FB60F9211242F933F934F935F936F93E2
:1029F0007F938F939F93AF93BF93CF93EF93FF9367
:102A0000C091E1008091E100837F8093E100809399
:102A1000E100C3FF0FC01092E90081E08093EB005A
:102A20001092EC0082E38093ED0010928C0488E019
:102A30008093F000C2FF19C083E00E94E4148091EB
:102A40008E04882339F080918E04815080938E0407
:102A5000882389F180918D04882339F080918D0439
:102A6000815080938D04882341F1C4FF10C0809170
:102A7000E2008E7E81608093E2008091E1008F7E93
:102A80008093E10080918A048E7E806111C0C0FF36
:102A900016C08091E2008E7E80618093E20080917A
:102AA000E1008E7E8093E10080918A048E7E8160B9
:102AB00080938A0404C05D9ACDCF289AD6CFFF9127
:102AC000EF91CF91BF91AF919F918F917F916F9136
:102AD0005F914F913F912F910F900FBE0F901F90DC
:102AE000189510928C0410928B0410928A040E9404
:102AF000B711E1EEF0E080818E7E80838DE08093DF
:102B0000E200559A209A0895EF92FF920F931F9337
:102B1000CF93DF937B01FC01C281D38100E010E001
:102B2000209781F0E881F9810280F381E02DB701DF
:102B3000CE01099597FD08C0080F191F0884D98593
:102B4000C02DEECFC80102C08FEF9FEFDF91CF9174
:102B50001F910F91FF90EF9008950F931F93CF93C4
:102B6000DF938B01FC01C281D381209771F0E88152
:102B7000F9810480F581E02DB801CE010995009717
:102B800031F40884D985C02DF0CF80E090E0DF914A
:102B9000CF911F910F9108950F931F93CF93DF93C0
:102BA0008B01FC01C281D381209771F0E881F9810A
:102BB0000680F781E02DB801CE010995080F111D9F
:102BC0000884D985C02DF0CFF8011082DF91CF9114
:102BD0001F910F9108950F931F93CF93DF938B0154
:102BE000FC01C281D381209771F0E881F9810190C5
:102BF000F081E02DB801CE010995811106C008844D
:102C0000D985C02DF0CF80E001C081E0DF91CF9168
:102C10001F910F9108958091930481110DC082E05E
:102C200080938F0484E08093900410929204109219
:102C3000910481E0809393048FE894E00895DB0190
:102C40008F939F930E94B416BF91AF91A29F800D66
:102C5000911DA39F900DB29F900D11240895AA1B62
:102C6000BB1B51E107C0AA1FBB1FA617B70710F077
:102C7000A61BB70B881F991F5A95A9F780959095A9
:102C8000BC01CD01089597FB072E16F4009407D0E0
:102C900077FD09D00E942F1607FC05D03EF49095D1
:102CA00081959F4F0895709561957F4F0895A1E29A
:102CB0001A2EAA1BBB1BFD010DC0AA1FBB1FEE1FB6
:102CC000FF1FA217B307E407F50720F0A21BB30B01
:102CD000E40BF50B661F771F881F991F1A9469F77D
:102CE00060957095809590959B01AC01BD01CF01D9
:102CF0000895052E97FB1EF400940E94901657FD30
:102D000007D00E94571607FC03D04EF40C9490167F
:102D100050954095309521953F4F4F4F5F4F089507
:102D200090958095709561957F4F8F4F9F4F089537
:102D3000EE0FFF1F0590F491E02D0994A29FB001C2
:102D4000B39FC001A39F700D811D1124911DB29FDF
:102D5000700D811D1124911D08950E949E16B7FFCC
:102D60000895821B930B08950E949E16A59F900DB7
:102D7000B49F900DA49F800D911D1124089581E0B2
:0C2D800090E0F8940C94C416F894FFCF77
:102D8C003905FFFFFFFF00E100000000000000C15B
:102D9C00808100000000003100F9183000FB302C5D
:102DAC00001C472600825A1F006D6A170041760EE0
:102DBC0000897D040000000025102510251003015A
:102DCC00FF00270100000000A509F00925100301F0
:102DDC00FF002701251000000000A509F0093201B1
:102DEC000301FF002D01EC0800000000A509F0090B
:102DFC0030010301FF002A019F060000000027108C
:0A2E0C006E10511061103D104E10C1
:00000001FF
