:100000000C9407010C942F010C942F010C942F01D8
:100010000C942F010C942F010C942F010C942F01A0
:100020000C942F010C942F010C94D9200C946B1F6D
:100030000C942F010C942F010C942F010C942F0180
:100040000C942F010C942F010C942F010C942F0170
:100050000C942F010C942F010C942F010C946E1909
:100060000C942F010C942F010C942F010C942F0150
:100070000C942F010C942F010C942F010C942F0140
:100080000C942F010C942F010C942F010C942F0130
:100090000C942F010C942F010C942F010C942F0120
:1000A0000C942F010C942F010C942F01F7121513AF
:1000B0001C13D61317141A1460147E148F1A921A74
:1000C000811A851A8B1AB31AB31AB31A961A9A1A86
:1000D0009E1AA41AA81AB31AAE1A6D6F6465206925
:1000E00073203A00526967687420676F616C006C16
:1000F00065667420676F616C000000000200090FE4
:100100000000030401000C000000000000000000DB
:1001100000000000000000000408020110408040C0
:10012000102040804080080204018040201002011D
:10013000108010204040200404040404030405023D
:100140000202020403020202020606060606060472
:10015000040202020404000000002300260029001B
:100160002C002F0000000000250028002B002E008E
:10017000310000000000240027002A002D0030007C
:10018000080B000202020100090400000102020043
:1001900000052400100105240101010424020605C4
:1001A0002406000107058103100040090401000234
:1001B0000A00000007050202400000070583024014
:1001C000000012010002EF020140412336800001CD
:1001D00001020301120100020000004041233680A9
:1001E00000010102030141726475696E6F204C4C7D
:1001F000430041726475696E6F204C656F6E617269
:10020000646F0004030904005E12A517351C112455
:100210001FBECFEFDAE0DEBFCDBF11E0A0E0B1E05E
:10022000E2E6F5E402C005900D92A03DB107D9F7D2
:1002300027E0A0EDB1E001C01D92A639B207E1F7B9
:1002400012E0CEE0D2E004C02297FE010E94852297
:10025000C830D107C9F70E94531C0C94AF220C94EC
:100260000000409101015091020125E038E0429FD9
:10027000C001439F900D529F900D1124875E994CB1
:100280009093020180930101890F08951F93182F05
:100290000E943101282F219F020E20E0211D1124F0
:1002A000822F1F910895609101017091020145E034
:1002B00058E0649F9001659F300D749F300D1124AC
:1002C000275E394C3093020120930101DC010E942A
:1002D00089220895982F86FD9095E92FEF739F70DE
:1002E00086FD9F5FE695E695E695E670F0E0E35CB7
:1002F000FE4F2181299F202D912D112422952F70B1
:100300009295907F292B9081920F87FD02C0892FB3
:1003100002C0892F819580580895FC0185859685B6
:100320000895CF93DF9300D000D000D0CDB7DEB7D3
:10033000AB011C821D821E82DC01ED91FC910190BB
:10034000F081E02D19821A821B829E012F5F3F4FA0
:10035000BE016C5F7F4F099526960FB6F894DEBFFD
:100360000FBECDBFDF91CF91089580E090E008955A
:1003700080E991E0089580E991E0089580E991E0B5
:10038000089580E991E00895819A0895859A0895E5
:10039000869A0895849A089586E0809300016FEE0E
:1003A00070E08FE297E00C94A51C87E08093000139
:1003B00064EE70E08FE297E00C94A51C8091000140
:1003C0008F5F863018F48093000102C01092000104
:1003D0006AED70E08FE297E00E947C1C4AE050E0FA
:1003E000609100018FE297E00C94131D0F931F930F
:1003F000CF93DF9300D01F92CDB7DEB78C01BE0143
:100400006F5F7F4F0E94BC17AE014F5F5F4F6EE181
:1004100070E08AEE94E00E940B15BE016F5F7F4F83
:10042000C8010E94BC17AE014F5F5F4F65E070E0EE
:1004300089EE95E00E940B15BE016F5F7F4FC801EA
:100440000E94BC17AE014F5F5F4F6EE170E088EF16
:1004500095E00E940B15BE016F5F7F4FC8010E949F
:10046000BC17AE014F5F5F4F65E070E082E596E03C
:100470000E940B150F900F900F90DF91CF911F915D
:100480000F910895CF93DF93EC018F3F910509F011
:1004900010F4D82FCC270E94B8199B01AC01A8E119
:1004A000B1E00E949F229B01AC01DE010E949F22CD
:1004B000AA27BB279C013F7336952795369527952C
:1004C00036952795AC0144275074452B31F04FEFFA
:1004D00057E0BA01621B730B9B01E32FEE0FEE0F87
:1004E000F0E0E25EFE4F4081518132812695BA01F3
:1004F000329F600D711D11249B0197FF03C0319540
:100500002195310930586CE370E0269FB0014CE32F
:1005100050E0359FC001E0E0349F700D811D9E1FAB
:10052000259F700D811D9E1F1124DF91CF9108958D
:100530001F93CF93DF93EC01162F8F3F910509F0A6
:1005400010F4D82FCC270E94B8199B01AC01A8E168
:10055000B1E00E949F229B01AC01DE010E949F221C
:10056000892F0E946A01212F2095382F329F030E78
:1005700030E0311D1124832F810FDF91CF911F9126
:100580000895CF92DF92EF92FF921F93CF93DF9364
:10059000EC010E94B819F8EECF2EF3E0DF2EE12C2B
:1005A000F12CA70196010E94422288819981281B83
:1005B000390B11E04A815B812417350710F410E0F4
:1005C00008C00E94B819A70196010E9442223983EF
:1005D0002883812FDF91CF911F91FF90EF90DF90C3
:1005E000CF900895CF92DF92EF92FF921F93CF9317
:1005F000DF93EC010E94B819A0E6CA2EAAEEDA2E0B
:10060000E12CF12CA70196010E9442228881998158
:10061000281B390B11E04A815B812417350710F440
:1006200010E008C00E94B819A70196010E9442225A
:1006300039832883812FDF91CF911F91FF90EF9015
:10064000DF90CF900895FC01DB013C912081230FC6
:1006500008F42FEF208311963C9111972181230FED
:1006600008F42FEF218312963C912281230F08F486
:100670002FEF22830895CF93DF9300D01F92CDB741
:10068000DEB70E9431018035A8F48FEF89838A8319
:100690008B838EE190E00E9453019C01220F331F57
:1006A000280F391FBE016F5F7F4FC90186519B4FD5
:1006B0000E9423030E9431018035B8F48FEF8983B3
:1006C0008A838B8388E290E00E9453019C01295C1D
:1006D0003F4FC901880F991F820F931FBE016F5FA3
:1006E0007F4F8C5B9A4F0E9423030F900F900F90C7
:1006F000DF91CF9108950E943B034AE06EE170E0E4
:100700008AEE94E00E9448154AE066E970E084E4CD
:1007100095E00C944815FC01DB018C9190819817B1
:1007200008F4808311968C9111979181981708F4A1
:10073000818312968C919281981708F48283CF015D
:1007400008950F931F93CF93DF9300D01F92CDB7DF
:10075000DEB78B01882321F0CB010E94F6013CC05B
:10076000BE016F5F7F4FC8010E94BC17AE014F5F93
:100770005F4F6EE170E08EEC92E00E940B15BE01BF
:100780006F5F7F4FC8010E94BC17AE014F5F5F4F84
:1007900065E070E08DEC93E00E940B15BE016F5F89
:1007A0007F4FC8010E94BC17AE014F5F5F4F6EE1E3
:1007B00070E08CED93E00E940B15BE016F5F7F4FE0
:1007C000C8010E94BC17AE014F5F5F4F65E070E04B
:1007D00086E394E00E940B150F900F900F90DF912D
:1007E000CF911F910F910895CF93DF9300D01F9267
:1007F000CDB7DEB7882319F00E943B0334C00E94B6
:1008000031018035A8F48FEF89838A838B838EE151
:1008100090E00E9453019C01220F331F280F391FC3
:10082000BE016F5F7F4FC90182539D4F0E9423031A
:100830000E9431018035B8F48FEF89838A838B83DE
:1008400088E290E00E9453019C01295C3F4FC9015E
:10085000880F991F820F931FBE016F5F7F4F885DC6
:100860009C4F0E9423030F900F900F90DF91CF9128
:10087000089581110C947B0380E00E94F4034AE008
:100880006EE170E08EEC92E00E9448154AE066E965
:1008900070E088E293E00C944815DF92EF92FF92AB
:1008A0000F931F93CF93DF9300D000D000D0CDB72C
:1008B000DEB74AE066E970E0882309F462C084E4A8
:1008C00095E00E9448154AE06EE170E08AEE94E0FF
:1008D0000E94481504E010E0F12CF8ECEF2EDD2426
:1008E000DA94809109078F0D8C83ED82DE82BE0140
:1008F0006F5F7F4FCE0104960E94BC17C8010E9413
:1009000042029C01220F331F280F391FBE016F5F67
:100910007F4FC9018C5B9A4F0E948B0349EE55E0D3
:100920006EE170E08AEE94E00E940B1545EF55E011
:100930006EE170E088EF95E00E940B1580E2F80E02
:1009400024E435E040E050E0FA01EC5BFA4F8081AE
:10095000D901A154BE4F8C93818111968C938281D1
:10096000F901EF53FE4F80834D5F5F4F23503109F4
:10097000443B510549F70F5F1F4F80EAF812B1CF92
:100980005EC088E293E00E9448154AE06EE170E0A4
:100990008EEC92E00E94481504E010E0F12C78EC17
:1009A000E72EDD24DA94FC82ED82DE82BE016F5FE9
:1009B0007F4FCE0104960E94BC17C8010E944202DC
:1009C0009C01220F331F280F391FBE016F5F7F4F1D
:1009D000C901885D9C4F0E948B034DEC53E06EE192
:1009E00070E08EEC92E00E940B1549ED53E06EE151
:1009F00070E08CED93E00E940B1580E2F80E28E287
:100A000033E080E090E0FC01E85DFC4F4081D901DB
:100A1000A154BE4F4C93418111964C934281F901F0
:100A2000EF53FE4F4083039623503109843B9105D9
:100A300051F70F5F1F4F0C30110509F0B4CF269608
:100A40000FB6F894DEBF0FBECDBFDF91CF911F91DF
:100A50000F91FF90EF90DF9008952F923F924F9269
:100A60005F926F927F928F929F92AF92BF92CF923E
:100A7000DF92EF92FF920F931F93CF93DF93CDB747
:100A8000DEB727970FB6F894DEBF0FBECDBF8E83BB
:100A90009F837B01DA0141E0E41AF108F9018081CA
:100AA000C18082804C9011962C90119712962C91B7
:100AB000882011F0C11001C0842D222311F02110D3
:100AC00001C0482E312CD12CC218D308D694DC2C6E
:100AD000CC24D794C79430E0912C821A930A969430
:100AE000982C88249794879484190230110551F426
:100AF000482F552747FD5095052F001F0027001F41
:100B000010E006C00330110519F487FF08C002C0C9
:100B1000012B29F4F0E88F9FC001112408C08195B2
:100B200040E8849FC0011124919581959109E114B9
:100B3000F10419F01E2D4F2D02C011E040E0612F8D
:100B4000742F0E942E225B01C601612F742F0E9418
:100B50002E226B01C401612F742F0E942E223B01B3
:100B6000AA0CBB1CCC0CDD1C660C771C512C542C25
:100B70004424322C2224322F22270E811F81812CE3
:100B8000912C59823A823B83B801CE0101962C8385
:100B90003D830E94BC174A0C5B1C2C0C3D1C2C8115
:100BA0003D81260D371D8FEF881A980A0D5F1F4F64
:100BB000E814F90430F727960FB6F894DEBF0FBE9D
:100BC000CDBFDF91CF911F910F91FF90EF90DF90FC
:100BD000CF90BF90AF909F908F907F906F905F90DD
:100BE0004F903F902F900895CF92DF92EF92FF9217
:100BF0000F931F93CF93DF9300D01F92CDB7DEB733
:100C00006C017B0102E010E09B01AC016CE370E041
:100C100084E495E00E942D059601A7016CE370E045
:100C200082E596E00E942D05BE016F5F7F4FC701F0
:100C30000E94BC17AE014F5F5F4F6EE170E088EF1E
:100C400095E00E940B1549EE55E06EE170E08AEEEA
:100C500094E00E940B150F900F900F90DF91CF91B1
:100C60001F910F91FF90EF90DF90CF900895CF925A
:100C7000DF92EF92FF920F931F93CF93DF9300D0F9
:100C80001F92CDB7DEB76B017A01882329F0BA0134
:100C9000C6010E94F40533C002E010E09A01AB01E6
:100CA0006CE370E088E293E00E942D059601A701B5
:100CB0006CE370E086E394E00E942D05BE016F5F57
:100CC0007F4FC7010E94BC17AE014F5F5F4F6EE1BF
:100CD00070E08CED93E00E940B158091CD03898329
:100CE0008091CE038A838091CF038B83AE014F5FC7
:100CF0005F4F6EE170E08EEC92E00E940B150F905A
:100D00000F900F90DF91CF911F910F91FF90EF9077
:100D1000DF90CF9008959F92AF92BF92CF92DF92D3
:100D2000EF92FF920F931F93CF93DF93CDB7DEB770
:100D300029970FB6F894DEBF0FBECDBF8091D601C4
:100D4000811174C0F12C78ECB72ECC24CA94EAE05F
:100D5000DE2E809109078C8358ECE52EBD82CE8271
:100D60008091D5018F83B886C98602E010E02F2DCF
:100D7000AE014C5F5F4FBE01695F7F4FCE010196B0
:100D80000E94A41509819A801B810C836AE0A62E1B
:100D9000DD821E83BE016F5F7F4FCE0104960E94ED
:100DA000F40580E8800F89839A821B830C83DD829F
:100DB0001E83AE014F5F5F4FBE016C5F7F4F80E0CF
:100DC0000E9437066091190789E197E00E945E163C
:100DD000F3948FEFF812BDCF809109078983EA82DF
:100DE000FB828C83AD82FE82BE016F5F7F4FCE019E
:100DF00004960E94F4058091090790E8980F998362
:100E0000EA82FB828C83AD82FE82AE014F5F5F4F30
:100E1000BE016C5F7F4F80E00E943706809109071A
:100E20008093D50181E08093D6011FC080914F024D
:100E3000811114C00E94B81920E63AEE40E050E05B
:100E40000E9442223093D2012093D10181E090E0B0
:100E50009093D4018093D30180934F0281ED91E070
:100E60000E94F20281111092D60129960FB6F894D1
:100E7000DEBF0FBECDBFDF91CF911F910F91FF90CD
:100E8000EF90DF90CF90BF90AF909F900895FC01BE
:100E900089E491E091838083138212828FEF8683AD
:100EA0008783808781878287838781E0848716860E
:100EB0001586158214828091170790911807892B47
:100EC00021F4F0931807E0931707A0911507B0914C
:100ED0001607109721F01596FC93EE931497F09354
:100EE0001607E093150789E591E0918380830895C3
:100EF00080914702811111C08EE192E00E94470764
:100F000010922E0210922D028BE691E090931F0218
:100F100080931E0281E08093470220E030E046E9A2
:100F200050E064E475E08EE192E00E946A17FC01F3
:100F30008FEF868380EB878380EF808780913F02ED
:100F4000811111C08DE092E00E94470710921D02AE
:100F500010921C028DE791E090930E0280930D0297
:100F600081E080933F0220E030E04EE150E06AEE05
:100F700074E08DE092E00E946A17FC018FEF868397
:100F800080EB878380EF808780913702811111C0C9
:100F90008CEF91E00E94470710920C0210920B0216
:100FA0008FE891E09093FD018093FC0181E08093B4
:100FB000370220E030E046E950E068E273E08CEF71
:100FC00091E00E946A17FC018FEF868380EB878394
:100FD00080EF808780912F02811111C08BEE91E00C
:100FE0000E9447071092FB011092FA0181EA91E0FA
:100FF0009093EC018093EB0181E080932F0220E03D
:1010000030E04EE150E06EEC72E08BEE91E00E9439
:101010006A17FC018FEF868380EB878380EF8087E0
:1010200080E28093190740E052EC61E070E08FE2CB
:1010300097E00E942F1C6CEC71E081EB92E00E9423
:10104000A81865ED71E084E992E00E94A8186EEDA1
:1010500071E087E792E00E94A81862E083E00E94B6
:10106000B41A62E084E00E94B41A62E082E00C9458
:10107000B41ACF93DF93EC010E94C41928813981FF
:10108000621B730B6A307105B8F3DF91CF9108953D
:101090009F92AF92BF92CF92DF92EF92FF920F9307
:1010A0001F93CF93DF93EC01E881F98191B39260B4
:1010B00081B38D7F81BB5A852F81D52ED21ADF82D5
:1010C000AF84AA81BB812D853C854E852F5F3F5F14
:1010D0004F5FEE80F8849984CB851181C12C0C2D53
:1010E0006C2D7C2D71811127889471117D0D08F470
:1010F0007FEFD194889420FD170F1795889421FDD8
:10110000170F1795889422FD170F1795889423FDC4
:10111000170F1795889424FD170F1795889425FDB0
:10112000170F1795889426FD170F1795889427FD9C
:10113000170F17958894072F2111012FD50E102F07
:10114000002C91BB00C017FF81BB708100278894E1
:1011500000C000C0002C81BB71117E0D00C0002CAE
:1011600091BB00C016FF81BB08F47FEFE194889427
:1011700000C000C0002C81BB30FD070F00C0002C58
:1011800091BB00C015FF81BB0795889431FD070F07
:1011900000C000C0002C81BB0795889400C0002CC3
:1011A00091BB00C014FF81BB32FD070F07958894E7
:1011B00000C000C0002C81BB33FD070F00C0002C15
:1011C00091BB00C013FF81BB0795889434FD070FC6
:1011D00000C000C0002C81BB0795889400C0002C83
:1011E00091BB00C012FF81BB35FD070F07958894A6
:1011F00000C000C0002C81BB36FD070F00C0002CD2
:1012000091BB00C011FF81BB0795889437FD070F84
:1012100000C000C0002C81BB0795889400C0002C42
:1012200091BB00C010FF81BB172F3111102FE90CAB
:1012300000C000C0002C81BB00C000C0002C91BBCE
:1012400000C017FF81BB72810027889400C000C0D6
:10125000002C81BB71117F0D00C0002C91BB00C020
:1012600016FF81BB08F47FEFEA0DF11D00C000C03E
:10127000002C81BB40FD070F00C0002C91BB00C0BB
:1012800015FF81BB0795889441FD070F00C000C082
:10129000002C81BB0795889400C0002C91BB00C036
:1012A00014FF81BB42FD070F0795889400C000C062
:1012B000002C81BB43FD070F00C0002C91BB00C078
:1012C00013FF81BB0795889444FD070F00C000C041
:1012D000002C81BB0795889400C0002C91BB00C0F6
:1012E00012FF81BB45FD070F0795889400C000C021
:1012F000002C81BB46FD070F00C0002C91BB00C035
:1013000011FF81BB0795889447FD070F00C000C0FF
:10131000002C81BB0795889400C0002C91BB00C0B5
:1013200010FF81BB172F4111102FF19400C000C096
:10133000002C81BBFC0E00C000C091BB00C017FF99
:1013400081BB71810027889400C000C0002C81BB44
:1013500071117D0D00C0002C91BB00C016FF81BB38
:1013600008F47FEFD194889400C000C0002C81BBAA
:1013700020FD070F00C0002C91BB00C015FF81BBF2
:101380000795889421FD070F00C000C0002C81BB89
:101390000795889400C0002C91BB00C014FF81BB4E
:1013A00022FD070F0795889400C000C0002C81BB68
:1013B00023FD070F00C0002C91BB00C013FF81BBB1
:1013C0000795889424FD070F00C000C0002C81BB46
:1013D0000795889400C0002C91BB00C012FF81BB10
:1013E00025FD070F0795889400C000C0002C81BB25
:1013F00026FD070F00C0002C91BB00C011FF81BB70
:101400000795889427FD070F00C000C0002C81BB02
:101410000795889400C0002C91BB00C010FF81BBD1
:10142000172F2111102FD50E00C000C0002C81BB3A
:10143000119709F086CEDF91CF911F910F91FF9008
:10144000EF90DF90CF90BF90AF909F9008950F9353
:101450001F93CF93DF93EC018B010F960E94390805
:10146000F894C8010E944808F8014281538120EE97
:1014700031E0DA010E94982204E0969587957795ED
:1014800067950A95D1F720E030E0EAE94E9F212DDB
:101490005E9F200D311D1124620F731F811D911D50
:1014A000693EF3E07F0781059105A8F1DC01CB01DE
:1014B000885E9340A109B109F2E0B695A79597958A
:1014C0008795FA95D1F740E050E027E0829F412DC3
:1014D000929F400D511D112420910A0730E0280FE2
:1014E000391F240F351F8091270790912807A0915D
:1014F0002907B0912A07432F5527840F951FA11D57
:10150000B11D8093270790932807A0932907B093D4
:101510002A0720930A0778940E94C419788B6F8752
:10152000DF91CF911F910F9108959F92AF92BF923B
:10153000CF92DF92EF92FF920F931F93CF93DF939F
:10154000EC01E881F98191B3906281B38F7D81BB19
:101550005A852F81D52ED21ADF82AF84AA81BB8112
:101560002D853C854E852F5F3F5F4F5FEE80F88471
:101570009984CB851181C12C0C2D6C2D7C2D718112
:101580001127889471117D0D08F47FEFD194889410
:1015900020FD170F1795889421FD170F1795889434
:1015A00022FD170F1795889423FD170F1795889420
:1015B00024FD170F1795889425FD170F179588940C
:1015C00026FD170F1795889427FD170F17958894F8
:1015D000072F2111012FD50E102F002C91BB00C019
:1015E00017FF81BB70810027889400C000C0002CC9
:1015F00081BB71117E0D00C0002C91BB00C016FF95
:1016000081BB08F47FEFE194889400C000C0002CF7
:1016100081BB30FD070F00C0002C91BB00C015FF3F
:1016200081BB0795889431FD070F00C000C0002CD6
:1016300081BB0795889400C0002C91BB00C014FFAB
:1016400081BB32FD070F0795889400C000C0002CB5
:1016500081BB33FD070F00C0002C91BB00C013FFFE
:1016600081BB0795889434FD070F00C000C0002C93
:1016700081BB0795889400C0002C91BB00C012FF6D
:1016800081BB35FD070F0795889400C000C0002C72
:1016900081BB36FD070F00C0002C91BB00C011FFBD
:1016A00081BB0795889437FD070F00C000C0002C50
:1016B00081BB0795889400C0002C91BB00C010FF2F
:1016C00081BB172F3111102FE90C00C000C0002C76
:1016D00081BB00C000C0002C91BB00C017FF81BBC4
:1016E00072810027889400C000C0002C81BB71115A
:1016F0007F0D00C0002C91BB00C016FF81BB08F419
:101700007FEFEA0DF11D00C000C0002C81BB40FD41
:10171000070F00C0002C91BB00C015FF81BB0795CF
:10172000889441FD070F00C000C0002C81BB0795C5
:10173000889400C0002C91BB00C014FF81BB42FD07
:10174000070F0795889400C000C0002C81BB43FDA3
:10175000070F00C0002C91BB00C013FF81BB079591
:10176000889444FD070F00C000C0002C81BB079582
:10177000889400C0002C91BB00C012FF81BB45FDC6
:10178000070F0795889400C000C0002C81BB46FD60
:10179000070F00C0002C91BB00C011FF81BB079553
:1017A000889447FD070F00C000C0002C81BB07953F
:1017B000889400C0002C91BB00C010FF81BB172F84
:1017C0004111102FF19400C000C0002C81BBFC0E11
:1017D00000C000C091BB00C017FF81BB7181002712
:1017E000889400C000C0002C81BB71117D0D00C029
:1017F000002C91BB00C016FF81BB08F47FEFD19491
:10180000889400C000C0002C81BB20FD070F00C0E1
:10181000002C91BB00C015FF81BB0795889421FD6A
:10182000070F00C000C0002C81BB0795889400C042
:10183000002C91BB00C014FF81BB22FD070F079550
:10184000889400C000C0002C81BB23FD070F00C09E
:10185000002C91BB00C013FF81BB0795889424FD29
:10186000070F00C000C0002C81BB0795889400C002
:10187000002C91BB00C012FF81BB25FD070F07950F
:10188000889400C000C0002C81BB26FD070F00C05B
:10189000002C91BB00C011FF81BB0795889427FDE8
:1018A000070F00C000C0002C81BB0795889400C0C2
:1018B000002C91BB00C010FF81BB172F2111102FEE
:1018C000D50E00C000C0002C81BB119709F086CE58
:1018D000DF91CF911F910F91FF90EF90DF90CF900C
:1018E000BF90AF909F9008950F931F93CF93DF9376
:1018F000EC018B010F960E943908F894C8010E94F0
:10190000950AF8014281538120EE31E0DA010E940C
:101910009822E4E09695879577956795EA95D1F7B3
:1019200020E030E0EAE94E9F212D5E9F200D311D21
:101930001124620F731F811D911D693EF3E07F0723
:1019400081059105A8F1DC01CB01885E9340A109D6
:10195000B10922E0B695A795979587952A95D1F775
:1019600040E050E027E0829F412D929F400D511DA5
:10197000112420910A0730E0280F391F240F351F4A
:101980008091270790912807A0912907B0912A07F5
:10199000432F5527840F951FA11DB11D8093270745
:1019A00090932807A0932907B0932A0720930A074A
:1019B00078940E94C419788B6F87DF91CF911F9123
:1019C0000F9108959F92AF92BF92CF92DF92EF92C4
:1019D000FF920F931F93CF93DF93EC01E881F9817E
:1019E00091B3906481B38F7B81BB5A852F81D52EB3
:1019F000D21ADF82AF84AA81BB812D853C854E85BA
:101A00002F5F3F5F4F5FEE80F8849984CB85118113
:101A1000C12C0C2D6C2D7C2D718111278894711196
:101A20007D0D08F47FEFD194889420FD170F179552
:101A3000889421FD170F1795889422FD170F17958D
:101A4000889423FD170F1795889424FD170F179579
:101A5000889425FD170F1795889426FD170F179565
:101A6000889427FD170F17958894072F2111012FB0
:101A7000D50E102F002C91BB00C017FF81BB7081C9
:101A80000027889400C000C0002C81BB71117E0D1E
:101A900000C0002C91BB00C016FF81BB08F47FEF93
:101AA000E194889400C000C0002C81BB30FD070F7A
:101AB00000C0002C91BB00C015FF81BB0795889426
:101AC00031FD070F00C000C0002C81BB0795889432
:101AD00000C0002C91BB00C014FF81BB32FD070F7A
:101AE0000795889400C000C0002C81BB33FD070F10
:101AF00000C0002C91BB00C013FF81BB07958894E8
:101B000034FD070F00C000C0002C81BB07958894EE
:101B100000C0002C91BB00C012FF81BB35FD070F38
:101B20000795889400C000C0002C81BB36FD070FCC
:101B300000C0002C91BB00C011FF81BB07958894A9
:101B400037FD070F00C000C0002C81BB07958894AB
:101B500000C0002C91BB00C010FF81BB172F3111BA
:101B6000102FE90C00C000C0002C81BB00C000C0D9
:101B7000002C91BB00C017FF81BB728100278894A5
:101B800000C000C0002C81BB71117F0D00C0002C73
:101B900091BB00C016FF81BB08F47FEFEA0DF11D79
:101BA00000C000C0002C81BB40FD070F00C0002C0E
:101BB00091BB00C015FF81BB0795889441FD070FBD
:101BC00000C000C0002C81BB0795889400C0002C89
:101BD00091BB00C014FF81BB42FD070F079588949D
:101BE00000C000C0002C81BB43FD070F00C0002CCB
:101BF00091BB00C013FF81BB0795889444FD070F7C
:101C000000C000C0002C81BB0795889400C0002C48
:101C100091BB00C012FF81BB45FD070F079588945B
:101C200000C000C0002C81BB46FD070F00C0002C87
:101C300091BB00C011FF81BB0795889447FD070F3A
:101C400000C000C0002C81BB0795889400C0002C08
:101C500091BB00C010FF81BB172F4111102FF194D1
:101C600000C000C0002C81BBFC0E00C000C091BBB6
:101C700000C017FF81BB71810027889400C000C09D
:101C8000002C81BB71117D0D00C0002C91BB00C0E8
:101C900016FF81BB08F47FEFD194889400C000C088
:101CA000002C81BB20FD070F00C0002C91BB00C0A1
:101CB00015FF81BB0795889421FD070F00C000C068
:101CC000002C81BB0795889400C0002C91BB00C0FC
:101CD00014FF81BB22FD070F0795889400C000C048
:101CE000002C81BB23FD070F00C0002C91BB00C05E
:101CF00013FF81BB0795889424FD070F00C000C027
:101D0000002C81BB0795889400C0002C91BB00C0BB
:101D100012FF81BB25FD070F0795889400C000C006
:101D2000002C81BB26FD070F00C0002C91BB00C01A
:101D300011FF81BB0795889427FD070F00C000C0E5
:101D4000002C81BB0795889400C0002C91BB00C07B
:101D500010FF81BB172F2111102FD50E00C000C01E
:101D6000002C81BB119709F086CEDF91CF911F9196
:101D70000F91FF90EF90DF90CF90BF90AF909F902A
:101D800008950F931F93CF93DF93EC018B010F9670
:101D90000E943908F894C8010E94E20CF8014281BF
:101DA000538120EE31E0DA010E94982204E09695FA
:101DB0008795779567950A95D1F720E030E0EAE9B5
:101DC0004E9F212D5E9F200D311D1124620F731F28
:101DD000811D911D693EF3E07F0781059105A8F102
:101DE000DC01CB01885E9340A109B109F2E0B69510
:101DF000A79597958795FA95D1F740E050E027E0B1
:101E0000829F412D929F400D511D112420910A0760
:101E100030E0280F391F240F351F8091270790913C
:101E20002807A0912907B0912A07432F5527840F2F
:101E3000951FA11DB11D8093270790932807A0939C
:101E40002907B0932A0720930A0778940E94C4199F
:101E5000788B6F87DF91CF911F910F9108959F929B
:101E6000AF92BF92CF92DF92EF92FF920F931F93A8
:101E7000CF93DF93EC01E881F98191B3906181B355
:101E80008F7E81BB5A852F81D52ED21ADF82AF84F7
:101E9000AA81BB812D853C854E852F5F3F5F4F5FBB
:101EA000EE80F8849984CB851181C12C0C2D6C2D8A
:101EB0007C2D71811127889471117D0D08F47FEFBD
:101EC000D194889420FD170F1795889421FD170F42
:101ED0001795889422FD170F1795889423FD170FE7
:101EE0001795889424FD170F1795889425FD170FD3
:101EF0001795889426FD170F1795889427FD170FBF
:101F000017958894072F2111012FD50E102F002C23
:101F100091BB00C017FF81BB70810027889400C06F
:101F200000C0002C81BB71117E0D00C0002C91BB44
:101F300000C016FF81BB08F47FEFE194889400C0D5
:101F400000C0002C81BB30FD070F00C0002C91BBEE
:101F500000C015FF81BB0795889431FD070F00C0B5
:101F600000C0002C81BB0795889400C0002C91BB59
:101F700000C014FF81BB32FD070F0795889400C095
:101F800000C0002C81BB33FD070F00C0002C91BBAB
:101F900000C013FF81BB0795889434FD070F00C074
:101FA00000C0002C81BB0795889400C0002C91BB19
:101FB00000C012FF81BB35FD070F0795889400C054
:101FC00000C0002C81BB36FD070F00C0002C91BB68
:101FD00000C011FF81BB0795889437FD070F00C033
:101FE00000C0002C81BB0795889400C0002C91BBD9
:101FF00000C010FF81BB172F3111102FE90C00C05A
:1020000000C0002C81BB00C000C0002C91BB00C0F0
:1020100017FF81BB72810027889400C000C0002C8C
:1020200081BB71117F0D00C0002C91BB00C016FF59
:1020300081BB08F47FEFEA0DF11D00C000C0002C49
:1020400081BB40FD070F00C0002C91BB00C015FFF5
:1020500081BB0795889441FD070F00C000C0002C8C
:1020600081BB0795889400C0002C91BB00C014FF71
:1020700081BB42FD070F0795889400C000C0002C6B
:1020800081BB43FD070F00C0002C91BB00C013FFB4
:1020900081BB0795889444FD070F00C000C0002C49
:1020A00081BB0795889400C0002C91BB00C012FF33
:1020B00081BB45FD070F0795889400C000C0002C28
:1020C00081BB46FD070F00C0002C91BB00C011FF73
:1020D00081BB0795889447FD070F00C000C0002C06
:1020E00081BB0795889400C0002C91BB00C010FFF5
:1020F00081BB172F4111102FF19400C000C0002C9C
:1021000081BBFC0E00C000C091BB00C017FF81BBAB
:1021100071810027889400C000C0002C81BB711120
:102120007D0D00C0002C91BB00C016FF81BB08F4E0
:102130007FEFD194889400C000C0002C81BB20FDAB
:10214000070F00C0002C91BB00C015FF81BB079595
:10215000889421FD070F00C000C0002C81BB0795AB
:10216000889400C0002C91BB00C014FF81BB22FDED
:10217000070F0795889400C000C0002C81BB23FD89
:10218000070F00C0002C91BB00C013FF81BB079557
:10219000889424FD070F00C000C0002C81BB079568
:1021A000889400C0002C91BB00C012FF81BB25FDAC
:1021B000070F0795889400C000C0002C81BB26FD46
:1021C000070F00C0002C91BB00C011FF81BB079519
:1021D000889427FD070F00C000C0002C81BB079525
:1021E000889400C0002C91BB00C010FF81BB172F4A
:1021F0002111102FD50E00C000C0002C81BB1197FB
:1022000009F086CEDF91CF911F910F91FF90EF9053
:10221000DF90CF90BF90AF909F9008950F931F9342
:10222000CF93DF93EC018B010F960E943908F8944D
:10223000C8010E942F0FF8014281538120EE31E046
:10224000DA010E949822E4E0969587957795679544
:10225000EA95D1F720E030E0EAE94E9F212D5E9F1C
:10226000200D311D1124620F731F811D911D693EC8
:10227000F3E07F0781059105A8F1DC01CB01885EC1
:102280009340A109B10922E0B695A7959795879546
:102290002A95D1F740E050E027E0829F412D929FA0
:1022A000400D511D112420910A0730E0280F391FDD
:1022B000240F351F8091270790912807A0912907A7
:1022C000B0912A07432F5527840F951FA11DB11DDB
:1022D0008093270790932807A0932907B0932A0794
:1022E00020930A0778940E94C419788B6F87DF9136
:1022F000CF911F910F910895FC01118A108A0895C2
:10230000FF920F931F93CF93DF93EC018091D00145
:102310008F5F982F97709093D00180FD02C080E06E
:1023200001C080E891FD8064947009F08062F0E162
:10233000FF2EF80E20E030E000E011E0FE01E20F99
:10234000F31F6485662331F070E0C8010E942E22DD
:102350006F5F01C060E061874F2D469F040E40E033
:10236000411D1124411102C0168202C04150468312
:10237000662311F0615061872F5F3F4F2330310595
:10238000E9F6DF91CF911F910F91FF900895EF92A1
:10239000FF920F931F93CF93DF93CDB7DEB7629772
:1023A0000FB6F894DEBF0FBECDBF8C017A01F901E4
:1023B000DC011C968C917A8369835C834B835E83FA
:1023C0004D8390819D8791819E8792819F878130E7
:1023D00029F4CE0101960E94801106C01C861B863E
:1023E0001A86198618861F82188AB701CE010196AF
:1023F0000E947C11D801ED91FC910484F585E02DBB
:10240000BE016F5F7F4FC801099562960FB6F894C1
:10241000DEBF0FBECDBFDF91CF911F910F91FF9017
:10242000EF900895EF92FF920F931F93CF93DF9356
:10243000CDB7DEB762970FB6F894DEBF0FBECDBF43
:102440008C017A01F901DC011C968C917A836983F5
:102450005C834B835E834D8390819D8791819E87B2
:1024600092819F87813029F4CE0101960E948011CC
:1024700006C01C861B861A86198618861F8283E072
:10248000888BB701CE0101960E947C11D801ED9195
:10249000FC910484F585E02DBE016F5F7F4FC8017C
:1024A000099562960FB6F894DEBF0FBECDBFDF91DF
:1024B000CF911F910F91FF90EF90089541E050E070
:1024C00063E070E081EB92E00E945F1841E050E031
:1024D00064E070E084E992E00E945F1841E050E01F
:1024E00062E070E087E792E00C945F18FF920F9330
:1024F0001F93CF93DF9300D000D000D0CDB7DEB7CD
:1025000080916F02811119C00E94B8196093E30194
:102510007093E4018093E5019093E60189E190E0F6
:10252000A0E0B0E08093E7019093E801A093E90177
:10253000B093EA0181E080936F020E94B819009184
:10254000E3011091E4012091E5013091E601601B67
:10255000710B820B930B0091E7011091E801209120
:10256000E9013091EA01601771078207930778F05B
:102570000E94B8196093E3017093E4018093E50130
:102580009093E601809109078F5F809309078091FE
:102590006702811115C00E94B81920E63AEE40E0AA
:1025A00050E00E9442223093E0012093DF0184E159
:1025B00090E09093E2018093E10181E080936702D3
:1025C0008FED91E00E94F202882329F085E00E94BD
:1025D0004601809300018091000190E088309105D0
:1025E00008F0ADC1FC01EA5AFF4F0C9483228091A0
:1025F000090792E3980F998308EC0A831FEF1B8366
:102600008C831D821E83BE016F5F7F4FCE010496B7
:102610000E94F4058091090792E3980F99830A8339
:102620001B838C831D821E8341C181E00E944D0467
:1026300080E00E944D0485C14AE066E970E084E4D0
:1026400095E00E9448154AE06EE170E08AEE94E061
:102650000E94481560E081E090E00E949802182FE7
:102660000091090780E40E944601800F8C831D833E
:102670001FEF1E83BE016F5F7F4FCE0104960E9445
:10268000BC1786E990E00E9453019C01220F331F82
:10269000280F391FBE016F5F7F4FC9018C5B9A4FB6
:1026A0000E94230360E081E090E00E949802082FDE
:1026B000F090090780E40E9446018F0D8C830D8302
:1026C0001E83BE016F5F7F4FCE0104960E94BC1730
:1026D0008EE190E00E9453019C01220F331F280FCE
:1026E000391FBE016F5F7F4FC90186519B4F0E940A
:1026F00023034AE066E970E088E293E00E9448150F
:102700004AE06EE170E08EEC92E00E94481560E0D5
:1027100081E090E00E949802082FF090090780E481
:102720000E9446018F0D8C830D831E83BE016F5F57
:102730007F4FCE0104960E94BC1786E990E00E946C
:1027400053019C01220F331F280F391FBE016F5FF9
:102750007F4FC901885D9C4F0E94230360E081E0A8
:1027600090E00E949802082FF090090780E40E94F0
:1027700046018F0D8C830D831E83BE016F5F7F4FDB
:10278000CE0104960E94BC178EE190E00E94530196
:102790009C01220F331F280F391FBE016F5F7F4F2F
:1027A000C90182539D4F0E942303CBC0809109072A
:1027B0008C831D821FEF1E83BE016F5F7F4FCE0192
:1027C00004960E94BC17AE014F5F5F4F66E970E050
:1027D00084E495E00E940B158091090789831A8390
:1027E0001B83CE0101960E94F601809109078C831C
:1027F0001D821E83BE016F5F7F4FCE0104960E9433
:10280000BC17AE014F5F5F4F6CE370E088E293E06E
:102810000E940B1580910907805889831A831B83B6
:10282000BE016F5F7F4F80E00E94A1038AC00E94BB
:102830008B0687C0809109078093070790EE980F59
:1028400090930807805E8093060760E282E090E044
:102850000E94980290910807998302E30A838B8370
:1028600060E081E090E00E949802909107079C83CD
:1028700018EC1D838E83BE016F5F7F4FCE010496DF
:102880000E94F40560E282E090E00E94980290913C
:10289000060799830A838B8360E081E090E00E94C1
:1028A0009802909107079C831D838E83AE014F5F32
:1028B0005F4FBE016C5F7F4F80E00E94370641C0D2
:1028C0000E947B0380915F02811115C00E94B8199C
:1028D00028EE33E040E050E00E9442223093DC01D9
:1028E0002093DB018AE090E09093DE018093DD018C
:1028F00081E080935F028BED91E01EC080E00E943A
:10290000390480915702811115C00E94B81928EE30
:1029100033E040E050E00E9442223093D8012093FF
:10292000D7018AE090E09093DA018093D90181E0A9
:102930008093570287ED91E00E94C10281111092AD
:1029400000018FE297E00E94781B1816190644F5E3
:102950008FE297E00E94881B8133E9F08233E9F02F
:102960008033F1F4809100018F5F863018F48093FA
:10297000000102C01092000166E171E08FE297E071
:102980000E949F1C4AE050E0609100018FE297E0B6
:102990000E94131D05C086E001C087E080930001FE
:1029A0006091190789E197E00E945E164AE050E0C5
:1029B00060E070E089E197E00E94F01681EB92E020
:1029C0000E94AC1884E992E00E94AC1887E792E07C
:1029D0000E94AC1826960FB6F894DEBF0FBECDBF8E
:1029E000DF91CF911F910F91FF900895FC012081FD
:1029F000269F020E20E0211D20832181269F020EAA
:102A000020E0211D21832281269F020E20E0211D2E
:102A1000228311240895FA0120E030E0039626175E
:102A200037076CF44081DC0113974C934181119678
:102A30004C93428111964C932F5F3F4FEFCF0895F7
:102A4000CF92DF92EF92FF920F931F93CF93DF937A
:102A50001F92CDB7DEB77B018C01C12CD12CCE14D7
:102A6000DF0461F0642FC80149830E94F6148FEFE0
:102A7000C81AD80A0D5F1F4F4981F1CF0F90DF911F
:102A8000CF911F910F91FF90EF90DF90CF9008951D
:102A900040950C942015FC01DB01442309F452C03D
:102AA0004F3F51F48C91808311968C9111978183C3
:102AB00012968C91828346C0742F709560815C91D0
:102AC000561B2230310551F4852F992787FD9095AB
:102AD000292F221F2227221F30E006C02330310574
:102AE00019F457FF0BC002C0232B41F4549F050E6D
:102AF00050E0511D1124560F508308C05195549F2A
:102B0000050E50E0511D1124651B60833181379FF4
:102B1000030E30E0311D11962C911197249F020E67
:102B200020E0211D230F21833281379F030E30E0E7
:102B3000311D12962C91249F020E20E0211D230F9F
:102B400022831124CF0108950F931F93CF93DF9316
:102B5000EC01FB01BA01422F808188838181898346
:102B600082818A839801CE010E944B15CE01DF91AC
:102B7000CF911F910F9108958F929F92AF92BF9224
:102B8000EF92FF920F931F93CF93DF93EC01188284
:102B900019821A824423B9F1E0E0F0E08B010A5F68
:102BA0001F4F7B0189E0E80EF11C842E912CA12C93
:102BB000B12CD801AE0FBF1F2C91D701AE0FBF1F94
:102BC0006C912223E1F06623D1F030E040E050E048
:102BD0002F5F3F4F4F4F5F4F70E080E090E06F5F9F
:102BE0007F4F8F4F9F4F0E940A229B01AC01C5016E
:102BF000B4010E940A22DE01AE0FBF1F8C933196F2
:102C0000E330F105B1F6CE01DF91CF911F910F9125
:102C1000FF90EF90BF90AF909F908F900895CF92CC
:102C2000DF92EF92FF92CF93DF93EC0180910F0739
:102C3000909110079C012F5F3F4F30931007209316
:102C40000F07861797079CF10E94B8199B01AC01EA
:102C5000E0910F07F091100788EE93E0E89FB00134
:102C6000E99F700DF89F700D1124882777FD8095DE
:102C7000982FC0900B07D0900C07E0900D07F090B4
:102C80000E072C193D094E095F090E9442223A8322
:102C900029831092100710920F070E94B8196093B1
:102CA0000B0770930C0780930D0790930E07DF912D
:102CB000CF91FF90EF90DF90CF9008958F929F92E9
:102CC000AF92BF92EF92FF920F931F93CF93DF9338
:102CD00000D01F92CDB7DEB78C01F62EF8018381AC
:102CE0009481A581B681892B8A2B8B2BD1F00E94F0
:102CF000C4198090110790901207A0901307B0900C
:102D00001407681979098A099B09D80113968D90CF
:102D10009D90AD90BC901697681579058A059B0526
:102D2000E8F20E94C4196093110770931207809310
:102D3000130790931407D8011B96ED91FC911C97F3
:102D4000309751F0D80117964D915D916D917C911E
:102D50001A978F2D0995F82EA0901707B090180795
:102D6000A114B10451F1F501E484D80111968D91BB
:102D70009C9112978436910508F41486D501ED9143
:102D8000FC91828093804F2DB501CE0101960E9467
:102D9000BC15F50145855685628173819E012F5FC3
:102DA0003F4FC501F4010995D5011C96EC921C9783
:102DB0001496AD90BC901597D3CF69E170E0C8012F
:102DC0000E940F160F900F900F90DF91CF911F91DF
:102DD0000F91FF90EF90BF90AF909F908F900895CC
:102DE0008F929F92AF92BF92CF92DF92EF92FF921B
:102DF000CF93DF93EC016A017B010E94B8194B016C
:102E00005C0161E070E080E090E00E94E719688179
:102E1000CE010E945E160E946D190E94B8196819B1
:102E200079098A099B096C157D058E059F0548F374
:102E3000DF91CF91FF90EF90DF90CF90BF90AF9058
:102E40009F908F900895CF92DF92EF92FF920F9311
:102E50001F93CF93DF93EC014423F1F061157105CB
:102E600081F19B0140E050E060E472E48FE090E08B
:102E70000E946422CB80DC80ED80FE8089019A0173
:102E80000C151D052E053F0510F4970186010B83D7
:102E90001C832D833E8315C06115710571F09B0164
:102EA00040E050E060E472E48FE090E00E94642231
:102EB0002B833C834D835E8304C01B821C821D8256
:102EC0001E82DF91CF911F910F91FF90EF90DF90C5
:102ED000CF900895CF92DF92EF92FF920F931F93BE
:102EE000CF93DF93EC016B018A017901121613066F
:102EF0001CF07A0100E010E0E881F9810480F5819E
:102F0000E02DCE010995C801880F991F800F911FF0
:102F10008C0D9D1D9B838A83FE86ED86E881F98159
:102F20000284F385E02DCE01099541E0BC0189E1E1
:102F300097E00E942317CE01DF91CF911F910F914F
:102F4000FF90EF90DF90CF9008958FEF8093190757
:102F500010921B0710921A0710922507109224074F
:102F60008FEF9FEFDC018093200790932107A093C0
:102F70002207B09323070895FC01DB0140816181A2
:102F80007281242F2F71220F220F220F522F35E52D
:102F9000539F050E50E0511D1124352F942F90742E
:102FA000842F807247FD1FC091110AC0811103C098
:102FB0003095452F11C045E5450F20E03BEA2FC075
:102FC00081110CC03AEA239F020E20E0211D11243A
:102FD0003BEA321B4AEA450F20E021C080E0452F42
:102FE0004095252F0DC0911110C081110BC03AEAF8
:102FF000239F020E20E0211D11244BEA421B2B5A75
:1030000030E00DC0252F209509C0811103C03B5A27
:103010002BEA03C0365580E025E5251B40E06F3FD5
:1030200009F423C06623F1F0332321F0369F030E09
:1030300030E0311D442321F0469F040E40E0411D45
:10304000222321F0269F020E20E0211D1124562F5D
:103050005095559F050E50E0511D1124350F450F19
:10306000250F03C02FEF4FEF3FEF7F3F09F420C044
:1030700050E0772321F0779F512D09F05F5F5523B2
:10308000A1F0332321F0359F030E30E0311D44239E
:1030900021F0459F040E40E0411D222321F0259F91
:1030A000020E20E0211D112403C020E040E030E0AA
:1030B0003C9311964C93119712962C930895CF92AE
:1030C000DF92FF920F931F93CF93DF931F92CDB7A1
:1030D000DEB76C01F62E8A0160E08F2D79830E94A5
:1030E000B41AF601F0827981718328E532E03383E6
:1030F000228328EE33E035832483108E178A1286CC
:10310000012B59F021E030E03783268311861086A9
:1031100061E08F2D0E94ED1A07C0F601178216821A
:1031200081E090E091878087F60116861586108AE7
:103130001786128A118A148A138A168A158A0F90A2
:10314000DF91CF911F910F91FF90DF90CF90089565
:10315000FC017487638708958F929F92AF92BF920C
:10316000CF92DF92EF92FF920F931F93CF93DF9353
:10317000EC0188810E94231B7C010E94B8192F89D1
:10318000388D2115310579F428853985E216F30645
:1031900009F096C021E030E0388F2F8B698F7A8F4D
:1031A0008B8F9C8F8DC021303105C9F52E813F81D9
:1031B000E216F30619F482E090E02EC028853985E6
:1031C000E216F30609F07CC04C815D818A0122275A
:1031D00017FD2095322FC98CDA8CEB8CFC8C0C0DF2
:1031E0001D1D2E1D3F1D061717072807390708F05C
:1031F00067C081E08A87EF85F889309709F00995E3
:10320000E989FA89309709F00995ED89FE893097A7
:1032100009F0099586E090E0988F8F8B51C022309D
:103220003105F9F44A815B814A01AA2497FCA094F4
:10323000BA2C098D1A8D2B8D3C8D800E911EA21EED
:10324000B31E86169706A806B90618F4EB85FC850A
:103250001EC088859985E816F90691F583E090E00F
:10326000DBCF2330310541F48E819F81E816F906CA
:1032700039F5ED85FE850BC02630310509F58E81C7
:103280009F81E816F90649F41A86EB89FC89309784
:1032900009F00995188E1F8A13C081E08A87ED898D
:1032A000FE89309769F0DF91CF911F910F91FF90C8
:1032B000EF90DF90CF90BF90AF909F908F90099448
:1032C000DF91CF911F910F91FF90EF90DF90CF9002
:1032D000BF90AF909F908F90089508951F920F9286
:1032E0000FB60F9211242F933F938F939F93AF9319
:1032F000BF938091270790912807A0912907B0914B
:103300002A073091260723E0230F2D3720F401965A
:10331000A11DB11D05C026E8230F0296A11DB11DF8
:10332000209326078093270790932807A0932907C7
:10333000B0932A0780912B0790912C07A0912D071D
:10334000B0912E070196A11DB11D80932B0790937C
:103350002C07A0932D07B0932E07BF91AF919F919B
:103360008F913F912F910F900FBE0F901F90189546
:103370002FB7F8946091270770912807809129074B
:1033800090912A072FBF08953FB7F89480912B079B
:1033900090912C07A0912D07B0912E0726B5A89BE0
:1033A00005C02F3F19F00196A11DB11D3FBF662733
:1033B000782F892F9A2F620F711D811D911D42E078
:1033C000660F771F881F991F4A95D1F708958F922E
:1033D0009F92AF92BF92CF92DF92EF92FF926B01DA
:1033E0007C010E94C4194B015C01C114D104E104A9
:1033F000F104F1F00E946D190E94C419681979094D
:103400008A099B09683E73408105910570F321E0AC
:10341000C21AD108E108F10888EE880E83E0981EF0
:10342000A11CB11CC114D104E104F10429F7DDCFC2
:10343000FF90EF90DF90CF90BF90AF909F908F90D4
:103440000895789484B5826084BD84B5816084BD1C
:1034500085B5826085BD85B5816085BDEEE6F0E00D
:10346000808181608083E1E8F0E010828081826069
:103470008083808181608083E0E8F0E080818160EA
:103480008083E1E9F0E080818260808380818160D7
:103490008083E0E9F0E0808181608083E1ECF0E00E
:1034A000808184608083808182608083808181606C
:1034B0008083E3ECF0E0808181608083E0ECF0E0E9
:1034C000808182608083E2ECF0E080818160808393
:1034D000EAE7F0E08081846080838081826080837D
:1034E000808181608083808180688083089590E0FE
:1034F000FC013197EF30F105B0F5E25AFF4F0C9423
:103500008322809180008F7703C0809180008F7D1F
:1035100080938000089580918000877FF9CF84B5E3
:103520008F7702C084B58F7D84BD0895809190000F
:103530008F7707C0809190008F7D03C080919000AD
:10354000877F8093900008958091C0008F7703C09B
:103550008091C0008F7D8093C00008958091C2004B
:10356000877F8093C2000895CF93DF9390E0FC01A2
:10357000E85EFE4F2491FC01E95CFE4F84918823B4
:1035800049F190E0880F991FFC01EE58FE4FA5917C
:10359000B4918C599E4FFC01C591D4919FB7611194
:1035A00008C0F8948C91209582238C938881822383
:1035B0000AC0623051F4F8948C91322F30958323F5
:1035C0008C938881822B888304C0F8948C91822B01
:1035D0008C939FBFDF91CF9108950F931F93CF934B
:1035E000DF931F92CDB7DEB7282F30E0F901E75007
:1035F000FF4F8491F901E85EFE4F1491F901E95CF7
:10360000FE4F04910023C9F0882321F069830E94B2
:10361000771A6981E02FF0E0EE0FFF1FEC59FE4FA3
:10362000A591B4919FB7F8948C91611103C0109546
:10363000812301C0812B8C939FBF0F90DF91CF918D
:103640001F910F910895CF93DF93282F30E0F90158
:10365000E750FF4F8491F901E85EFE4FD491F901E4
:10366000E95CFE4FC491CC2391F081110E94771A3E
:10367000EC2FF0E0EE0FFF1FEA5AFE4FA591B49138
:103680002C912D2381E090E021F480E002C080E0C5
:1036900090E0DF91CF9108950E94AA22CF93DF930B
:1036A0001F92CDB7DEB76983DC01ED91FC910280FA
:1036B000F381E02D41E050E0BE016F5F7F4F09953F
:1036C0000F90DF91CF910895CF93DF93EC018C851C
:1036D0009D8597FF05C082E00E943B1E9D878C87D9
:1036E0008C859D85DF91CF91089583E00C94CF2048
:1036F000FC018485958597FD06C082E00E94E31D4C
:1037000090E00196089582E00E94E31D90E0089504
:10371000FC018485958597FD05C02FEF3FEF358728
:103720002487089582E00C943B1ECF93DF93EC0135
:1037300080910E01882331F083E00E946C1E1816E0
:10374000190634F081E090E09B838A8380E090E06A
:10375000DF91CF910895FC0120812E5F208342E408
:1037600050E060E871E080E80C94071FFC012181C3
:103770008081813A59F4213209F05CC047E050E081
:1037800067E071E080E00E94071F67C0813209F0A6
:1037900051C0233289F4838190E0982F88273281A9
:1037A000832BA0E0B0E08093030190930401A093E9
:1037B0000501B09306010FC0203239F467E070E0D4
:1037C00087E091E00E94381F0AC0223221F48281F2
:1037D00080930E0104C02D7F203209F03EC08091FD
:1037E000070190910801A0910901B0910A01803B65
:1037F0009440A105B10501F580910E0180FD1CC02A
:1038000080910008909101089093FF0A8093FE0A2E
:1038100087E797E790930108809300082BE088E101
:1038200090E00FB6F894A895809360000FBE2093A7
:10383000600013C080E0089588E10FB6F89480938B
:103840006000109260000FBEA8958091FE0A9091D2
:10385000FF0A909301088093000881E008952FEFFC
:103860003FEFFC01358724870895109232071092AC
:10387000310788EE93E0A0E0B0E0809333079093A7
:103880003407A0933507B093360783EB91E090930C
:10389000300780932F078FEF9FEF90933C07809323
:1038A0003B07089508950E94211A0E94521C8FE739
:1038B00097E00E945C210E947807C0E0D0E00E945F
:1038C00076122097E1F30E940000F9CF611571058F
:1038D00081F0DB010D900020E9F7AD014150510965
:1038E000461B570BDC01ED91FC910280F381E02D2A
:1038F000099480E090E00895EF92FF920F931F9358
:10390000CF93DF938C017B01C0E0D0E0F701EC0F97
:10391000FD1F6491662359F0F801A081B181ED91FA
:10392000FC91C8010995892B11F02196EFCFCE01AA
:10393000DF91CF911F910F91FF90EF9008950C941C
:10394000661C6FEB71E00C94661C0F931F93CF9372
:10395000DF93EC010E947C1C8C01CE010E94A11C13
:10396000800F911FDF91CF911F910F9108958F923A
:103970009F92AF92BF92DF92EF92FF920F931F93AD
:10398000CF93DF93CDB7DEB7A1970FB6F894DEBF24
:103990000FBECDBF7C01F42FD52ECB0119A2223052
:1039A00008F42AE08E010F5D1F4F822E912CA12C6E
:1039B000B12C6F2F7D2DA50194010E944222F22F80
:1039C000D32ECA01015011096A3014F4E0E301C09A
:1039D000E7E3E60FD801EC93232B242B252B49F7A3
:1039E000B801C7010E94661CA1960FB6F894DEBF0D
:1039F0000FBECDBFDF91CF911F910F91FF90EF9040
:103A0000DF90BF90AF909F908F9008952115310562
:103A100041F4DC01ED91FC910190F081E02D642FE7
:103A200009940C94B71C0F931F93CF93DF93EC0171
:103A30009A01462F50E060E070E00E94061D8C0164
:103A4000CE010E94A11C800F911FDF91CF911F9189
:103A50000F910895615030F02091F100FC01208316
:103A60000196F8CF289884E68093880708954091BE
:103A70008307509184072091810730918207421774
:103A80005307B4F49091E8009570E1F39091E80049
:103A900092FD19C08093F100809183079091840773
:103AA00001968F739927892B19F48EEF8093E80084
:103AB0008091830790918407019690938407809367
:103AC000830781E0089580E00895CF92DF92EF921E
:103AD000FF920F931F93CF93DF931F92CDB7DEB763
:103AE000082F162FF42E862F880F8E5F99830E9441
:103AF000371D83E00E94371DE02EC02E9981D92EFC
:103B00008C2D8E19811798F4F601F7FE02C084916E
:103B100001C080810E94371D082F80E00E94371D60
:103B20008023FFEFCF1ADF0A8111EACF01C081E0C5
:103B30000F90DF91CF911F910F91FF90EF90DF9049
:103B4000CF9008958091D70081608093D70080EA5C
:103B50008093D80089B5806189BD89B5826089BDAF
:103B600009B400FEFDCF61E070E080E090E00E94CB
:103B7000E7198091D8008F7C80618093D800809174
:103B8000E000807F8093E0000895CF93DF931F9241
:103B9000CDB7DEB71982CE0101960E94AB1B0E9401
:103BA000F621BE016F5F7F4F0E946F2189810F90C8
:103BB000DF91CF9108952FB7FC012083F8946770AF
:103BC0006093E9000895CF93DF931F92CDB7DEB7DE
:103BD000682FCE0101960E94DB1D8091F200998131
:103BE0009FBF0F90DF91CF910895FF920F931F9386
:103BF000CF93DF9300D0CDB7DEB7F62E8A01909138
:103C00008707992311F057FF03C08FEF9FEF2BC059
:103C1000682FCE0101967A830E94DB1D8091F2000D
:103C200090E0A8017A81801791070CF4AC01EF2D88
:103C3000F72FF40E84E6FE1639F028988093880753
:103C40009091F1009193F7CF4115510521F08091AA
:103C5000F200882321F089818FBFCA0104C08BE65E
:103C60008093E800F8CF0F900F90DF91CF911F91D4
:103C70000F91FF900895CF93DF931F92CDB7DEB7DA
:103C800041E050E0BE016F5F7F4F0E94F51D01973C
:103C900019F4898190E002C08FEF9FEF0F90DF91C0
:103CA000CF910895CF93DF931F92CDB7DEB7682FE2
:103CB000CE0101960E94DB1D9091E800892F807251
:103CC00095FF04C09091F20080E4891B99819FBF09
:103CD0000F90DF91CF9108956F927F928F929F9274
:103CE000AF92BF92CF92DF92EF92FF920F931F930A
:103CF000CF93DF931F92CDB7DEB7782E7B01C42E12
:103D0000B52E80918707882369F0042F152F8AEF3D
:103D1000D82E872D8072982E9AE3A92E872D807435
:103D2000882E11C08FEF9FEF57C0872D0E94521E23
:103D3000682E81110CC0DA94A9F361E070E080E094
:103D400090E00E94E7190115110579F73BC0282F73
:103D500030E0021713070CF4602E672DCE01019698
:103D60000E94DB1D8091E80085FF29C0262D30E0F0
:103D7000021B130B992039F06A948FEF6816B1F08B
:103D80001092F100F9CFF701862D77FE07C0815020
:103D900058F094919093F1003196F9CF815020F032
:103DA00091919093F100FACFE20EF31E8091E8001A
:103DB00085FF0FC00115110511F481100AC089811A
:103DC0008FBFC1CF5D9884E6809389078C2D9B2D92
:103DD00003C0A092E800F3CF0F90DF91CF911F9125
:103DE0000F91FF90EF90DF90CF90BF90AF909F909A
:103DF0008F907F906F9008951092E9001092840741
:103E00001092830790938207809381070895CF9241
:103E1000DF92FF920F931F93CF93DF9300D0CDB724
:103E2000DEB7F82E8A016B0101151105B1F0F6011C
:103E3000F7FE02C0849101C0808149835A830E94A9
:103E4000371D01501109FFEFCF1ADF0A49815A814E
:103E50008111EACF8FEF9FEF01C0CA010F900F9041
:103E6000DF91CF911F910F91FF90DF90CF90089538
:103E7000BF92CF92DF92EF92FF920F931F93CF9357
:103E8000DF936C018B01EB013BEFB32E2097C1F068
:103E90007E01C134D1051CF020E4E22EF12C80918A
:103EA000E80082FFFCCFC8018C1B9D0B6E2D8C0D92
:103EB0009D1D0E942A1DB092E800CE19DF09E6CFB1
:103EC000C801DF91CF911F910F91FF90EF90DF908C
:103ED000CF90BF9008951F920F920FB60F921124AA
:103EE000DF92EF92FF920F931F932F933F934F9385
:103EF0005F936F937F938F939F93AF93BF93EF9352
:103F0000FF93CF93DF93CDB7DEB76C97DEBFCDBF06
:103F10001092E9008091E80083FF23C168E0CE01A0
:103F200045960E942A1D82EF8093E8003D8937FF65
:103F300005C08091E80080FFFCCF03C08EEF809326
:103F4000E800832F807609F0F0C02E894F89D88C45
:103F500021110CC0303829F4809186078093F1003C
:103F600002C01092F1001092F100F4C0842F90E092
:103F70009D29213049F43111EDC0019709F0EAC0C3
:103F8000809186078D7F0AC0233059F43111E2C039
:103F9000019709F0DFC080918607826080938607D1
:103FA000D9C0253041F48091E80080FFFCCF406803
:103FB0004093E300CFC0263009F08DC0EB8CFC8C21
:103FC00022E0D2122CC080E090E00E94FC1E0E94F1
:103FD000C51D99E08E010F5F1F4FF801292F119227
:103FE0002A95E9F79983DA8291E09E8390EA98878F
:103FF0009AEF99872091830730918407275F3F4F7D
:104000003C832B838D83C7010E94FC1E49E050E056
:10401000B80180E00E94071F0E94C51D9BC0C70118
:104020000E94FC1E0E94F621BE016B5E7F4F0E9423
:104030009821009719F00CF08DC090C081E0D81243
:104040000EC08B8D9C8D089719F481E080938007BA
:104050008091800781112FC064ED71E031C0E3E0F1
:10406000DE127CC08F89882349F1823029F440E830
:1040700060E182EF91E01CC0813029F440E86BE000
:1040800086EE91E015C0833009F068C00E94F621E9
:104090008E010F5F1F4FB8010E94B721F8010190F8
:1040A0000020E9F73197E01BF10B40E06E2FC801CB
:1040B0000E94651D4DC062EC71E002C063E072E0D9
:1040C0006115710509F44AC0FB01449150E080E894
:1040D0000E94071F3FC0273009F440C0283021F458
:1040E00081E08093F10036C02930A1F53370B1F53D
:1040F000E0E1F1E081E021E036E39081992361F095
:104100008093E9002093EB0091919093EC00309321
:10411000ED008F5F873089F78EE78093EA00109279
:10412000EA008F898093870715C08B8D9C8D0E9434
:10413000FC1E898D811105C0CE0145960E94B61BDB
:1041400007C00E94F621BE016B5E7F4F0E94D62100
:10415000882321F08EEF8093E80003C081E28093F2
:10416000EB006C960FB6F894DEBF0FBECDBFDF91AB
:10417000CF91FF91EF91BF91AF919F918F917F91DF
:104180006F915F914F913F912F911F910F91FF90F0
:10419000EF90DF900F900FBE0F901F9018958093B7
:1041A000E9008091F200882319F08AE38093E80007
:1041B00008951F920F920FB60F9211242F933F93E1
:1041C0004F935F936F937F938F939F93AF93BF931F
:1041D000CF93EF93FF93C091E1008091E100837F43
:1041E0008093E1008093E100C3FF0FC01092E900CB
:1041F00081E08093EB001092EC0082E38093ED006D
:104200001092870788E08093F000C2FF19C083E016
:104210000E94CF2080918907882339F080918907F7
:10422000815080938907882389F1809188078823AA
:1042300039F080918807815080938807882341F165
:10424000C4FF10C08091E2008E7E81608093E20006
:104250008091E1008F7E8093E100809185078E7EC2
:10426000806111C0C0FF16C08091E2008E7E806127
:104270008093E2008091E1008E7E8093E100809146
:1042800085078E7E81608093850704C05D9ACDCFBF
:10429000289AD6CFFF91EF91CF91BF91AF919F9187
:1042A0008F917F916F915F914F913F912F910F90DF
:1042B0000FBE0F901F9018951092870710928607D7
:1042C000109285070E94A21DE1EEF0E080818E7EB3
:1042D00080838DE08093E200559A209A0895EF92B2
:1042E000FF920F931F93CF93DF937B01FC01C28159
:1042F000D38100E010E0209781F0E881F98102800D
:10430000F381E02DB701CE01099597FD08C0080F94
:10431000191F0884D985C02DEECFC80102C08FEFC8
:104320009FEFDF91CF911F910F91FF90EF90089534
:104330000F931F93CF93DF938B01FC01C281D38135
:10434000209771F0E881F9810480F581E02DB801B2
:10435000CE010995009731F40884D985C02DF0CF9E
:1043600080E090E0DF91CF911F910F9108950F931E
:104370001F93CF93DF938B01FC01C281D3812097E0
:1043800071F0E881F9810680F781E02DB801CE0156
:104390000995080F111D0884D985C02DF0CFF801AB
:1043A0001082DF91CF911F910F9108950F931F936A
:1043B000CF93DF938B01FC01C281D381209771F0F1
:1043C000E881F9810190F081E02DB801CE010995D5
:1043D000811106C00884D985C02DF0CF80E001C0CE
:1043E00081E0DF91CF911F910F91089580918E0709
:1043F00081110DC082E080938A0784E080938B074F
:1044000010928D0710928C0781E080938E078AE8C6
:1044100097E00895DB018F939F930E949F22BF91A5
:10442000AF91A29F800D911DA39F900DB29F900D03
:1044300011240895AA1BBB1B51E107C0AA1FBB1F73
:10444000A617B70710F0A61BB70B881F991F5A9520
:10445000A9F780959095BC01CD01089597FB072E93
:1044600016F4009407D077FD09D00E941A2207FCA9
:1044700005D03EF4909581959F4F08957095619574
:104480007F4F0895A1E21A2EAA1BBB1BFD010DC090
:10449000AA1FBB1FEE1FFF1FA217B307E407F507F4
:1044A00020F0A21BB30BE40BF50B661F771F881FD0
:1044B000991F1A9469F760957095809590959B0166
:1044C000AC01BD01CF010895052E97FB1EF40094A9
:1044D0000E947B2257FD07D00E94422207FC03D096
:1044E0004EF40C947B2250954095309521953F4F8A
:1044F0004F4F5F4F089590958095709561957F4FD0
:104500008F4F9F4F0895EE0FFF1F0590F491E02D00
:104510000994A29FB001B39FC001A39F700D811D9C
:104520001124911DB29F700D811D1124911D0895BC
:104530000E948922B7FF0895821B930B08950E9461
:104540008922A59F900DB49F900DA49F800D911D71
:104550001124089581E090E0F8940C94AF22F8942F
:02456000FFCF8B
:10456200043905FFFFFFFF00E1000000000000002A
:10457200C1808100000053746174653A200000001C
:104582003100F9183000FB302C001C472600825AFB
:104592001F006D6A170041760E00897D04003131DB
:1045A200295A1B750A000000004C1B4C1B4C1B9126
:1045B200018D01B50100000000C71112124C1B91C0
:1045C200018D01B5014C1B00000000C7111212CA77
:1045D2000191018D01C1010E1100000000C71112ED
:1045E20012C80191018D01BE01C10E00000000C779
:1045F200111212C60191018D01BB01740C00000061
:1046020000C7111212C40191018D01B801270A00DD
:104612000000004E1B951B781B881B641B751B0D2D
:104622000A006E616E00696E66006F7666002E008B
:00000001FF
