:100000000C949C000C94C4000C94C4000C94C40088
:100010000C94C4000C94C4000C94C4000C94C40050
:100020000C94C4000C94C4000C94D21B0C94641A5D
:100030000C94C4000C94C4000C94C4000C94C40030
:100040000C94C4000C94C4000C94C4000C94C40020
:100050000C94C4000C94C4000C94C4000C940016BE
:100060000C94C4000C94C4000C94C4000C94C40000
:100070000C94C4000C94C4000C94C4000C94C400F0
:100080000C94C4000C94C4000C94C4000C94C400E0
:100090000C94C4000C94C4000C94C4000C94C400D0
:1000A0000C94C4000C94C4000C94C400080B00020F
:1000B0000202010009040000010202000005240000
:1000C0001001052401010104240206052406000193
:1000D0000705810310004009040100020A00000026
:1000E00007050202400000070583024000001201DC
:1000F0000002EF02014041233680000101020301AA
:10010000120100020000004041233680000101027C
:10011000030141726475696E6F204C4C430041725B
:100120006475696E6F204C656F6E6172646F000458
:10013000030904004515F21711241FBECFEFDAE0C2
:10014000DEBFCDBF11E0A0E0B1E0E4E5FBE302C01B
:1001500005900D92AE3AB107D9F727E0AEEAB1E0CB
:1001600001C01D92AD30B207E1F711E0C8E3D1E064
:1001700004C02297FE010E947E1DC433D107C9F737
:100180000E9410180C94A81D0C94000040910001CE
:100190005091010125E038E0429FC001439F900D3E
:1001A000529F900D1124875E994C9093010180938A
:1001B0000001890F08951F93182F0E94C600282F51
:1001C000219F020E20E0211D1124822F1F910895EE
:1001D000609100017091010145E058E0649F900139
:1001E000659F300D749F300D1124275E394C30937C
:1001F000010120930001DC010E94821D0895FC0191
:10020000858596850895CF93DF9300D000D000D0E8
:10021000CDB7DEB7AB011C821D821E82DC01ED91E1
:10022000FC910190F081E02D19821A821B829E01BF
:100230002F5F3F4FBE016C5F7F4F099526960FB62B
:10024000F894DEBF0FBECDBFDF91CF91089580E05F
:1002500090E0089580E991E0089580E991E00895A3
:1002600080E991E0089580E991E00895849A0895E5
:10027000859A0895869A0895879A08950F931F93F3
:10028000CF93DF9300D01F92CDB7DEB78C01BE01B4
:100290006F5F7F4F0E945C15AE014F5F5F4F6EE155
:1002A00070E083E694E00E941C13BE016F5F7F4FF5
:1002B000C8010E945C15AE014F5F5F4F65E070E0C2
:1002C00082E695E00E941C13BE016F5F7F4FC8015C
:1002D0000E945C15AE014F5F5F4F6EE170E081E7F9
:1002E00095E00E941C13BE016F5F7F4FC8010E9402
:1002F0005C15AE014F5F5F4F65E070E08BEC95E001
:100300000E941C130F900F900F90DF91CF911F91BF
:100310000F910895CF93DF93EC018F3F910509F082
:1003200010F4D82FCC270E944A169B01AC01A8E1FB
:10033000B1E00E94981D9B01AC01DE010E94981D56
:10034000AA27BB279C013F7336952795369527959D
:1003500036952795AC0144275074452B31F04FEF6B
:1003600057E0BA01621B730B9B01E32FEE0FEE0FF8
:10037000F0E0EB5EFE4F4081518132812695BA015B
:10038000329F600D711D11249B0197FF03C03195B1
:100390002195310930586CE370E0269FB0014CE3A1
:1003A00050E0359FC001E0E0349F700D811D9E1F1D
:1003B000259F700D811D9E1F1124DF91CF910895FF
:1003C000CF92DF92EF92FF921F93CF93DF93EC01D6
:1003D0000E944A16E8EECE2EE3E0DE2EE12CF12C50
:1003E000A70196010E943B1D88819981281B390B2A
:1003F00011E04A815B812417350710F410E008C032
:100400000E944A16A70196010E943B1D398328834A
:10041000812FDF91CF911F91FF90EF90DF90CF90D0
:100420000895FC01DB013C912081230F08F42FEF9C
:10043000208311963C9111972181230F08F42FEF0F
:10044000218312963C912281230F08F42FEF2283FF
:100450000895CF93DF9300D01F92CDB7DEB70E94EF
:10046000C6008035A8F48FEF89838A838B838EE161
:1004700090E00E94E8009C01220F331F280F391FD3
:10048000BE016F5F7F4FC9018D599B4F0E941102C2
:100490000E94C6008035B8F48FEF89838A838B83EE
:1004A00088E290E00E94E8009C01295C3F4FC9016E
:1004B000880F991F820F931FBE016F5F7F4F835478
:1004C0009B4F0E9411020F900F900F90DF91CF91E0
:1004D00008950E9429024AE06EE170E083E694E00C
:1004E0000E9459134AE066E970E08DEB94E00C94A9
:1004F0005913FC01DB018C919081981708F48083DB
:1005000011968C9111979181981708F48183129616
:100510008C919281981708F48283CF0108950F93EC
:100520001F93CF93DF9300D01F92CDB7DEB78B011F
:10053000882321F0CB010E943E013CC0BE016F5FC9
:100540007F4FC8010E945C15AE014F5F5F4F6EE1A7
:1005500070E087E492E00E941C13BE016F5F7F4F42
:10056000C8010E945C15AE014F5F5F4F65E070E00F
:1005700086E493E00E941C13BE016F5F7F4FC801A9
:100580000E945C15AE014F5F5F4F6EE170E085E544
:1005900093E00E941C13BE016F5F7F4FC8010E9451
:1005A0005C15AE014F5F5F4F65E070E08FEA93E04E
:1005B0000E941C130F900F900F90DF91CF911F910D
:1005C0000F910895CF93DF9300D01F92CDB7DEB780
:1005D000882319F00E94290234C00E94C600803589
:1005E000A8F48FEF89838A838B838EE190E00E9449
:1005F000E8009C01220F331F280F391FBE016F5FD7
:100600007F4FC901895B9D4F0E9411020E94C60065
:100610008035B8F48FEF89838A838B8388E290E0FA
:100620000E94E8009C01295C3F4FC901880F991F77
:10063000820F931FBE016F5F7F4F8F559D4F0E94AA
:1006400011020F900F900F90DF91CF9108958111BB
:100650000C94690280E00E94E2024AE06EE170E0E0
:1006600087E492E00E9459134AE066E970E081EA6B
:1006700092E00C945913DF92EF92FF920F931F9325
:10068000CF93DF9300D000D000D0CDB7DEB74AE0E3
:1006900066E970E0882309F462C08DEB94E00E9463
:1006A00059134AE06EE170E083E694E00E9459132A
:1006B00007E010E0F12CE8ECEE2EDD24DA948091D6
:1006C0007F068F0D8C83ED82DE82BE016F5F7F4FD0
:1006D000CE0104960E945C15C8010E948A019C010B
:1006E000220F331F280F391FBE016F5F7F4FC901D3
:1006F00083549B4F0E94790242E655E06EE170E020
:1007000083E694E00E941C134EE655E06EE170E033
:1007100081E795E00E941C1380E2F80E2DEB34E097
:1007200040E050E0FA01E354FB4F8081D901A1542D
:10073000BE4F8C93818111968C938281F901EF5386
:10074000FE4F80834D5F5F4F23503109443B51057D
:1007500049F70F5F1F4F80EAF812B1CF5EC081EA00
:1007600092E00E9459134AE06EE170E087E492E063
:100770000E94591307E010E0F12C68ECE62EDD240E
:10078000DA94FC82ED82DE82BE016F5F7F4FCE0184
:1007900004960E945C15C8010E948A019C01220FE8
:1007A000331F280F391FBE016F5F7F4FC9018F555F
:1007B0009D4F0E94790246E453E06EE170E087E4C9
:1007C00092E00E941C1342E553E06EE170E085E583
:1007D00093E00E941C1380E2F80E21EA32E080E0F0
:1007E00090E0FC01EF55FD4F4081D901A154BE4F6F
:1007F0004C93418111964C934281F901EF53FE4F86
:100800004083039623503109843B910551F70F5FD4
:100810001F4F0F30110509F0B4CF26960FB6F8948C
:10082000DEBF0FBECDBFDF91CF911F910F91FF9023
:10083000EF90DF9008952F923F924F925F926F92C8
:100840007F928F929F92AF92BF92CF92DF92EF9260
:10085000FF920F931F93CF93DF93CDB7DEB7279708
:100860000FB6F894DEBF0FBECDBF8E839F837B0192
:10087000DA0141E0E41AF108F9018081C180828047
:100880004C9011962C90119712962C91882011F073
:10089000C11001C0842D222311F0211001C0482E67
:1008A000312CD12CC218D308D694DC2CCC24D7946C
:1008B000C79430E0912C821A930A9694982C88243D
:1008C0009794879484190230110551F4482F5527C5
:1008D00047FD5095052F001F0027001F10E006C0A0
:1008E0000330110519F487FF08C002C0012B29F459
:1008F000F0E88F9FC001112408C0819540E8849FD3
:10090000C0011124919581959109E114F10419F028
:100910001E2D4F2D02C011E040E0612F742F0E9468
:10092000271D5B01C601612F742F0E94271D6B01DB
:10093000C401612F742F0E94271D3B01AA0CBB1C10
:10094000CC0CDD1C660C771C512C542C4424322C0E
:100950002224322F22270E811F81812C912C598233
:100960003A823B83B801CE0101962C833D830E94DD
:100970005C154A0C5B1C2C0C3D1C2C813D81260D0A
:10098000371D8FEF881A980A0D5F1F4FE814F9047E
:1009900030F727960FB6F894DEBF0FBECDBFDF91BC
:1009A000CF911F910F91FF90EF90DF90CF90BF906C
:1009B000AF909F908F907F906F905F904F903F90FF
:1009C0002F900895CF92DF92EF92FF920F931F9393
:1009D000CF93DF9300D01F92CDB7DEB76C017B01C0
:1009E00002E010E09B01AC016CE370E08DEB94E061
:1009F0000E941B049601A7016CE370E08BEC95E06C
:100A00000E941B04BE016F5F7F4FC7010E945C15EF
:100A1000AE014F5F5F4F6EE170E081E795E00E94AD
:100A20001C1342E655E06EE170E083E694E00E941C
:100A30001C130F900F900F90DF91CF911F910F918A
:100A4000FF90EF90DF90CF900895CF92DF92EF92DA
:100A5000FF920F931F93CF93DF9300D01F92CDB7D8
:100A6000DEB76B017A01882329F0BA01C6010E9422
:100A7000E20433C002E010E09A01AB016CE370E0E5
:100A800081EA92E00E941B049601A7016CE370E0EA
:100A90008FEA93E00E941B04BE016F5F7F4FC70186
:100AA0000E945C15AE014F5F5F4F6EE170E085E51F
:100AB00093E00E941C138091460389838091470331
:100AC0008A83809148038B83AE014F5F5F4F6EE155
:100AD00070E087E492E00E941C130F900F900F903B
:100AE000DF91CF911F910F91FF90EF90DF90CF900A
:100AF0000895FC0188E391E0918380831382128240
:100B00008FEF86838783808781878287838781E0D1
:100B10008487168615861582148280918E069091A0
:100B20008F06892B21F4F0938F06E0938E06A09117
:100B30008C06B0918D06109721F01596FC93EE93DC
:100B40001497F0938D06E0938C0688E491E09183EE
:100B5000808308951F93CF93DF9300D000D000D0FF
:100B6000CDB7DEB780911F02811111C086EF91E0F1
:100B70000E94790510920602109205028AE591E022
:100B80009093F7018093F60181E080931F0220E0AB
:100B900030E046E950E06DEB74E086EF91E00E94B2
:100BA0000A15FC018FEF868380EB878380EF8087B7
:100BB00080911702811111C085EE91E00E947905A4
:100BC0001092F5011092F4018CE691E09093E60109
:100BD0008093E50181E08093170220E030E04EE150
:100BE00050E063E674E085EE91E00E940A15FC0196
:100BF0008FEF868380EB878380EF808780910F0261
:100C0000811111C084ED91E00E9479051092E401F8
:100C10001092E3018EE791E09093D5018093D40187
:100C200081E080930F0220E030E046E950E061EA85
:100C300072E084ED91E00E940A15FC018FEF86833B
:100C400080EB878380EF808780910702811111C03C
:100C500083EC91E00E9479051092D3011092D201A9
:100C600080E991E09093C4018093C30181E0809377
:100C7000070220E030E04EE150E067E472E083ECF0
:100C800091E00E940A15FC011FEF168380EB878319
:100C900080EF808780E28093900640E052EC61E034
:100CA00070E086EA96E00E94EC1788E7898388EC7A
:100CB0008A831B831C828D831E83BE016F5F7F4FDF
:100CC000CE0104960E94E20426960FB6F894DEBF89
:100CD0000FBECDBFDF91CF911F910895CF93DF93CA
:100CE000EC010E94561628813981621B730B6A3011
:100CF0007105B8F3DF91CF9108959F92AF92BF92A3
:100D0000CF92DF92EF92FF920F931F93CF93DF93D7
:100D1000EC01E881F98191B3906181B38F7E81BB51
:100D20005A852F81D52ED21ADF82AF84AA81BB814A
:100D30002D853C854E852F5F3F5F4F5FEE80F884A9
:100D40009984CB851181C12C0C2D6C2D7C2D71814A
:100D50001127889471117D0D08F47FEFD194889448
:100D600020FD170F1795889421FD170F179588946C
:100D700022FD170F1795889423FD170F1795889458
:100D800024FD170F1795889425FD170F1795889444
:100D900026FD170F1795889427FD170F1795889430
:100DA000072F2111012FD50E102F002C91BB00C051
:100DB00017FF81BB70810027889400C000C0002C01
:100DC00081BB71117E0D00C0002C91BB00C016FFCD
:100DD00081BB08F47FEFE194889400C000C0002C30
:100DE00081BB30FD070F00C0002C91BB00C015FF78
:100DF00081BB0795889431FD070F00C000C0002C0F
:100E000081BB0795889400C0002C91BB00C014FFE3
:100E100081BB32FD070F0795889400C000C0002CED
:100E200081BB33FD070F00C0002C91BB00C013FF36
:100E300081BB0795889434FD070F00C000C0002CCB
:100E400081BB0795889400C0002C91BB00C012FFA5
:100E500081BB35FD070F0795889400C000C0002CAA
:100E600081BB36FD070F00C0002C91BB00C011FFF5
:100E700081BB0795889437FD070F00C000C0002C88
:100E800081BB0795889400C0002C91BB00C010FF67
:100E900081BB172F3111102FE90C00C000C0002CAE
:100EA00081BB00C000C0002C91BB00C017FF81BBFC
:100EB00072810027889400C000C0002C81BB711192
:100EC0007F0D00C0002C91BB00C016FF81BB08F451
:100ED0007FEFEA0DF11D00C000C0002C81BB40FD7A
:100EE000070F00C0002C91BB00C015FF81BB079508
:100EF000889441FD070F00C000C0002C81BB0795FE
:100F0000889400C0002C91BB00C014FF81BB42FD3F
:100F1000070F0795889400C000C0002C81BB43FDDB
:100F2000070F00C0002C91BB00C013FF81BB0795C9
:100F3000889444FD070F00C000C0002C81BB0795BA
:100F4000889400C0002C91BB00C012FF81BB45FDFE
:100F5000070F0795889400C000C0002C81BB46FD98
:100F6000070F00C0002C91BB00C011FF81BB07958B
:100F7000889447FD070F00C000C0002C81BB079577
:100F8000889400C0002C91BB00C010FF81BB172FBC
:100F90004111102FF19400C000C0002C81BBFC0E49
:100FA00000C000C091BB00C017FF81BB718100274A
:100FB000889400C000C0002C81BB71117D0D00C061
:100FC000002C91BB00C016FF81BB08F47FEFD194C9
:100FD000889400C000C0002C81BB20FD070F00C01A
:100FE000002C91BB00C015FF81BB0795889421FDA3
:100FF000070F00C000C0002C81BB0795889400C07B
:10100000002C91BB00C014FF81BB22FD070F079588
:10101000889400C000C0002C81BB23FD070F00C0D6
:10102000002C91BB00C013FF81BB0795889424FD61
:10103000070F00C000C0002C81BB0795889400C03A
:10104000002C91BB00C012FF81BB25FD070F079547
:10105000889400C000C0002C81BB26FD070F00C093
:10106000002C91BB00C011FF81BB0795889427FD20
:10107000070F00C000C0002C81BB0795889400C0FA
:10108000002C91BB00C010FF81BB172F2111102F26
:10109000D50E00C000C0002C81BB119709F086CE90
:1010A000DF91CF911F910F91FF90EF90DF90CF9044
:1010B000BF90AF909F9008950F931F93CF93DF93AE
:1010C000EC018B010F960E946E06F894C8010E94F5
:1010D0007D06F8014281538120EE31E0DA010E9461
:1010E000911DE4E09695879577956795EA95D1F7F8
:1010F00020E030E0EAE94E9F212D5E9F200D311D5A
:101100001124620F731F811D911D693EF3E07F075B
:1011100081059105A8F1DC01CB01885E9340A1090E
:10112000B10952E0B695A795979587955A95D1F74D
:1011300040E050E027E0829F412D929F400D511DDD
:1011400011242091810630E0280F391F240F351F0C
:1011500080919E0690919F06A091A006B091A10655
:10116000432F5527840F951FA11DB11D80939E0607
:1011700090939F06A093A006B093A10620938106AA
:1011800078940E945616788B6F87DF91CF911F91CC
:101190000F9108959F92AF92BF92CF92DF92EF92FC
:1011A000FF920F931F93CF93DF93EC01E881F981B6
:1011B00091B3906281B38F7D81BB5A852F81D52EEB
:1011C000D21ADF82AF84AA81BB812D853C854E85F2
:1011D0002F5F3F5F4F5FEE80F8849984CB8511814C
:1011E000C12C0C2D6C2D7C2D7181112788947111CF
:1011F0007D0D08F47FEFD194889420FD170F17958B
:10120000889421FD170F1795889422FD170F1795C5
:10121000889423FD170F1795889424FD170F1795B1
:10122000889425FD170F1795889426FD170F17959D
:10123000889427FD170F17958894072F2111012FE8
:10124000D50E102F002C91BB00C017FF81BB708101
:101250000027889400C000C0002C81BB71117E0D56
:1012600000C0002C91BB00C016FF81BB08F47FEFCB
:10127000E194889400C000C0002C81BB30FD070FB2
:1012800000C0002C91BB00C015FF81BB079588945E
:1012900031FD070F00C000C0002C81BB079588946A
:1012A00000C0002C91BB00C014FF81BB32FD070FB2
:1012B0000795889400C000C0002C81BB33FD070F48
:1012C00000C0002C91BB00C013FF81BB0795889420
:1012D00034FD070F00C000C0002C81BB0795889427
:1012E00000C0002C91BB00C012FF81BB35FD070F71
:1012F0000795889400C000C0002C81BB36FD070F05
:1013000000C0002C91BB00C011FF81BB07958894E1
:1013100037FD070F00C000C0002C81BB07958894E3
:1013200000C0002C91BB00C010FF81BB172F3111F2
:10133000102FE90C00C000C0002C81BB00C000C011
:10134000002C91BB00C017FF81BB728100278894DD
:1013500000C000C0002C81BB71117F0D00C0002CAB
:1013600091BB00C016FF81BB08F47FEFEA0DF11DB1
:1013700000C000C0002C81BB40FD070F00C0002C46
:1013800091BB00C015FF81BB0795889441FD070FF5
:1013900000C000C0002C81BB0795889400C0002CC1
:1013A00091BB00C014FF81BB42FD070F07958894D5
:1013B00000C000C0002C81BB43FD070F00C0002C03
:1013C00091BB00C013FF81BB0795889444FD070FB4
:1013D00000C000C0002C81BB0795889400C0002C81
:1013E00091BB00C012FF81BB45FD070F0795889494
:1013F00000C000C0002C81BB46FD070F00C0002CC0
:1014000091BB00C011FF81BB0795889447FD070F72
:1014100000C000C0002C81BB0795889400C0002C40
:1014200091BB00C010FF81BB172F4111102FF19409
:1014300000C000C0002C81BBFC0E00C000C091BBEE
:1014400000C017FF81BB71810027889400C000C0D5
:10145000002C81BB71117D0D00C0002C91BB00C020
:1014600016FF81BB08F47FEFD194889400C000C0C0
:10147000002C81BB20FD070F00C0002C91BB00C0D9
:1014800015FF81BB0795889421FD070F00C000C0A0
:10149000002C81BB0795889400C0002C91BB00C034
:1014A00014FF81BB22FD070F0795889400C000C080
:1014B000002C81BB23FD070F00C0002C91BB00C096
:1014C00013FF81BB0795889424FD070F00C000C05F
:1014D000002C81BB0795889400C0002C91BB00C0F4
:1014E00012FF81BB25FD070F0795889400C000C03F
:1014F000002C81BB26FD070F00C0002C91BB00C053
:1015000011FF81BB0795889427FD070F00C000C01D
:10151000002C81BB0795889400C0002C91BB00C0B3
:1015200010FF81BB172F2111102FD50E00C000C056
:10153000002C81BB119709F086CEDF91CF911F91CE
:101540000F91FF90EF90DF90CF90BF90AF909F9062
:1015500008950F931F93CF93DF93EC018B010F96A8
:101560000E946E06F894C8010E94CA08F8014281E0
:10157000538120EE31E0DA010E94911D04E096953E
:101580008795779567950A95D1F720E030E0EAE9ED
:101590004E9F212D5E9F200D311D1124620F731F60
:1015A000811D911D693EF3E07F0781059105A8F13A
:1015B000DC01CB01885E9340A109B109F2E0B69548
:1015C000A79597958795FA95D1F740E050E027E0E9
:1015D000829F412D929F400D511D11242091810623
:1015E00030E0280F391F240F351F80919E069091FF
:1015F0009F06A091A006B091A106432F5527840F06
:10160000951FA11DB11D80939E0690939F06A093E8
:10161000A006B093A1062093810678940E945616E6
:10162000788B6F87DF91CF911F910F9108959F92D3
:10163000AF92BF92CF92DF92EF92FF920F931F93E0
:10164000CF93DF93EC01E881F98191B3906481B38A
:101650008F7B81BB5A852F81D52ED21ADF82AF8432
:10166000AA81BB812D853C854E852F5F3F5F4F5FF3
:10167000EE80F8849984CB851181C12C0C2D6C2DC2
:101680007C2D71811127889471117D0D08F47FEFF5
:10169000D194889420FD170F1795889421FD170F7A
:1016A0001795889422FD170F1795889423FD170F1F
:1016B0001795889424FD170F1795889425FD170F0B
:1016C0001795889426FD170F1795889427FD170FF7
:1016D00017958894072F2111012FD50E102F002C5C
:1016E00091BB00C017FF81BB70810027889400C0A8
:1016F00000C0002C81BB71117E0D00C0002C91BB7D
:1017000000C016FF81BB08F47FEFE194889400C00D
:1017100000C0002C81BB30FD070F00C0002C91BB26
:1017200000C015FF81BB0795889431FD070F00C0ED
:1017300000C0002C81BB0795889400C0002C91BB91
:1017400000C014FF81BB32FD070F0795889400C0CD
:1017500000C0002C81BB33FD070F00C0002C91BBE3
:1017600000C013FF81BB0795889434FD070F00C0AC
:1017700000C0002C81BB0795889400C0002C91BB51
:1017800000C012FF81BB35FD070F0795889400C08C
:1017900000C0002C81BB36FD070F00C0002C91BBA0
:1017A00000C011FF81BB0795889437FD070F00C06B
:1017B00000C0002C81BB0795889400C0002C91BB11
:1017C00000C010FF81BB172F3111102FE90C00C092
:1017D00000C0002C81BB00C000C0002C91BB00C029
:1017E00017FF81BB72810027889400C000C0002CC5
:1017F00081BB71117F0D00C0002C91BB00C016FF92
:1018000081BB08F47FEFEA0DF11D00C000C0002C81
:1018100081BB40FD070F00C0002C91BB00C015FF2D
:1018200081BB0795889441FD070F00C000C0002CC4
:1018300081BB0795889400C0002C91BB00C014FFA9
:1018400081BB42FD070F0795889400C000C0002CA3
:1018500081BB43FD070F00C0002C91BB00C013FFEC
:1018600081BB0795889444FD070F00C000C0002C81
:1018700081BB0795889400C0002C91BB00C012FF6B
:1018800081BB45FD070F0795889400C000C0002C60
:1018900081BB46FD070F00C0002C91BB00C011FFAB
:1018A00081BB0795889447FD070F00C000C0002C3E
:1018B00081BB0795889400C0002C91BB00C010FF2D
:1018C00081BB172F4111102FF19400C000C0002CD4
:1018D00081BBFC0E00C000C091BB00C017FF81BBE4
:1018E00071810027889400C000C0002C81BB711159
:1018F0007D0D00C0002C91BB00C016FF81BB08F419
:101900007FEFD194889400C000C0002C81BB20FDE3
:10191000070F00C0002C91BB00C015FF81BB0795CD
:10192000889421FD070F00C000C0002C81BB0795E3
:10193000889400C0002C91BB00C014FF81BB22FD25
:10194000070F0795889400C000C0002C81BB23FDC1
:10195000070F00C0002C91BB00C013FF81BB07958F
:10196000889424FD070F00C000C0002C81BB0795A0
:10197000889400C0002C91BB00C012FF81BB25FDE4
:10198000070F0795889400C000C0002C81BB26FD7E
:10199000070F00C0002C91BB00C011FF81BB079551
:1019A000889427FD070F00C000C0002C81BB07955D
:1019B000889400C0002C91BB00C010FF81BB172F82
:1019C0002111102FD50E00C000C0002C81BB119733
:1019D00009F086CEDF91CF911F910F91FF90EF908C
:1019E000DF90CF90BF90AF909F9008950F931F937B
:1019F000CF93DF93EC018B010F960E946E06F89453
:101A0000C8010E94170BF8014281538120EE31E09A
:101A1000DA010E94911DE4E0969587957795679588
:101A2000EA95D1F720E030E0EAE94E9F212D5E9F54
:101A3000200D311D1124620F731F811D911D693E00
:101A4000F3E07F0781059105A8F1DC01CB01885EF9
:101A50009340A109B10922E0B695A795979587957E
:101A60002A95D1F740E050E027E0829F412D929FD8
:101A7000400D511D11242091810630E0280F391F9F
:101A8000240F351F80919E0690919F06A091A0067D
:101A9000B091A106432F5527840F951FA11DB11D9D
:101AA00080939E0690939F06A093A006B093A106F4
:101AB0002093810678940E945616788B6F87DF9169
:101AC000CF911F910F9108959F92AF92BF92CF92A5
:101AD000DF92EF92FF920F931F93CF93DF93EC016E
:101AE000E881F98191B3906881B38F7781BB5A8582
:101AF0002F81D52ED21ADF82AF84AA81BB812D859A
:101B00003C854E852F5F3F5F4F5FEE80F884998460
:101B1000CB851181C12C0C2D6C2D7C2D7181112751
:101B2000889471117D0D08F47FEFD194889420FD85
:101B3000170F1795889421FD170F1795889422FD8C
:101B4000170F1795889423FD170F1795889424FD78
:101B5000170F1795889425FD170F1795889426FD64
:101B6000170F1795889427FD170F17958894072F3F
:101B70002111012FD50E102F002C91BB00C017FF93
:101B800081BB70810027889400C000C0002C81BBFD
:101B900071117E0D00C0002C91BB00C016FF81BBEF
:101BA00008F47FEFE194889400C000C0002C81BB52
:101BB00030FD070F00C0002C91BB00C015FF81BB9A
:101BC0000795889431FD070F00C000C0002C81BB31
:101BD0000795889400C0002C91BB00C014FF81BB06
:101BE00032FD070F0795889400C000C0002C81BB10
:101BF00033FD070F00C0002C91BB00C013FF81BB59
:101C00000795889434FD070F00C000C0002C81BBED
:101C10000795889400C0002C91BB00C012FF81BBC7
:101C200035FD070F0795889400C000C0002C81BBCC
:101C300036FD070F00C0002C91BB00C011FF81BB17
:101C40000795889437FD070F00C000C0002C81BBAA
:101C50000795889400C0002C91BB00C010FF81BB89
:101C6000172F3111102FE90C00C000C0002C81BBD0
:101C700000C000C0002C91BB00C017FF81BB728167
:101C80000027889400C000C0002C81BB71117F0D1B
:101C900000C0002C91BB00C016FF81BB08F47FEF91
:101CA000EA0DF11D00C000C0002C81BB40FD070FF4
:101CB00000C0002C91BB00C015FF81BB0795889424
:101CC00041FD070F00C000C0002C81BB0795889420
:101CD00000C0002C91BB00C014FF81BB42FD070F68
:101CE0000795889400C000C0002C81BB43FD070FFE
:101CF00000C0002C91BB00C013FF81BB07958894E6
:101D000044FD070F00C000C0002C81BB07958894DC
:101D100000C0002C91BB00C012FF81BB45FD070F26
:101D20000795889400C000C0002C81BB46FD070FBA
:101D300000C0002C91BB00C011FF81BB07958894A7
:101D400047FD070F00C000C0002C81BB0795889499
:101D500000C0002C91BB00C010FF81BB172F4111A8
:101D6000102FF19400C000C0002C81BBFC0E00C0FD
:101D700000C091BB00C017FF81BB71810027889410
:101D800000C000C0002C81BB71117D0D00C0002C73
:101D900091BB00C016FF81BB08F47FEFD1948894FB
:101DA00000C000C0002C81BB20FD070F00C0002C2C
:101DB00091BB00C015FF81BB0795889421FD070FDB
:101DC00000C000C0002C81BB0795889400C0002C87
:101DD00091BB00C014FF81BB22FD070F07958894BB
:101DE00000C000C0002C81BB23FD070F00C0002CE9
:101DF00091BB00C013FF81BB0795889424FD070F9A
:101E000000C000C0002C81BB0795889400C0002C46
:101E100091BB00C012FF81BB25FD070F0795889479
:101E200000C000C0002C81BB26FD070F00C0002CA5
:101E300091BB00C011FF81BB0795889427FD070F58
:101E400000C000C0002C81BB0795889400C0002C06
:101E500091BB00C010FF81BB172F2111102FD50E91
:101E600000C000C0002C81BB119709F086CEDF9125
:101E7000CF911F910F91FF90EF90DF90CF90BF9087
:101E8000AF909F9008950F931F93CF93DF93EC0132
:101E90008B010F960E946E06F894C8010E94640D93
:101EA000F8014281538120EE31E0DA010E94911D58
:101EB00004E096958795779567950A95D1F720E088
:101EC00030E0EAE94E9F212D5E9F200D311D112447
:101ED000620F731F811D911D693EF3E07F0781052D
:101EE0009105A8F1DC01CB01885E9340A109B109FD
:101EF000F2E0B695A79597958795FA95D1F740E0CA
:101F000050E027E0829F412D929F400D511D1124EA
:101F10002091810630E0280F391F240F351F809152
:101F20009E0690919F06A091A006B091A106432F16
:101F30005527840F951FA11DB11D80939E06909378
:101F40009F06A093A006B093A106209381067894E3
:101F50000E945616788B6F87DF91CF911F910F915A
:101F60000895FC01118A108A0895FF920F931F9320
:101F7000CF93DF93EC018091AE018F5F982F977024
:101F80009093AE0180FD02C080E001C080E891FD29
:101F90008064947009F0806290E1F92EF80E20E0E0
:101FA00030E000E011E0FE01E20FF31F64856623DC
:101FB00031F070E0C8010E94271D6F5F01C060E032
:101FC00061874F2D469F040E40E0411D11244111B1
:101FD00002C0168202C041504683662311F0615050
:101FE00061872F5F3F4F23303105E9F6DF91CF91B5
:101FF0001F910F91FF900895EF92FF920F931F93FF
:10200000CF93DF93CDB7DEB762970FB6F894DEBFFC
:102010000FBECDBF8C017A01F901DC011C968C91B9
:102020007A8369835C834B835E834D8390819D8734
:1020300091819E8792819F87813029F4CE010196FC
:102040000E94B50F06C01C861B861A861986188644
:102050001F82188AB701CE0101960E94B10FD801E4
:10206000ED91FC910484F585E02DBE016F5F7F4FFB
:10207000C801099562960FB6F894DEBF0FBECDBFBA
:10208000DF91CF911F910F91FF90EF900895EF9204
:10209000FF920F931F93CF93DF93CDB7DEB7629775
:1020A0000FB6F894DEBF0FBECDBF8C017A01F901E7
:1020B000DC011C968C917A8369835C834B835E83FD
:1020C0004D8390819D8791819E8792819F878130EA
:1020D00029F4CE0101960E94B50F06C01C861B860E
:1020E0001A86198618861F8283E0888BB701CE0175
:1020F00001960E94B10FD801ED91FC910484F58501
:10210000E02DBE016F5F7F4FC801099562960FB643
:10211000F894DEBF0FBECDBFDF91CF911F910F911D
:10212000FF90EF900895CF92DF92EF92FF920F937E
:102130001F93CF93DF9300D000D000D0CDB7DEB790
:1021400080913F02811119C00E944A166093BB0121
:102150007093BC018093BD019093BE0184E190E037
:10216000A0E0B0E08093BF019093C001A093C101B3
:10217000B093C20181E080933F020E944A16C09052
:10218000BB01D090BC01E090BD01F090BE016C1984
:102190007D098E099F09C090BF01D090C001E090D9
:1021A000C101F090C2016C157D058E059F0578F088
:1021B0000E944A166093BB017093BC018093BD01DD
:1021C0009093BE0180917F068F5F80937F06809100
:1021D0003702811115C00E944A1620E63AEE40E00F
:1021E00050E00E943B1D3093B8012093B7018AE074
:1021F00090E09093BA018093B90181E08093370217
:102200000E944A16F0E6CF2EFAEEDF2EE12CF12CDA
:10221000A70196010E943B1D8091B7019091B801E2
:10222000281B390B8091B9019091BA012817390701
:1022300078F00E944A16A70196010E943B1D309338
:10224000B8012093B70183E00E94DB0080938006F1
:1022500080918006823009F43FC060F4882399F0B1
:10226000813009F05CC181E00E943B0380E00E9464
:102270003B0357C1843009F413C108F4D0C0853042
:1022800009F42CC14CC180917F0692E3980F998389
:10229000E8ECFE2EFA821FEF1B838C8302E30D8392
:1022A0001E83BE016F5F7F4FCE0104960E94E20441
:1022B00080917F0692E3980F9983FA821B838C8327
:1022C0000D831E83AE014F5F5F4FBE016C5F7F4F7A
:1022D00080E00E94250525C14AE066E970E08DEBAB
:1022E00094E00E9459134AE06EE170E083E694E0C6
:1022F0000E94591310917F0680E40E94DB00810F39
:102300008C8308EC0D831FEF1E83BE016F5F7F4F30
:10231000CE0104960E945C1586E990E00E94E800D8
:102320009C01220F331F280F391FBE016F5F7F4FA3
:10233000C90183549B4F0E941102F0907F0680E4F4
:102340000E94DB008F0D8C830D831E83BE016F5FA7
:102350007F4FCE0104960E945C158EE190E00E94B2
:10236000E8009C01220F331F280F391FBE016F5F49
:102370007F4FC9018D599B4F0E9411024AE066E9C7
:1023800070E081EA92E00E9459134AE06EE170E049
:1023900087E492E00E945913F0907F0680E40E9447
:1023A000DB008F0D8C830D831E83BE016F5F7F4F1B
:1023B000CE0104960E945C1586E990E00E94E80038
:1023C0009C01220F331F280F391FBE016F5F7F4F03
:1023D000C9018F559D4F0E941102F0907F0680E445
:1023E0000E94DB008F0D8C830D831E83BE016F5F07
:1023F0007F4FCE0104960E945C158EE190E00E9412
:10240000E8009C01220F331F280F391FBE016F5FA8
:102410007F4FC901895B9D4F0E94110282C080914C
:102420007F068C831D821FEF1E83BE016F5F7F4F6F
:10243000CE0104960E945C15AE014F5F5F4F66E9C6
:1024400070E08DEB94E00E941C1380917F068983DD
:102450001A831B83CE0101960E943E0180917F0664
:102460008C831D821E83BE016F5F7F4FCE01049659
:102470000E945C15AE014F5F5F4F6CE370E081EA34
:1024800092E00E941C1380917F06805889831A83F2
:102490001B83BE016F5F7F4F80E00E948F0241C0AF
:1024A0000E94690280912F02811115C00E944A1674
:1024B00028EE33E040E050E00E943B1D3093B40131
:1024C0002093B3018AE090E09093B6018093B50128
:1024D00081E080932F0283EB91E01EC080E00E9498
:1024E000270380912702811115C00E944A1628EE09
:1024F00033E040E050E00E943B1D3093B001209358
:10250000AF018AE090E09093B2018093B10181E045
:10251000809327028FEA91E00E94E00181111092DE
:10252000800686EA96E00E943517181619060CF008
:1025300051C086EA96E00E944517823351F1FCF4BF
:10254000813309F047C00E94C600182F0E94C600C0
:10255000082F0E94C60089830A831B830E94C6003D
:10256000182F0E94C6008C8388EC8D831E83BE01C9
:102570006F5F7F4FCE0104960E94E2042BC083332D
:10258000A1F0833739F5809180068F5F80938006B4
:1025900021C00E94C600898388EC8A838FEF8B83D9
:1025A000CE0101960E943E0115C008EC10E00E9489
:1025B00069026091900680E996E00E94FE1342E075
:1025C00050E060E070E080E996E00E9490140150D5
:1025D000110969F76091900680E996E00E94FE1368
:1025E0004AE050E060E070E080E996E00E949014DC
:1025F00026960FB6F894DEBF0FBECDBFDF91CF9108
:102600001F910F91FF90EF90DF90CF900895FC0104
:102610002081269F020E20E0211D20832181269FFC
:10262000020E20E0211D21832281269F020E20E040
:10263000211D228311240895FA0120E030E0039641
:10264000261737076CF44081DC0113974C934181C6
:1026500011964C93428111964C932F5F3F4FEFCFD1
:102660000895CF92DF92EF92FF920F931F93CF9333
:10267000DF931F92CDB7DEB77B018C01C12CD12C2B
:10268000CE14DF0461F0642FC80149830E94071350
:102690008FEFC81AD80A0D5F1F4F4981F1CF0F90F5
:1026A000DF91CF911F910F91FF90EF90DF90CF902E
:1026B000089540950C9431138F929F92AF92BF92E0
:1026C000EF92FF920F931F93CF93DF93EC01188249
:1026D00019821A824423B9F1E0E0F0E08B010A5F2D
:1026E0001F4F7B0189E0E80EF11C842E912CA12C58
:1026F000B12CD801AE0FBF1F2C91D701AE0FBF1F59
:102700006C912223E1F06623D1F030E040E050E00C
:102710002F5F3F4F4F4F5F4F70E080E090E06F5F63
:102720007F4F8F4F9F4F0E94031D9B01AC01C5013E
:10273000B4010E94031DDE01AE0FBF1F8C933196C2
:10274000E330F105B1F6CE01DF91CF911F910F91EA
:10275000FF90EF90BF90AF909F908F900895CF9291
:10276000DF92EF92FF92CF93DF93EC018091860688
:10277000909187069C012F5F3F4F309387062093EF
:102780008606861797079CF10E944A169B01AC01AA
:10279000E0918606F091870688EE93E0E89FB0010D
:1027A000E99F700DF89F700D1124882777FD8095A3
:1027B000982FC0908206D0908306E0908406F09017
:1027C00085062C193D094E095F090E943B1D3A837D
:1027D000298310928706109286060E944A166093FB
:1027E0008206709383068093840690938506DF911A
:1027F000CF91FF90EF90DF90CF9008958F929F92AE
:10280000AF92BF92EF92FF920F931F93CF93DF93FC
:1028100000D01F92CDB7DEB78C01F62EF801838170
:102820009481A581B681892B8A2B8B2BD1F00E94B4
:1028300056168090880690908906A0908A06B090DF
:102840008B06681979098A099B09D80113968D901E
:102850009D90AD90BC901697681579058A059B05EB
:10286000E8F20E945616609388067093890680935A
:102870008A0690938B06D8011B96ED91FC911C97CC
:10288000309751F0D80117964D915D916D917C91E3
:102890001A978F2D0995F82EA0908E06B0908F066E
:1028A000A114B10451F1F501E484D80111968D9180
:1028B0009C9112978436910508F41486D501ED9108
:1028C000FC91828093804F2DB501CE0101960E942C
:1028D0005C13F50145855685628173819E012F5FEA
:1028E0003F4FC501F4010995D5011C96EC921C9748
:1028F0001496AD90BC901597D3CF69E170E0C801F4
:102900000E94AF130F900F900F90DF91CF911F9106
:102910000F91FF90EF90BF90AF909F908F90089590
:102920008F929F92AF92BF92CF92DF92EF92FF92DF
:10293000CF93DF93EC016A017B010E944A164B01A1
:102940005C0161E070E080E090E00E9479166881AF
:10295000CE010E94FE130E94FF150E944A166819BC
:1029600079098A099B096C157D058E059F0548F339
:10297000DF91CF91FF90EF90DF90CF90BF90AF901D
:102980009F908F900895CF92DF92EF92FF920F93D6
:102990001F93CF93DF93EC014423F1F06115710590
:1029A00081F19B0140E050E060E472E48FE090E050
:1029B0000E945D1DCB80DC80ED80FE8089019A0144
:1029C0000C151D052E053F0510F4970186010B839C
:1029D0001C832D833E8315C06115710571F09B0129
:1029E00040E050E060E472E48FE090E00E945D1D02
:1029F0002B833C834D835E8304C01B821C821D821B
:102A00001E82DF91CF911F910F91FF90EF90DF9089
:102A1000CF900895CF92DF92EF92FF920F931F9382
:102A2000CF93DF93EC016B018A0179011216130633
:102A30001CF07A0100E010E0E881F9810480F58162
:102A4000E02DCE010995C801880F991F800F911FB5
:102A50008C0D9D1D9B838A83FE86ED86E881F9811E
:102A60000284F385E02DCE01099541E0BC0180E9A7
:102A700096E00E94C314CE01DF91CF911F910F9178
:102A8000FF90EF90DF90CF9008958FEF80939006A6
:102A9000109292061092910610929C0610929B063C
:102AA0008FEF9FEFDC018093970690939806A09399
:102AB0009906B0939A060895FC01DB01408161817B
:102AC0007281242F2F71220F220F220F522F35E5F2
:102AD000539F050E50E0511D1124352F942F9074F3
:102AE000842F807247FD1FC091110AC0811103C05D
:102AF0003095452F11C045E5450F20E03BEA2FC03A
:102B000081110CC03AEA239F020E20E0211D1124FE
:102B10003BEA321B4AEA450F20E021C080E0452F06
:102B20004095252F0DC0911110C081110BC03AEABC
:102B3000239F020E20E0211D11244BEA421B2B5A39
:102B400030E00DC0252F209509C0811103C03B5AEC
:102B50002BEA03C0365580E025E5251B40E06F3F9A
:102B600009F423C06623F1F0332321F0369F030ECE
:102B700030E0311D442321F0469F040E40E0411D0A
:102B8000222321F0269F020E20E0211D1124562F22
:102B90005095559F050E50E0511D1124350F450FDE
:102BA000250F03C02FEF4FEF3FEF7F3F09F420C009
:102BB00050E0772321F0779F512D09F05F5F552377
:102BC000A1F0332321F0359F030E30E0311D442363
:102BD00021F0459F040E40E0411D222321F0259F56
:102BE000020E20E0211D112403C020E040E030E06F
:102BF0003C9311964C93119712962C930895089537
:102C00001F920F920FB60F9211242F933F938F9321
:102C10009F93AF93BF9380919E0690919F06A09142
:102C2000A006B091A10630919D0623E0230F2D3719
:102C300020F40196A11DB11D05C026E8230F0296C0
:102C4000A11DB11D20939D0680939E0690939F0623
:102C5000A093A006B093A1068091A2069091A3062E
:102C6000A091A406B091A5060196A11DB11D809367
:102C7000A2069093A306A093A406B093A506BF91C5
:102C8000AF919F918F913F912F910F900FBE0F9019
:102C90001F9018952FB7F89460919E0670919F062B
:102CA0008091A0069091A1062FBF08953FB7F89498
:102CB0008091A2069091A306A091A406B091A506CA
:102CC00026B5A89B05C02F3F19F00196A11DB11D87
:102CD0003FBF6627782F892F9A2F620F711D811DA4
:102CE000911D42E0660F771F881F991F4A95D1F703
:102CF00008958F929F92AF92BF92CF92DF92EF9200
:102D0000FF926B017C010E9456164B015C01C114BD
:102D1000D104E104F104F1F00E94FF150E9456165F
:102D2000681979098A099B09683E734081059105F4
:102D300070F321E0C21AD108E108F10888EE880E8C
:102D400083E0981EA11CB11CC114D104E104F1045C
:102D500029F7DDCFFF90EF90DF90CF90BF90AF903D
:102D60009F908F900895789484B5826084BD84B5D7
:102D7000816084BD85B5826085BD85B5816085BD76
:102D8000EEE6F0E0808181608083E1E8F0E010828F
:102D9000808182608083808181608083E0E8F0E0D0
:102DA000808181608083E1E9F0E0808182608083BE
:102DB000808181608083E0E9F0E0808181608083B0
:102DC000E1ECF0E080818460808380818260808398
:102DD000808181608083E3ECF0E08081816080838A
:102DE000E0ECF0E0808182608083E2ECF0E08081C2
:102DF00081608083EAE7F0E0808184608083808165
:102E0000826080838081816080838081806880830C
:102E100008950E94A31DCF93DF931F92CDB7DEB715
:102E20006983DC01ED91FC910280F381E02D41E0AA
:102E300050E0BE016F5F7F4F09950F90DF91CF91FA
:102E40000895CF93DF93EC018C859D8597FF05C096
:102E500082E00E9434199D878C878C859D85DF9147
:102E6000CF91089583E00C94C81BFC01848595855F
:102E700097FD06C082E00E94DC1890E0019608955C
:102E800082E00E94DC1890E00895FC01848595851D
:102E900097FD05C02FEF3FEF35872487089582E027
:102EA0000C943419CF93DF93EC0180910D018823AA
:102EB00031F083E00E9465191816190634F081E09C
:102EC00090E09B838A8380E090E0DF91CF9108952A
:102ED000FC0120812E5F208342E450E06CEA70E028
:102EE00080E80C94001AFC0121818081813A59F418
:102EF000213209F05CC047E050E066E071E080E01C
:102F00000E94001A67C0813209F051C0233289F44F
:102F1000838190E0982F88273281832BA0E0B0E056
:102F20008093020190930301A0930401B0930501E3
:102F30000FC0203239F467E070E086E091E00E9433
:102F4000311A0AC0223221F4828180930D0104C01B
:102F50002D7F203209F03EC080910601909107013B
:102F6000A0910801B0910901803B9440A105B105F1
:102F700001F580910D0180FD1CC0809100089091A9
:102F800001089093FF0A8093FE0A87E797E79093E2
:102F90000108809300082BE088E190E00FB6F894D8
:102FA000A895809360000FBE2093600013C080E05E
:102FB000089588E10FB6F894809360001092600045
:102FC0000FBEA8958091FE0A9091FF0A9093010888
:102FD0008093000881E008952FEF3FEFFC013587D3
:102FE000248708951092A9061092A80688EE93E00F
:102FF000A0E0B0E08093AA069093AB06A093AC0645
:10300000B093AD0682EA91E09093A7068093A6065E
:103010008FEF9FEF9093B3068093B20608950895C3
:103020000E94B3160E940F1886EF96E00E94551C6E
:103030000E94AA05C0E0D0E00E9493102097E1F31F
:103040000E940000F9CF615030F02091F100FC01A6
:1030500020830196F8CF289884E68093FF06089590
:103060004091FA065091FB062091F8063091F9063E
:1030700042175307B4F49091E8009570E1F39091F2
:10308000E80092FD19C08093F1008091FA069091BA
:10309000FB0601968F739927892B19F48EEF809385
:1030A000E8008091FA069091FB0601969093FB064A
:1030B0008093FA0681E0089580E00895CF92DF9230
:1030C000EF92FF920F931F93CF93DF931F92CDB791
:1030D000DEB7082F162FF42E862F880F8E5F998368
:1030E0000E94301883E00E943018E02EC02E998193
:1030F000D92E8C2D8E19811798F4F601F7FE02C097
:10310000849101C080810E943018082F80E00E94C5
:1031100030188023FFEFCF1ADF0A8111EACF01C0F8
:1031200081E00F90DF91CF911F910F91FF90EF9071
:10313000DF90CF9008958091D70081608093D70071
:1031400080EA8093D80089B5806189BD89B58260A5
:1031500089BD09B400FEFDCF61E070E080E090E041
:103160000E9479168091D8008F7C80618093D8006E
:103170008091E000807F8093E0000895CF93DF93FB
:103180001F92CDB7DEB71982CE0101960E94681753
:103190000E94EF1CBE016F5F7F4F0E94681C8981F7
:1031A0000F90DF91CF9108952FB7FC012083F89401
:1031B00067706093E9000895CF93DF931F92CDB7B6
:1031C000DEB7682FCE0101960E94D4188091F200DC
:1031D00099819FBF0F90DF91CF910895FF920F9338
:1031E0001F93CF93DF9300D0CDB7DEB7F62E8A01C1
:1031F0009091FE06992311F057FF03C08FEF9FEFC8
:103200002BC0682FCE0101967A830E94D41880913A
:10321000F20090E0A8017A81801791070CF4AC01CC
:10322000EF2DF72FF40E84E6FE1639F028988093E0
:10323000FF069091F1009193F7CF4115510521F0D0
:103240008091F200882321F089818FBFCA0104C0D8
:103250008BE68093E800F8CF0F900F90DF91CF912D
:103260001F910F91FF900895CF93DF931F92CDB7D9
:10327000DEB741E050E0BE016F5F7F4F0E94EE1865
:10328000019719F4898190E002C08FEF9FEF0F90B2
:10329000DF91CF910895CF93DF931F92CDB7DEB723
:1032A000682FCE0101960E94D4189091E800892FD2
:1032B000807295FF04C09091F20080E4891B99818F
:1032C0009FBF0F90DF91CF9108956F927F928F9261
:1032D0009F92AF92BF92CF92DF92EF92FF920F93A5
:1032E0001F93CF93DF931F92CDB7DEB7782E7B016C
:1032F000C42EB52E8091FE06882369F0042F152F69
:103300008AEFD82E872D8072982E9AE3A92E872DCA
:103310008074882E11C08FEF9FEF57C0872D0E94B9
:103320004B19682E81110CC0DA94A9F361E070E0AA
:1033300080E090E00E9479160115110579F73BC0F5
:10334000282F30E0021713070CF4602E672DCE01F2
:1033500001960E94D4188091E80085FF29C0262D8F
:1033600030E0021B130B992039F06A948FEF681636
:10337000B1F01092F100F9CFF701862D77FE07C06A
:10338000815058F094919093F1003196F9CF81508B
:1033900020F091919093F100FACFE20EF31E80910C
:1033A000E80085FF0FC00115110511F481100AC056
:1033B00089818FBFC1CF5D9884E6809300078C2DF3
:1033C0009B2D03C0A092E800F3CF0F90DF91CF9127
:1033D0001F910F91FF90EF90DF90CF90BF90AF9033
:1033E0009F908F907F906F9008951092E9001092B7
:1033F000FB061092FA069093F9068093F80608955A
:10340000CF92DF92FF920F931F93CF93DF9300D061
:10341000CDB7DEB7F82E8A016B0101151105B1F0A9
:10342000F601F7FE02C0849101C0808149835A836E
:103430000E94301801501109FFEFCF1ADF0A4981AD
:103440005A818111EACF8FEF9FEF01C0CA010F901F
:103450000F90DF91CF911F910F91FF90DF90CF9050
:103460000895BF92CF92DF92EF92FF920F931F9336
:10347000CF93DF936C018B01EB013BEFB32E2097D1
:10348000C1F07E01C134D1051CF020E4E22EF12C04
:103490008091E80082FFFCCFC8018C1B9D0B6E2D34
:1034A0008C0D9D1D0E942318B092E800CE19DF09F3
:1034B000E6CFC801DF91CF911F910F91FF90EF9060
:1034C000DF90CF90BF9008951F920F920FB60F928A
:1034D0001124DF92EF92FF920F931F932F933F934C
:1034E0004F935F936F937F938F939F93AF93BF930C
:1034F000EF93FF93CF93DF93CDB7DEB76C97DEBF2B
:10350000CDBF1092E9008091E80083FF23C168E0FD
:10351000CE0145960E94231882EF8093E8003D89F2
:1035200037FF05C08091E80080FFFCCF03C08EEF1D
:103530008093E800832F807609F0F0C02E894F89B0
:10354000D88C21110CC0303829F48091FD0680936D
:10355000F10002C01092F1001092F100F4C0842F2B
:1035600090E09D29213049F43111EDC0019709F017
:10357000EAC08091FD068D7F0AC0233059F43111D5
:10358000E2C0019709F0DFC08091FD068260809360
:10359000FD06D9C0253041F48091E80080FFFCCFC2
:1035A00040684093E300CFC0263009F08DC0EB8C1B
:1035B000FC8C22E0D2122CC080E090E00E94F51931
:1035C0000E94BE1899E08E010F5F1F4FF801292F4E
:1035D00011922A95E9F79983DA8291E09E8390EA25
:1035E00098879AEF99872091FA063091FB06275F1A
:1035F0003F4F3C832B838D83C7010E94F51949E01F
:1036000050E0B80180E00E94001A0E94BE189BC0E2
:10361000C7010E94F5190E94EF1CBE016B5E7F4F2F
:103620000E94911C009719F00CF08DC090C081E0B1
:10363000D8120EC08B8D9C8D089719F481E0809371
:10364000F7068091F70681112FC060E071E031C06C
:10365000E3E0DE127CC08F89882349F1823029F4AF
:1036600040E860E18EE191E01CC0813029F440E83F
:103670006BE082E191E015C0833009F068C00E94E0
:10368000EF1C8E010F5F1F4FB8010E94B01CF801A4
:1036900001900020E9F73197E01BF10B40E06E2F1D
:1036A000C8010E945E184DC06EEE70E002C06FE26D
:1036B00071E06115710509F44AC0FB01449150E0C5
:1036C00080E80E94001A3FC0273009F440C028302B
:1036D00021F481E08093F10036C02930A1F53370E8
:1036E000B1F5EFE0F1E081E021E036E3908199234C
:1036F00061F08093E9002093EB0091919093EC00AE
:103700003093ED008F5F873089F78EE78093EA0072
:103710001092EA008F898093FE0615C08B8D9C8DD8
:103720000E94F519898D811105C0CE0145960E9430
:10373000731707C00E94EF1CBE016B5E7F4F0E9493
:10374000CF1C882321F08EEF8093E80003C081E234
:103750008093EB006C960FB6F894DEBF0FBECDBF22
:10376000DF91CF91FF91EF91BF91AF919F918F9199
:103770007F916F915F914F913F912F911F910F9189
:10378000FF90EF90DF900F900FBE0F901F90189555
:103790008093E9008091F200882319F08AE38093F6
:1037A000E80008951F920F920FB60F9211242F93E5
:1037B0003F934F935F936F937F938F939F93AF93B9
:1037C000BF93CF93EF93FF93C091E1008091E1000D
:1037D000837F8093E1008093E100C3FF0FC01092CC
:1037E000E90081E08093EB001092EC0082E380938B
:1037F000ED001092FE0688E08093F000C2FF19C031
:1038000083E00E94C81B80910007882339F08091D3
:103810000007815080930007882389F18091FF067B
:10382000882339F08091FF0681508093FF0688231A
:1038300041F1C4FF10C08091E2008E7E81608093D0
:10384000E2008091E1008F7E8093E1008091FC0690
:103850008E7E806111C0C0FF16C08091E2008E7E16
:1038600080618093E2008091E1008E7E8093E10090
:103870008091FC068E7E81608093FC0604C05D9A78
:10388000CDCF289AD6CFFF91EF91CF91BF91AF9135
:103890009F918F917F916F915F914F913F912F9168
:1038A0000F900FBE0F901F9018951092FE06109269
:1038B000FD061092FC060E949B18E1EEF0E080816C
:1038C0008E7E80838DE08093E200559A209A089541
:1038D000EF92FF920F931F93CF93DF937B01FC0135
:1038E000C281D38100E010E0209781F0E881F98166
:1038F0000280F381E02DB701CE01099597FD08C044
:10390000080F191F0884D985C02DEECFC80102C049
:103910008FEF9FEFDF91CF911F910F91FF90EF906D
:1039200008950F931F93CF93DF938B01FC01C28106
:10393000D381209771F0E881F9810480F581E02D31
:10394000B801CE010995009731F40884D985C02DBE
:10395000F0CF80E090E0DF91CF911F910F9108951B
:103960000F931F93CF93DF938B01FC01C281D3810F
:10397000209771F0E881F9810680F781E02DB80188
:10398000CE010995080F111D0884D985C02DF0CFEF
:10399000F8011082DF91CF911F910F9108950F933D
:1039A0001F93CF93DF938B01FC01C281D3812097BA
:1039B00071F0E881F9810190F081E02DB801CE012C
:1039C0000995811106C00884D985C02DF0CF80E00B
:1039D00001C081E0DF91CF911F910F9108958091F7
:1039E000050781110DC082E08093010784E0809378
:1039F0000207109204071092030781E080930507E5
:103A000081E097E00895DB018F939F930E94981DBA
:103A1000BF91AF91A29F800D911DA39F900DB29F6A
:103A2000900D11240895AA1BBB1B51E107C0AA1FCA
:103A3000BB1FA617B70710F0A61BB70B881F991F4F
:103A40005A95A9F780959095BC01CD01089597FBF3
:103A5000072E16F4009407D077FD09D00E94131D9D
:103A600007FC05D03EF4909581959F4F0895709581
:103A700061957F4F0895A1E21A2EAA1BBB1BFD0181
:103A80000DC0AA1FBB1FEE1FFF1FA217B307E4073D
:103A9000F50720F0A21BB30BE40BF50B661F771F95
:103AA000881F991F1A9469F7609570958095909575
:103AB0009B01AC01BD01CF010895052E97FB1EF4BB
:103AC00000940E94741D57FD07D00E943B1D07FC07
:103AD00003D04EF40C94741D50954095309521956B
:103AE0003F4F4F4F5F4F089590958095709561952A
:103AF0007F4F8F4F9F4F0895EE0FFF1F0590F4915A
:103B0000E02D0994A29FB001B39FC001A39F700D47
:103B1000811D1124911DB29F700D811D1124911DD5
:103B200008950E94821DB7FF0895821B930B08958C
:103B30000E94821DA59F900DB49F900DA49F800DA3
:103B4000911D1124089581E090E0F8940C94A81D33
:043B5000F894FFCF17
:103B54003905FFFFFFFF00E100000000000000C185
:103B6400808100000000003100F9183000FB302C87
:103B7400001C472600825A1F006D6A170041760E0A
:103B840000897D04000000000917091709170301C3
:103B9400FF00270100000000FC0F47100917030174
:103BA400FF002701091700000000FC0F47103C012B
:103BB4000301FF003301430F00000000FC0F471016
:103BC4003A010301FF003001F60C00000000FC0F75
:103BD400471038010301FF002D01A90A000000006D
:103BE400FC0F471036010301FF002A015C080000A6
:0E3BF40000000B17521735174517211732170F
:00000001FF
