:100000000C94A4000C94CC000C94CC000C94CC0068
:100010000C94CC000C94CC000C94CC000C94CC0030
:100020000C94CC000C94CC000C94B31E0C94451D85
:100030000C94CC000C94CC000C94CC000C94CC0010
:100040000C94CC000C94CC000C94CC000C94CC0000
:100050000C94CC000C94CC000C94CC000C94521852
:100060000C94CC000C94CC000C94CC000C94CC00E0
:100070000C94CC000C94CC000C94CC000C94CC00D0
:100080000C94CC000C94CC000C94CC000C94CC00C0
:100090000C94CC000C94CC000C94CC000C94CC00B0
:1000A0000C94CC000C94CC000C94CC008713A713B8
:1000B000AE13511492149514CC14EA14080B0002D8
:1000C00002020100090400000102020000052400F0
:1000D0001001052401010104240206052406000183
:1000E0000705810310004009040100020A00000016
:1000F00007050202400000070583024000001201CC
:100100000002EF0201404123368000010102030199
:10011000120100020000004041233680000101026C
:10012000030141726475696E6F204C4C430041724B
:100130006475696E6F204C656F6E6172646F000448
:10014000030904009717441A11241FBECFEFDAE009
:10015000DEBFCDBF11E0A0E0B1E0E2E4F5E402C013
:1001600005900D92A43DB107D9F727E0A4EDB1E0C9
:1001700001C01D92A03BB207E1F711E0C8E4D1E055
:1001800004C02297FE010E947522C434D107C9F72A
:100190000E94621A0C949F220C940000409104016A
:1001A0005091050125E038E0429FC001439F900D2A
:1001B000529F900D1124875E994C90930501809376
:1001C0000401890F08951F93182F0E94CE00282F35
:1001D000219F020E20E0211D1124822F1F910895DE
:1001E000609104017091050145E058E0649F900121
:1001F000659F300D749F300D1124275E394C30936C
:10020000050120930401DC010E9479220895982FB2
:1002100086FD9095E92FEF739F7086FD9F5FE695B1
:10022000E695E695E670F0E0E05CFE4F2181299FBF
:10023000202D912D112422952F709295907F292B9E
:100240009081920F87FD02C0892F02C0892F81956E
:1002500080580895FC01858596850895CF93DF9396
:1002600000D000D000D0CDB7DEB7AB011C821D821C
:100270001E82DC01ED91FC910190F081E02D19824C
:100280001A821B829E012F5F3F4FBE016C5F7F4F22
:10029000099526960FB6F894DEBF0FBECDBFDF914D
:1002A000CF91089580E090E0089580E991E008956D
:1002B00080E991E0089580E991E0089580E991E076
:1002C0000895849A0895859A0895869A0895879A3C
:1002D00008950F931F93CF93DF9300D01F92CDB754
:1002E000DEB78C01BE016F5F7F4F0E94AE17AE017B
:1002F0004F5F5F4F6EE170E086E095E00E946E1503
:10030000BE016F5F7F4FC8010E94AE17AE014F5F05
:100310005F4F65E070E085E096E00E946E15BE01DB
:100320006F5F7F4FC8010E94AE17AE014F5F5F4FF6
:100330006EE170E084E196E00E946E15BE016F5F91
:100340007F4FC8010E94AE17AE014F5F5F4F65E05F
:1003500070E08EE696E00E946E150F900F900F9061
:10036000DF91CF911F910F910895CF93DF93EC010F
:100370008F3F910509F010F4D82FCC270E949C18CC
:100380009B01AC01A8E1B1E00E948F229B01AC016E
:10039000DE010E948F22AA27BB279C013F7336955E
:1003A00027953695279536952795AC0144275074A7
:1003B000452B31F04FEF57E0BA01621B730B9B01E5
:1003C000E32FEE0FEE0FF0E0EF5DFE4F4081518125
:1003D00032812695BA01329F600D711D11249B0157
:1003E00097FF03C031952195310930586CE370E0D7
:1003F000269FB0014CE350E0359FC001E0E0349F00
:10040000700D811D9E1F259F700D811D9E1F112443
:10041000DF91CF910895CF92DF92EF92FF921F93D9
:10042000CF93DF93EC010E949C18E8EECE2EE3E020
:10043000DE2EE12CF12CA70196010E943222888148
:100440009981281B390B11E04A815B8124173507FC
:1004500010F410E008C00E949C18A70196010E94A9
:10046000322239832883812FDF91CF911F91FF9012
:10047000EF90DF90CF900895FC01DB013C9120814B
:10048000230F08F42FEF208311963C9111972181BF
:10049000230F08F42FEF218312963C912281230F22
:1004A00008F42FEF22830895CF93DF9300D01F929B
:1004B000CDB7DEB70E94CE008035A8F48FEF8983D8
:1004C0008A838B838EE190E00E94F0009C01220FD2
:1004D000331F280F391FBE016F5F7F4FC9018A5F2D
:1004E0009A4F0E943C020E94CE008035B8F48FEFF4
:1004F00089838A838B8388E290E00E94F0009C01CC
:10050000295C3F4FC901880F991F820F931FBE01BD
:100510006F5F7F4F805A9A4F0E943C020F900F905E
:100520000F90DF91CF9108950E9454024AE06EE14E
:1005300070E086E095E00E94AB154AE066E970E065
:1005400080E695E00C94AB15FC01DB018C91908169
:10055000981708F4808311968C91119791819817C0
:1005600008F4818312968C919281981708F4828303
:10057000CF010895FC0130813D3358F08091020194
:100580009091030191958195910990930301809336
:10059000020121812F3158F08091000190910101D9
:1005A000919581959109909301018093000180912B
:1005B0000201830F808380910001820F818308955F
:1005C0004F925F926F927F929F92AF92BF92CF9223
:1005D000DF92EF92FF920F931F93CF93DF9300D0A0
:1005E0001F92CDB7DEB70E949C182AE030E040E0B1
:1005F00050E00E943222623071058105910508F0B9
:10060000CEC18DE492E00E94BA0205ED11E0C12C4A
:10061000D12C7601C701B6010E94B520862F0E9419
:100620000701880FF80181938F0129E838E848E82D
:100630005FE3C701B6010E94E51F6B017C01F2E098
:100640000D341F0739F780914D0290E0CC9720E0E0
:1006500030E097FF12C091958195910932C0ECE48A
:10066000F2E0ADE4B2E042914E9341E0E53DF407A3
:10067000D1F71092D5012F5F3F4F281739077CF330
:1006800060914E0270E080E090E00E94E32020E064
:1006900030E040EF51E40E944D207B018C0120E0CE
:1006A00030E0A9010E94492087FF13C021C0419179
:1006B0004D9342E0ED34F407D1F710924C022F5FD6
:1006C0003F4F28173907E4F6E6EDF1E0A5EDB1E07C
:1006D000EECF20E030E040E85FE3B701C8010E94C0
:1006E000932118164CF4E12CF12C00E81FE304C010
:1006F000E12CF12C00E010E09701A80160E070E02F
:1007000080E89FE30E94E41F6B017C0131E1A32E8E
:1007100032E0B32E00E010E099249A9443E0642E76
:1007200045E0742EF50161915F0170E080E090E09A
:100730000E94E320A70196010E9497210E94B52004
:10074000562E8091220789839A825B82B8016C5B66
:100750007C4FCE0101960E94AE17809122078983BB
:100760009A825B82B301601B710BCE0101960E94DD
:10077000AE170D5F1F4F043B1105A1F692E1A92EA4
:1007800092E0B92E00E010E099249A942FE1622EB5
:1007900027E0722EF50162915F0170E080E090E049
:1007A0000E94E320A70196010E9497210E94B52094
:1007B000562E8091220789839A825B82B801605A03
:1007C0007A4FCE0101960E94AE178091220789834D
:1007D0009A825B82B301601B710BCE0101960E946D
:1007E000AE170D5F1F4F043B1105A1F6E5EDF1E0DB
:1007F00042E0ED34F40711F01192FACF05ED11E06B
:10080000C12CD12C7601C701B6010E94B520862FDC
:100810000E940701880FF80181938F0129E838E8C9
:1008200048E850E4C701B6010E94E51F6B017C0156
:10083000F1E0033F1F0739F780914E0290E00F97D8
:1008400020E030E097FF12C091958195910932C068
:10085000E2EFF1E0A3EFB1E042914E9341E0E53DDC
:10086000F407D1F71092D5012F5F3F4F28173907B2
:100870007CF360914D0270E080E090E00E94E32004
:1008800020E030E040EF52E40E944D205B016C011B
:1008900020E030E0A9010E94492087FF13C023C057
:1008A00041914D9341E0E33FF407D1F71092F201FB
:1008B0002F5F3F4F28173907E4F6E6EDF1E0A5ED8D
:1008C000B1E0EECF20E030E040E85FE3B501C601E3
:1008D0000E94932118165CF4A12CB12C00E8C02EC4
:1008E0008FE3D82E04C0A12CB12CC12CD12C9501A2
:1008F000A60160E070E080E89FE30E94E41F2B0106
:100900003C0115EDE12E11E0F12E00E010E09924FC
:100910009A94F70161917F018091220789839A82DD
:1009200070E080E090E00E94E320A30192010E9429
:1009300097210E94B5206B83B8016C5E794FCE0180
:1009400001960E94AE170D5F1F4F0A35110509F77A
:10095000B0E6EB2EB5E0FB2E05ED11E077247A949E
:10096000F80161918F018091220789837A8270E07A
:1009700080E090E00E94E3209501A6010E9497216B
:100980000E94B5206B83B701CE0101960E94AE177D
:10099000F3E0EF0EF11C41E0033F140709F70F905D
:1009A0000F900F90DF91CF911F910F91FF90EF90DB
:1009B000DF90CF90BF90AF909F907F906F905F90AF
:1009C0004F9008950F931F93CF93DF9300D01F9202
:1009D000CDB7DEB78B01882321F0CB010E946901DE
:1009E0003CC0BE016F5F7F4FC8010E94AE17AE01D1
:1009F0004F5F5F4F6EE170E08AEE92E00E946E15ED
:100A0000BE016F5F7F4FC8010E94AE17AE014F5FFE
:100A10005F4F65E070E089EE93E00E946E15BE01C5
:100A20006F5F7F4FC8010E94AE17AE014F5F5F4FEF
:100A30006EE170E088EF93E00E946E15BE016F5F7B
:100A40007F4FC8010E94AE17AE014F5F5F4F65E058
:100A500070E082E594E00E946E150F900F900F9069
:100A6000DF91CF911F910F910895CF93DF9300D025
:100A70001F92CDB7DEB7882319F00E94540234C00C
:100A80000E94CE008035A8F48FEF89838A838B8300
:100A90008EE190E00E94F0009C01220F331F280F8E
:100AA000391FBE016F5F7F4FC90186519D4F0E9464
:100AB0003C020E94CE008035B8F48FEF89838A8390
:100AC0008B8388E290E00E94F0009C01295C3F4FFC
:100AD000C901880F991F820F931FBE016F5F7F4F5F
:100AE0008C5B9C4F0E943C020F900F900F90DF9107
:100AF000CF91089581110C94940280E00E943505F5
:100B00004AE06EE170E08AEE92E00E94AB154AE0A6
:100B100066E970E084E493E00C94AB15DF92EF9209
:100B2000FF920F931F93CF93DF9300D000D000D09C
:100B3000CDB7DEB74AE066E970E0882309F462C009
:100B400080E695E00E94AB154AE06EE170E086E039
:100B500095E00E94AB1507E010E0F12CA8ECEA2E1E
:100B6000DD24DA94809122078F0D8C83ED82DE8262
:100B7000BE016F5F7F4FCE0104960E94AE17C80181
:100B80000E94B5019C01220F331F280F391FBE019F
:100B90006F5F7F4FC901805A9A4F0E94A40245E0BF
:100BA00056E06EE170E086E095E00E946E1541E14E
:100BB00056E06EE170E084E196E00E946E1580E2FE
:100BC000F80E20E635E040E050E0FA01E05AFA4F36
:100BD0008081D901A154BE4F8C93818111968C9351
:100BE0008281F901EF53FE4F80834D5F5F4F2350A9
:100BF0003109443B510549F70F5F1F4F80EAF81256
:100C0000B1CF5EC084E493E00E94AB154AE06EE190
:100C100070E08AEE92E00E94AB1507E010E0F12C44
:100C2000E8ECEE2EDD24DA94FC82ED82DE82BE0159
:100C30006F5F7F4FCE0104960E94AE17C8010E94DD
:100C4000B5019C01220F331F280F391FBE016F5FB2
:100C50007F4FC9018C5B9C4F0E94A40249EE53E078
:100C60006EE170E08AEE92E00E946E1545EF53E06F
:100C70006EE170E088EF93E00E946E1580E2F80E5E
:100C800024E433E080E090E0FC01EC5BFC4F408129
:100C9000D901A154BE4F4C93418111964C9342818E
:100CA000F901EF53FE4F4083039623503109843BF3
:100CB000910551F70F5F1F4F0F30110509F0B4CFA9
:100CC00026960FB6F894DEBF0FBECDBFDF91CF9151
:100CD0001F910F91FF90EF90DF9008952F923F9218
:100CE0004F925F926F927F928F929F92AF92BF923C
:100CF000CF92DF92EF92FF920F931F93CF93DF93E8
:100D0000CDB7DEB727970FB6F894DEBF0FBECDBFC5
:100D10008E839F837B01DA0141E0E41AF108F90137
:100D20008081C18082804C9011962C9011971296F0
:100D30002C91882011F0C11001C0842D222311F0C4
:100D4000211001C0482E312CD12CC218D308D694C2
:100D5000DC2CCC24D794C79430E0912C821A930ACF
:100D60009694982C882497948794841902301105BE
:100D700051F4482F552747FD5095052F001F002798
:100D8000001F10E006C00330110519F487FF08C0EA
:100D900002C0012B29F4F0E88F9FC001112408C084
:100DA000819540E8849FC001112491958195910916
:100DB000E114F10419F01E2D4F2D02C011E040E0A6
:100DC000612F742F0E941E225B01C601612F742FB8
:100DD0000E941E226B01C401612F742F0E941E22EB
:100DE0003B01AA0CBB1CCC0CDD1C660C771C512CE7
:100DF000542C4424322C2224322F22270E811F818E
:100E0000812C912C59823A823B83B801CE01019604
:100E10002C833D830E94AE174A0C5B1C2C0C3D1C9E
:100E20002C813D81260D371D8FEF881A980A0D5FA2
:100E30001F4FE814F90430F727960FB6F894DEBF79
:100E40000FBECDBFDF91CF911F910F91FF90EF901B
:100E5000DF90CF90BF90AF909F908F907F906F90DA
:100E60005F904F903F902F900895CF92DF92EF9236
:100E7000FF920F931F93CF93DF9300D01F92CDB7B4
:100E8000DEB76C017B0102E010E09B01AC016CE37A
:100E900070E080E695E00E946E069601A7016CE383
:100EA00070E08EE696E00E946E06BE016F5F7F4F97
:100EB000C7010E94AE17AE014F5F5F4F6EE170E059
:100EC00084E196E00E946E1545E056E06EE170E028
:100ED00086E095E00E946E150F900F900F90DF91C5
:100EE000CF911F910F91FF90EF90DF90CF900895D9
:100EF000CF92DF92EF92FF920F931F93CF93DF93E6
:100F000000D01F92CDB7DEB76B017A01882329F09C
:100F1000BA01C6010E94350733C002E010E09A0111
:100F2000AB016CE370E084E493E00E946E069601EE
:100F3000A7016CE370E082E594E00E946E06BE01BA
:100F40006F5F7F4FC7010E94AE17AE014F5F5F4FCB
:100F50006EE170E088EF93E00E946E158091E903E6
:100F600089838091EA038A838091EB038B83AE01AE
:100F70004F5F5F4F6EE170E08AEE92E00E946E1567
:100F80000F900F900F90DF91CF911F910F91FF90D5
:100F9000EF90DF90CF900895FC018CE491E0918375
:100FA0008083138212828FEF868387838087818775
:100FB0008287838781E0848716861586158214824E
:100FC0008091310790913207892B21F4F0933207F9
:100FD000E0933107A0912F07B0913007109721F0CF
:100FE0001596FC93EE931497F0933007E0932F0738
:100FF0008CE591E09183808308951F93CF93DF93D5
:1010000000D000D000D0CDB7DEB78091BF028111F3
:1010100011C086E992E00E94CC071092A6021092BD
:10102000A5028EE691E0909397028093960281E06C
:101030008093BF0220E030E046E950E060E675E0D2
:1010400086E992E00E945C17FC018FEF868380EBBB
:10105000878380EF80878091B702811111C085E876
:1010600092E00E94CC07109295021092940280E8C0
:1010700091E0909386028093850281E08093B7028D
:1010800020E030E04EE150E066E075E085E892E077
:101090000E945C17FC018FEF868380EB878380EFD3
:1010A00080878091AF02811111C084E792E00E9495
:1010B000CC07109284021092830282E991E090930F
:1010C00075028093740281E08093AF0220E030E0EB
:1010D00046E950E064E473E084E792E00E945C1724
:1010E000FC018FEF868380EB878380EF8087809180
:1010F000A702811111C083E692E00E94CC071092F2
:1011000073021092720284EA91E0909364028093D9
:10111000630281E08093A70220E030E04EE150E0DE
:101120006AEE72E083E692E00E945C17FC011FEF1A
:10113000168380EB878380EF808780E2809333077C
:1011400040E052EC61E070E089E497E00E943E1AD2
:1011500088E7898388EC8A831B831C828D831E83A6
:10116000BE016F5F7F4FCE0104960E943507269621
:101170000FB6F894DEBF0FBECDBFDF91CF911F91A8
:101180000895CF93DF93EC010E94A818288139813C
:10119000621B730B6A307105B8F3DF91CF9108952C
:1011A0009F92AF92BF92CF92DF92EF92FF920F93F6
:1011B0001F93CF93DF93EC01E881F98191B39061A4
:1011C00081B38F7E81BB5A852F81D52ED21ADF82C3
:1011D000AF84AA81BB812D853C854E852F5F3F5F03
:1011E0004F5FEE80F8849984CB851181C12C0C2D42
:1011F0006C2D7C2D71811127889471117D0D08F45F
:101200007FEFD194889420FD170F1795889421FDC6
:10121000170F1795889422FD170F1795889423FDB3
:10122000170F1795889424FD170F1795889425FD9F
:10123000170F1795889426FD170F1795889427FD8B
:10124000170F17958894072F2111012FD50E102FF6
:10125000002C91BB00C017FF81BB708100278894D0
:1012600000C000C0002C81BB71117E0D00C0002C9D
:1012700091BB00C016FF81BB08F47FEFE194889416
:1012800000C000C0002C81BB30FD070F00C0002C47
:1012900091BB00C015FF81BB0795889431FD070FF6
:1012A00000C000C0002C81BB0795889400C0002CB2
:1012B00091BB00C014FF81BB32FD070F07958894D6
:1012C00000C000C0002C81BB33FD070F00C0002C04
:1012D00091BB00C013FF81BB0795889434FD070FB5
:1012E00000C000C0002C81BB0795889400C0002C72
:1012F00091BB00C012FF81BB35FD070F0795889495
:1013000000C000C0002C81BB36FD070F00C0002CC0
:1013100091BB00C011FF81BB0795889437FD070F73
:1013200000C000C0002C81BB0795889400C0002C31
:1013300091BB00C010FF81BB172F3111102FE90C9A
:1013400000C000C0002C81BB00C000C0002C91BBBD
:1013500000C017FF81BB72810027889400C000C0C5
:10136000002C81BB71117F0D00C0002C91BB00C00F
:1013700016FF81BB08F47FEFEA0DF11D00C000C02D
:10138000002C81BB40FD070F00C0002C91BB00C0AA
:1013900015FF81BB0795889441FD070F00C000C071
:1013A000002C81BB0795889400C0002C91BB00C025
:1013B00014FF81BB42FD070F0795889400C000C051
:1013C000002C81BB43FD070F00C0002C91BB00C067
:1013D00013FF81BB0795889444FD070F00C000C030
:1013E000002C81BB0795889400C0002C91BB00C0E5
:1013F00012FF81BB45FD070F0795889400C000C010
:10140000002C81BB46FD070F00C0002C91BB00C023
:1014100011FF81BB0795889447FD070F00C000C0EE
:10142000002C81BB0795889400C0002C91BB00C0A4
:1014300010FF81BB172F4111102FF19400C000C085
:10144000002C81BBFC0E00C000C091BB00C017FF88
:1014500081BB71810027889400C000C0002C81BB33
:1014600071117D0D00C0002C91BB00C016FF81BB27
:1014700008F47FEFD194889400C000C0002C81BB99
:1014800020FD070F00C0002C91BB00C015FF81BBE1
:101490000795889421FD070F00C000C0002C81BB78
:1014A0000795889400C0002C91BB00C014FF81BB3D
:1014B00022FD070F0795889400C000C0002C81BB57
:1014C00023FD070F00C0002C91BB00C013FF81BBA0
:1014D0000795889424FD070F00C000C0002C81BB35
:1014E0000795889400C0002C91BB00C012FF81BBFF
:1014F00025FD070F0795889400C000C0002C81BB14
:1015000026FD070F00C0002C91BB00C011FF81BB5E
:101510000795889427FD070F00C000C0002C81BBF1
:101520000795889400C0002C91BB00C010FF81BBC0
:10153000172F2111102FD50E00C000C0002C81BB29
:10154000119709F086CEDF91CF911F910F91FF90F7
:10155000EF90DF90CF90BF90AF909F9008950F9342
:101560001F93CF93DF93EC018B010F960E94C1086C
:10157000F894C8010E94D008F8014281538120EEFE
:1015800031E0DA010E948822F4E0969587957795FC
:101590006795FA95D1F720E030E0EAE94E9F212DDA
:1015A0005E9F200D311D1124620F731F811D911D3F
:1015B000693EF3E07F0781059105A8F1DC01CB01CD
:1015C000885E9340A109B10972E0B695A7959795F9
:1015D00087957A95D1F740E050E027E0829F412D32
:1015E000929F400D511D11242091240730E0280FB7
:1015F000391F240F351F8091410790914207A09118
:101600004307B0914407432F5527840F951FA11D11
:10161000B11D8093410790934207A0934307B09375
:1016200044072093240778940E94A818788B6F872A
:10163000DF91CF911F910F9108959F92AF92BF922A
:10164000CF92DF92EF92FF920F931F93CF93DF938E
:10165000EC01E881F98191B3906281B38F7D81BB08
:101660005A852F81D52ED21ADF82AF84AA81BB8101
:101670002D853C854E852F5F3F5F4F5FEE80F88460
:101680009984CB851181C12C0C2D6C2D7C2D718101
:101690001127889471117D0D08F47FEFD1948894FF
:1016A00020FD170F1795889421FD170F1795889423
:1016B00022FD170F1795889423FD170F179588940F
:1016C00024FD170F1795889425FD170F17958894FB
:1016D00026FD170F1795889427FD170F17958894E7
:1016E000072F2111012FD50E102F002C91BB00C008
:1016F00017FF81BB70810027889400C000C0002CB8
:1017000081BB71117E0D00C0002C91BB00C016FF83
:1017100081BB08F47FEFE194889400C000C0002CE6
:1017200081BB30FD070F00C0002C91BB00C015FF2E
:1017300081BB0795889431FD070F00C000C0002CC5
:1017400081BB0795889400C0002C91BB00C014FF9A
:1017500081BB32FD070F0795889400C000C0002CA4
:1017600081BB33FD070F00C0002C91BB00C013FFED
:1017700081BB0795889434FD070F00C000C0002C82
:1017800081BB0795889400C0002C91BB00C012FF5C
:1017900081BB35FD070F0795889400C000C0002C61
:1017A00081BB36FD070F00C0002C91BB00C011FFAC
:1017B00081BB0795889437FD070F00C000C0002C3F
:1017C00081BB0795889400C0002C91BB00C010FF1E
:1017D00081BB172F3111102FE90C00C000C0002C65
:1017E00081BB00C000C0002C91BB00C017FF81BBB3
:1017F00072810027889400C000C0002C81BB711149
:101800007F0D00C0002C91BB00C016FF81BB08F407
:101810007FEFEA0DF11D00C000C0002C81BB40FD30
:10182000070F00C0002C91BB00C015FF81BB0795BE
:10183000889441FD070F00C000C0002C81BB0795B4
:10184000889400C0002C91BB00C014FF81BB42FDF6
:10185000070F0795889400C000C0002C81BB43FD92
:10186000070F00C0002C91BB00C013FF81BB079580
:10187000889444FD070F00C000C0002C81BB079571
:10188000889400C0002C91BB00C012FF81BB45FDB5
:10189000070F0795889400C000C0002C81BB46FD4F
:1018A000070F00C0002C91BB00C011FF81BB079542
:1018B000889447FD070F00C000C0002C81BB07952E
:1018C000889400C0002C91BB00C010FF81BB172F73
:1018D0004111102FF19400C000C0002C81BBFC0E00
:1018E00000C000C091BB00C017FF81BB7181002701
:1018F000889400C000C0002C81BB71117D0D00C018
:10190000002C91BB00C016FF81BB08F47FEFD1947F
:10191000889400C000C0002C81BB20FD070F00C0D0
:10192000002C91BB00C015FF81BB0795889421FD59
:10193000070F00C000C0002C81BB0795889400C031
:10194000002C91BB00C014FF81BB22FD070F07953F
:10195000889400C000C0002C81BB23FD070F00C08D
:10196000002C91BB00C013FF81BB0795889424FD18
:10197000070F00C000C0002C81BB0795889400C0F1
:10198000002C91BB00C012FF81BB25FD070F0795FE
:10199000889400C000C0002C81BB26FD070F00C04A
:1019A000002C91BB00C011FF81BB0795889427FDD7
:1019B000070F00C000C0002C81BB0795889400C0B1
:1019C000002C91BB00C010FF81BB172F2111102FDD
:1019D000D50E00C000C0002C81BB119709F086CE47
:1019E000DF91CF911F910F91FF90EF90DF90CF90FB
:1019F000BF90AF909F9008950F931F93CF93DF9365
:101A0000EC018B010F960E94C108F894C8010E9456
:101A10001D0BF8014281538120EE31E0DA010E9472
:101A2000882224E096958795779567952A95D1F732
:101A300020E030E0EAE94E9F212D5E9F200D311D10
:101A40001124620F731F811D911D693EF3E07F0712
:101A500081059105A8F1DC01CB01885E9340A109C5
:101A6000B10912E0B695A795979587951A95D1F784
:101A700040E050E027E0829F412D929F400D511D94
:101A800011242091240730E0280F391F240F351F1F
:101A90008091410790914207A0914307B09144077C
:101AA000432F5527840F951FA11DB11D809341071A
:101AB00090934207A0934307B093440720932407D1
:101AC00078940E94A818788B6F87DF91CF911F912F
:101AD0000F9108959F92AF92BF92CF92DF92EF92B3
:101AE000FF920F931F93CF93DF93EC01E881F9816D
:101AF00091B3906481B38F7B81BB5A852F81D52EA2
:101B0000D21ADF82AF84AA81BB812D853C854E85A8
:101B10002F5F3F5F4F5FEE80F8849984CB85118102
:101B2000C12C0C2D6C2D7C2D718111278894711185
:101B30007D0D08F47FEFD194889420FD170F179541
:101B4000889421FD170F1795889422FD170F17957C
:101B5000889423FD170F1795889424FD170F179568
:101B6000889425FD170F1795889426FD170F179554
:101B7000889427FD170F17958894072F2111012F9F
:101B8000D50E102F002C91BB00C017FF81BB7081B8
:101B90000027889400C000C0002C81BB71117E0D0D
:101BA00000C0002C91BB00C016FF81BB08F47FEF82
:101BB000E194889400C000C0002C81BB30FD070F69
:101BC00000C0002C91BB00C015FF81BB0795889415
:101BD00031FD070F00C000C0002C81BB0795889421
:101BE00000C0002C91BB00C014FF81BB32FD070F69
:101BF0000795889400C000C0002C81BB33FD070FFF
:101C000000C0002C91BB00C013FF81BB07958894D6
:101C100034FD070F00C000C0002C81BB07958894DD
:101C200000C0002C91BB00C012FF81BB35FD070F27
:101C30000795889400C000C0002C81BB36FD070FBB
:101C400000C0002C91BB00C011FF81BB0795889498
:101C500037FD070F00C000C0002C81BB079588949A
:101C600000C0002C91BB00C010FF81BB172F3111A9
:101C7000102FE90C00C000C0002C81BB00C000C0C8
:101C8000002C91BB00C017FF81BB72810027889494
:101C900000C000C0002C81BB71117F0D00C0002C62
:101CA00091BB00C016FF81BB08F47FEFEA0DF11D68
:101CB00000C000C0002C81BB40FD070F00C0002CFD
:101CC00091BB00C015FF81BB0795889441FD070FAC
:101CD00000C000C0002C81BB0795889400C0002C78
:101CE00091BB00C014FF81BB42FD070F079588948C
:101CF00000C000C0002C81BB43FD070F00C0002CBA
:101D000091BB00C013FF81BB0795889444FD070F6A
:101D100000C000C0002C81BB0795889400C0002C37
:101D200091BB00C012FF81BB45FD070F079588944A
:101D300000C000C0002C81BB46FD070F00C0002C76
:101D400091BB00C011FF81BB0795889447FD070F29
:101D500000C000C0002C81BB0795889400C0002CF7
:101D600091BB00C010FF81BB172F4111102FF194C0
:101D700000C000C0002C81BBFC0E00C000C091BBA5
:101D800000C017FF81BB71810027889400C000C08C
:101D9000002C81BB71117D0D00C0002C91BB00C0D7
:101DA00016FF81BB08F47FEFD194889400C000C077
:101DB000002C81BB20FD070F00C0002C91BB00C090
:101DC00015FF81BB0795889421FD070F00C000C057
:101DD000002C81BB0795889400C0002C91BB00C0EB
:101DE00014FF81BB22FD070F0795889400C000C037
:101DF000002C81BB23FD070F00C0002C91BB00C04D
:101E000013FF81BB0795889424FD070F00C000C015
:101E1000002C81BB0795889400C0002C91BB00C0AA
:101E200012FF81BB25FD070F0795889400C000C0F5
:101E3000002C81BB26FD070F00C0002C91BB00C009
:101E400011FF81BB0795889427FD070F00C000C0D4
:101E5000002C81BB0795889400C0002C91BB00C06A
:101E600010FF81BB172F2111102FD50E00C000C00D
:101E7000002C81BB119709F086CEDF91CF911F9185
:101E80000F91FF90EF90DF90CF90BF90AF909F9019
:101E900008950F931F93CF93DF93EC018B010F965F
:101EA0000E94C108F894C8010E946A0DF80142819D
:101EB000538120EE31E0DA010E948822E4E0969519
:101EC000879577956795EA95D1F720E030E0EAE9C4
:101ED0004E9F212D5E9F200D311D1124620F731F17
:101EE000811D911D693EF3E07F0781059105A8F1F1
:101EF000DC01CB01885E9340A109B10932E0B695BF
:101F0000A795979587953A95D1F740E050E027E05F
:101F1000829F412D929F400D511D11242091240735
:101F200030E0280F391F240F351F80914107909111
:101F30004207A0914307B0914407432F5527840FD0
:101F4000951FA11DB11D8093410790934207A09357
:101F50004307B09344072093240778940E94A8185D
:101F6000788B6F87DF91CF911F910F9108959F928A
:101F7000AF92BF92CF92DF92EF92FF920F931F9397
:101F8000CF93DF93EC01E881F98191B3906881B33D
:101F90008F7781BB5A852F81D52ED21ADF82AF84ED
:101FA000AA81BB812D853C854E852F5F3F5F4F5FAA
:101FB000EE80F8849984CB851181C12C0C2D6C2D79
:101FC0007C2D71811127889471117D0D08F47FEFAC
:101FD000D194889420FD170F1795889421FD170F31
:101FE0001795889422FD170F1795889423FD170FD6
:101FF0001795889424FD170F1795889425FD170FC2
:102000001795889426FD170F1795889427FD170FAD
:1020100017958894072F2111012FD50E102F002C12
:1020200091BB00C017FF81BB70810027889400C05E
:1020300000C0002C81BB71117E0D00C0002C91BB33
:1020400000C016FF81BB08F47FEFE194889400C0C4
:1020500000C0002C81BB30FD070F00C0002C91BBDD
:1020600000C015FF81BB0795889431FD070F00C0A4
:1020700000C0002C81BB0795889400C0002C91BB48
:1020800000C014FF81BB32FD070F0795889400C084
:1020900000C0002C81BB33FD070F00C0002C91BB9A
:1020A00000C013FF81BB0795889434FD070F00C063
:1020B00000C0002C81BB0795889400C0002C91BB08
:1020C00000C012FF81BB35FD070F0795889400C043
:1020D00000C0002C81BB36FD070F00C0002C91BB57
:1020E00000C011FF81BB0795889437FD070F00C022
:1020F00000C0002C81BB0795889400C0002C91BBC8
:1021000000C010FF81BB172F3111102FE90C00C048
:1021100000C0002C81BB00C000C0002C91BB00C0DF
:1021200017FF81BB72810027889400C000C0002C7B
:1021300081BB71117F0D00C0002C91BB00C016FF48
:1021400081BB08F47FEFEA0DF11D00C000C0002C38
:1021500081BB40FD070F00C0002C91BB00C015FFE4
:1021600081BB0795889441FD070F00C000C0002C7B
:1021700081BB0795889400C0002C91BB00C014FF60
:1021800081BB42FD070F0795889400C000C0002C5A
:1021900081BB43FD070F00C0002C91BB00C013FFA3
:1021A00081BB0795889444FD070F00C000C0002C38
:1021B00081BB0795889400C0002C91BB00C012FF22
:1021C00081BB45FD070F0795889400C000C0002C17
:1021D00081BB46FD070F00C0002C91BB00C011FF62
:1021E00081BB0795889447FD070F00C000C0002CF5
:1021F00081BB0795889400C0002C91BB00C010FFE4
:1022000081BB172F4111102FF19400C000C0002C8A
:1022100081BBFC0E00C000C091BB00C017FF81BB9A
:1022200071810027889400C000C0002C81BB71110F
:102230007D0D00C0002C91BB00C016FF81BB08F4CF
:102240007FEFD194889400C000C0002C81BB20FD9A
:10225000070F00C0002C91BB00C015FF81BB079584
:10226000889421FD070F00C000C0002C81BB07959A
:10227000889400C0002C91BB00C014FF81BB22FDDC
:10228000070F0795889400C000C0002C81BB23FD78
:10229000070F00C0002C91BB00C013FF81BB079546
:1022A000889424FD070F00C000C0002C81BB079557
:1022B000889400C0002C91BB00C012FF81BB25FD9B
:1022C000070F0795889400C000C0002C81BB26FD35
:1022D000070F00C0002C91BB00C011FF81BB079508
:1022E000889427FD070F00C000C0002C81BB079514
:1022F000889400C0002C91BB00C010FF81BB172F39
:102300002111102FD50E00C000C0002C81BB1197E9
:1023100009F086CEDF91CF911F910F91FF90EF9042
:10232000DF90CF90BF90AF909F9008950F931F9331
:10233000CF93DF93EC018B010F960E94C108F894B4
:10234000C8010E94B70FF8014281538120EE31E0AD
:10235000DA010E94882204E0969587957795679523
:102360000A95D1F720E030E0EAE94E9F212D5E9FEB
:10237000200D311D1124620F731F811D911D693EB7
:10238000F3E07F0781059105A8F1DC01CB01885EB0
:102390009340A109B109F2E0B695A7959795879565
:1023A000FA95D1F740E050E027E0829F412D929FBF
:1023B000400D511D11242091240730E0280F391FB2
:1023C000240F351F8091410790914207A091430748
:1023D000B0914407432F5527840F951FA11DB11DB0
:1023E0008093410790934207A0934307B09344071B
:1023F0002093240778940E94A818788B6F87DF9128
:10240000CF911F910F910895FC01118A108A0895B0
:10241000FF920F931F93CF93DF93EC018091D40130
:102420008F5F982F97709093D40180FD02C080E059
:1024300001C080E891FD8064947009F0806290E1B1
:10244000F92EF80E20E030E000E011E0FE01E20F8E
:10245000F31F6485662331F070E0C8010E941E22DC
:102460006F5F01C060E061874F2D469F040E40E022
:10247000411D1124411102C0168202C04150468301
:10248000662311F0615061872F5F3F4F2330310584
:10249000E9F6DF91CF911F910F91FF900895EF9290
:1024A000FF920F931F93CF93DF93CDB7DEB7629761
:1024B0000FB6F894DEBF0FBECDBF8C017A01F901D3
:1024C000DC011C968C917A8369835C834B835E83E9
:1024D0004D8390819D8791819E8792819F878130D6
:1024E00029F4CE0101960E94081206C01C861B86A4
:1024F0001A86198618861F82188AB701CE0101969E
:102500000E940412D801ED91FC910484F585E02D20
:10251000BE016F5F7F4FC801099562960FB6F894B0
:10252000DEBF0FBECDBFDF91CF911F910F91FF9006
:10253000EF900895EF92FF920F931F93CF93DF9345
:10254000CDB7DEB762970FB6F894DEBF0FBECDBF32
:102550008C017A01F901DC011C968C917A836983E4
:102560005C834B835E834D8390819D8791819E87A1
:1025700092819F87813029F4CE0101960E94081232
:1025800006C01C861B861A86198618861F8283E061
:10259000888BB701CE0101960E940412D801ED91FB
:1025A000FC910484F585E02DBE016F5F7F4FC8016B
:1025B000099562960FB6F894DEBF0FBECDBFDF91CE
:1025C000CF911F910F91FF90EF900895CF92DF92DE
:1025D000EF92FF920F931F93CF93DF9300D000D021
:1025E00000D0CDB7DEB78091DF02811119C00E9403
:1025F0009C1860935B0270935C0280935D029093E1
:102600005E0284E190E0A0E0B0E080935F029093EE
:102610006002A0936102B093620281E08093DF02C6
:102620000E949C18C0905B02D0905C02E0905D021A
:10263000F0905E026C197D098E099F09C0905F02BF
:10264000D0906002E0906102F09062026C157D050E
:102650008E059F0578F00E949C1860935B02709332
:102660005C0280935D0290935E02809122078F5FEF
:10267000809322078091D702811115C00E949C1877
:1026800020E63AEE40E050E00E94322230935802B9
:10269000209357028AE090E090935A028093590267
:1026A00081E08093D7020E949C18F0E6CF2EFAEECC
:1026B000DF2EE12CF12CA70196010E94322280919D
:1026C000570290915802281B390B80915902909122
:1026D0005A022817390778F00E949C18A701960122
:1026E0000E943222309358022093570285E00E94C4
:1026F000E300809323078091230790E088309105C1
:1027000008F089C1FC01EA5AFF4F0C9473228091B2
:10271000220792E3980F9983E8ECFE2EFA821FEFCE
:102720001B838C8302E30D831E83BE016F5F7F4F8B
:10273000CE0104960E9435078091220792E3980FFC
:102740009983FA821B838C830D831E831BC181E0D6
:102750000E948E0580E00E948E055FC14AE066E916
:1027600070E080E695E00E94AB154AE06EE170E013
:1027700086E095E00E94AB151091220780E40E944C
:10278000E300810F8C8308EC0D831FEF1E83BE01D5
:102790006F5F7F4FCE0104960E94AE1786E990E0EE
:1027A0000E94F0009C01220F331F280F391FBE0129
:1027B0006F5F7F4FC901805A9A4F0E943C02F09090
:1027C000220780E40E94E3008F0D8C830D831E831B
:1027D000BE016F5F7F4FCE0104960E94AE178EE15F
:1027E00090E00E94F0009C01220F331F280F391F38
:1027F000BE016F5F7F4FC9018A5F9A4F0E943C0202
:102800004AE066E970E084E493E00E94AB154AE098
:102810006EE170E08AEE92E00E94AB15F090220724
:1028200080E40E94E3008F0D8C830D831E83BE0124
:102830006F5F7F4FCE0104960E94AE1786E990E04D
:102840000E94F0009C01220F331F280F391FBE0188
:102850006F5F7F4FC9018C5B9C4F0E943C02F090E0
:10286000220780E40E94E3008F0D8C830D831E837A
:10287000BE016F5F7F4FCE0104960E94AE178EE1BE
:1028800090E00E94F0009C01220F331F280F391F97
:10289000BE016F5F7F4FC90186519D4F0E943C0270
:1028A000BCC0809122078C831D821FEF1E83BE0156
:1028B0006F5F7F4FCE0104960E94AE17AE014F5F4F
:1028C0005F4F66E970E080E695E00E946E158091AA
:1028D000220789831A831B83CE0101960E94690116
:1028E000809122078C831D821E83BE016F5F7F4F04
:1028F000CE0104960E94AE17AE014F5F5F4F6CE3AE
:1029000070E084E493E00E946E1580912207805865
:1029100089831A831B83BE016F5F7F4F80E00E9413
:10292000E2047BC00E94E00278C08091220780937D
:10293000E8029CE9980F9093E90224E6280F20937F
:10294000E702998318EC1A830FEF0B830E940701AB
:102950009091E8029C831D838E83BE016F5F7F4F41
:10296000CE0104960E9435078091E70289831A837D
:102970000B83809122070E9407019091E8029C83BB
:102980001D838E83AE014F5F5F4FBE016C5F7F4F33
:1029900080E00E94780741C00E9494028091CF029B
:1029A000811115C00E949C1828EE33E040E050E0F1
:1029B0000E94322230935402209353028AE090E026
:1029C000909356028093550281E08093CF0283E575
:1029D00092E01EC080E00E947A058091C7028111BA
:1029E00015C00E949C1828EE33E040E050E00E94A1
:1029F00032223093500220934F028AE090E090936D
:102A000052028093510281E08093C7028FE492E0EA
:102A10000E940B0281111092230789E497E00E9423
:102A200087191816190644F589E497E00E9497194A
:102A30008133E9F08233E9F08033F1F480912307A8
:102A40008F5F863018F48093230702C0109223070B
:102A500069E171E089E497E00E948B1A4AE050E056
:102A60006091230789E497E00E94ED1A05C086E093
:102A700001C087E0809323076091330783E397E0E9
:102A80000E9450164AE050E060E070E083E397E077
:102A90000E94E21626960FB6F894DEBF0FBECDBF99
:102AA000DF91CF911F910F91FF90EF90DF90CF902A
:102AB0000895FC012081269F020E20E0211D208325
:102AC0002181269F020E20E0211D21832281269F45
:102AD000020E20E0211D228311240895FA0120E036
:102AE00030E00396261737076CF44081DC0113971A
:102AF0004C93418111964C93428111964C932F5FD8
:102B00003F4FEFCF0895CF92DF92EF92FF920F9356
:102B10001F93CF93DF931F92CDB7DEB77B018C015C
:102B2000C12CD12CCE14DF0461F0642FC80149837D
:102B30000E9459158FEFC81AD80A0D5F1F4F49819F
:102B4000F1CF0F90DF91CF911F910F91FF90EF90F8
:102B5000DF90CF90089540950C9483158F929F92AB
:102B6000AF92BF92EF92FF920F931F93CF93DF9399
:102B7000EC01188219821A824423B9F1E0E0F0E0F6
:102B80008B010A5F1F4F7B0189E0E80EF11C842E48
:102B9000912CA12CB12CD801AE0FBF1F2C91D701C5
:102BA000AE0FBF1F6C912223E1F06623D1F030E01D
:102BB00040E050E02F5F3F4F4F4F5F4F70E080E0AD
:102BC00090E06F5F7F4F8F4F9F4F0E94FA219B01D4
:102BD000AC01C501B4010E94FA21DE01AE0FBF1F96
:102BE0008C933196E330F105B1F6CE01DF91CF91B0
:102BF0001F910F91FF90EF90BF90AF909F908F909B
:102C00000895CF92DF92EF92FF92CF93DF93EC0182
:102C10008091290790912A079C012F5F3F4F3093A5
:102C20002A0720932907861797079CF10E949C1872
:102C30009B01AC01E0912907F0912A0788EE93E00F
:102C4000E89FB001E99F700DF89F700D112488274F
:102C500077FD8095982FC0902507D0902607E090AB
:102C60002707F09028072C193D094E095F090E949B
:102C700032223A83298310922A07109229070E9450
:102C80009C186093250770932607809327079093DD
:102C90002807DF91CF91FF90EF90DF90CF900895BC
:102CA0008F929F92AF92BF92EF92FF920F931F93DA
:102CB000CF93DF9300D01F92CDB7DEB78C01F62EF5
:102CC000F80183819481A581B681892B8A2B8B2B76
:102CD000D1F00E94A81880902B0790902C07A0900C
:102CE0002D07B0902E07681979098A099B09D80128
:102CF00013968D909D90AD90BC90169768157905B0
:102D00008A059B05E8F20E94A81860932B07709330
:102D10002C0780932D0790932E07D8011B96ED91D9
:102D2000FC911C97309751F0D80117964D915D9109
:102D30006D917C911A978F2D0995F82EA0903107EF
:102D4000B0903207A114B10451F1F501E484D80127
:102D500011968D919C9112978436910508F41486F2
:102D6000D501ED91FC91828093804F2DB501CE016C
:102D700001960E94AE15F5014585568562817381E5
:102D80009E012F5F3F4FC501F4010995D5011C96A7
:102D9000EC921C971496AD90BC901597D3CF69E137
:102DA00070E0C8010E9401160F900F900F90DF9104
:102DB000CF911F910F91FF90EF90BF90AF909F9098
:102DC0008F9008958F929F92AF92BF92CF92DF9291
:102DD000EF92FF92CF93DF93EC016A017B010E9497
:102DE0009C184B015C0161E070E080E090E00E9483
:102DF000CB186881CE010E9450160E9451180E9483
:102E00009C18681979098A099B096C157D058E053E
:102E10009F0548F3DF91CF91FF90EF90DF90CF9027
:102E2000BF90AF909F908F900895CF92DF92EF92D6
:102E3000FF920F931F93CF93DF93EC014423F1F0A4
:102E40006115710581F19B0140E050E060E472E49E
:102E50008FE090E00E945422CB80DC80ED80FE80E9
:102E600089019A010C151D052E053F0510F49701E7
:102E700086010B831C832D833E8315C0611571056C
:102E800071F09B0140E050E060E472E48FE090E07C
:102E90000E9454222B833C834D835E8304C01B829B
:102EA0001C821D821E82DF91CF911F910F91FF9096
:102EB000EF90DF90CF900895CF92DF92EF92FF9244
:102EC0000F931F93CF93DF93EC016B018A0179017C
:102ED000121613061CF07A0100E010E0E881F98177
:102EE0000480F581E02DCE010995C801880F991F56
:102EF000800F911F8C0D9D1D9B838A83FE86ED861E
:102F0000E881F9810284F385E02DCE01099541E045
:102F1000BC0183E397E00E941517CE01DF91CF91AA
:102F20001F910F91FF90EF90DF90CF9008958FEF5A
:102F300080933307109235071092340710923F07A1
:102F400010923E078FEF9FEFDC0180933A0790933A
:102F50003B07A0933C07B0933D070895FC01DB01BC
:102F6000408161817281242F2F71220F220F220F45
:102F7000522F35E5539F050E50E0511D1124352F7A
:102F8000942F9074842F807247FD1FC091110AC046
:102F9000811103C03095452F11C045E5450F20E054
:102FA0003BEA2FC081110CC03AEA239F020E20E0B9
:102FB000211D11243BEA321B4AEA450F20E021C0C3
:102FC00080E0452F4095252F0DC0911110C0811133
:102FD0000BC03AEA239F020E20E0211D11244BEA88
:102FE000421B2B5A30E00DC0252F209509C08111BE
:102FF00003C03B5A2BEA03C0365580E025E5251B6C
:1030000040E06F3F09F423C06623F1F0332321F041
:10301000369F030E30E0311D442321F0469F040EFD
:1030200040E0411D222321F0269F020E20E0211DB9
:103030001124562F5095559F050E50E0511D112417
:10304000350F450F250F03C02FEF4FEF3FEF7F3FA9
:1030500009F420C050E0772321F0779F512D09F02B
:103060005F5F5523A1F0332321F0359F030E30E03D
:10307000311D442321F0459F040E40E0411D2223D1
:1030800021F0259F020E20E0211D112403C020E025
:1030900040E030E03C9311964C93119712962C939C
:1030A000089508951F920F920FB60F9211242F9337
:1030B0003F938F939F93AF93BF93809141079091DC
:1030C0004207A0914307B09144073091400723E0A5
:1030D000230F2D3720F40196A11DB11D05C026E850
:1030E000230F0296A11DB11D209340078093410735
:1030F00090934207A0934307B093440780914507FC
:1031000090914607A0914707B09148070196A11DED
:10311000B11D8093450790934607A0934707B0934E
:103120004807BF91AF919F918F913F912F910F9041
:103130000FBE0F901F9018952FB7F894609141071C
:103140007091420780914307909144072FBF0895E3
:103150003FB7F8948091450790914607A0914707A3
:10316000B091480726B5A89B05C02F3F19F00196DE
:10317000A11DB11D3FBF6627782F892F9A2F620F9F
:10318000711D811D911D42E0660F771F881F991FD9
:103190004A95D1F708958F929F92AF92BF92CF92A6
:1031A000DF92EF92FF926B017C010E94A8184B0105
:1031B0005C01C114D104E104F104F1F00E94511842
:1031C0000E94A818681979098A099B09683E73400A
:1031D0008105910570F321E0C21AD108E108F108D8
:1031E00088EE880E83E0981EA11CB11CC114D10486
:1031F000E104F10429F7DDCFFF90EF90DF90CF904D
:10320000BF90AF909F908F900895789484B582601E
:1032100084BD84B5816084BD85B5826085BD85B57A
:10322000816085BDEEE6F0E0808181608083E1E829
:10323000F0E0108280818260808380818160808361
:10324000E0E8F0E0808181608083E1E9F0E0808166
:1032500082608083808181608083E0E9F0E080810A
:1032600081608083E1ECF0E08081846080838081F4
:1032700082608083808181608083E3ECF0E08081E4
:1032800081608083E0ECF0E0808182608083E2EC0A
:10329000F0E0808181608083EAE7F0E080818460F3
:1032A000808380818260808380818160808380814F
:1032B0008068808308950E949A22CF93DF931F92A3
:1032C000CDB7DEB76983DC01ED91FC910280F3811B
:1032D000E02D41E050E0BE016F5F7F4F09950F90F8
:1032E000DF91CF910895CF93DF93EC018C859D857D
:1032F00097FF05C082E00E94151C9D878C878C85F6
:103300009D85DF91CF91089583E00C94A91EFC0167
:103310008485958597FD06C082E00E94BD1B90E0E4
:103320000196089582E00E94BD1B90E00895FC0183
:103330008485958597FD05C02FEF3FEF358724875E
:10334000089582E00C94151CCF93DF93EC018091DB
:103350001101882331F083E00E94461C18161906DB
:1033600034F081E090E09B838A8380E090E0DF91FD
:10337000CF910895FC0120812E5F208342E450E02C
:103380006CEB70E080E80C94E11CFC0121818081F1
:10339000813A59F4213209F05CC047E050E06AE01C
:1033A00071E080E00E94E11C67C0813209F051C0E9
:1033B000233289F4838190E0982F88273281832BF0
:1033C000A0E0B0E08093060190930701A09308016C
:1033D000B09309010FC0203239F467E070E08AE051
:1033E00091E00E94121D0AC0223221F48281809352
:1033F000110104C02D7F203209F03EC080910A01E6
:1034000090910B01A0910C01B0910D01803B944073
:10341000A105B10501F58091110180FD1CC08091CD
:103420000008909101089093FF0A8093FE0A87E7B5
:1034300097E790930108809300082BE088E190E0E3
:103440000FB6F894A895809360000FBE209360009B
:1034500013C080E0089588E10FB6F894809360006F
:10346000109260000FBEA8958091FE0A9091FF0A0D
:10347000909301088093000881E008952FEF3FEFBB
:10348000FC0135872487089510924C0710924B0752
:1034900088EE93E0A0E0B0E080934D0790934E0754
:1034A000A0934F07B093500786EB91E090934A07A3
:1034B000809349078FEF9FEF9093560780935507AE
:1034C000089508950E9405190E94611A89E997E0FC
:1034D0000E94361F0E94FD07C0E0D0E00E94E61265
:1034E0002097E1F30E940000F9CF6115710581F08A
:1034F000DB010D900020E9F7AD0141505109461B59
:10350000570BDC01ED91FC910280F381E02D0994D1
:1035100080E090E008950C94751A62EC71E00C94D0
:10352000751A8F929F92AF92BF92DF92EF92FF92A5
:103530000F931F93CF93DF93CDB7DEB7A1970FB64D
:10354000F894DEBF0FBECDBF7C01F42FD52ECB018A
:1035500019A2223008F42AE08E010F5D1F4F822E3F
:10356000912CA12CB12C6F2F7D2DA50194010E94CF
:103570003222F22FD32ECA01015011096A3014F4FD
:10358000E0E301C0E7E3E60FD801EC93232B242B03
:10359000252B49F7B801C7010E94751AA1960FB6ED
:1035A000F894DEBF0FBECDBFDF91CF911F910F9179
:1035B000FF90EF90DF90BF90AF909F908F90089515
:1035C0002115310541F4DC01ED91FC910190F08170
:1035D000E02D642F09940C94911A0F931F93CF93AD
:1035E000DF93EC019A01462F50E060E070E00E940A
:1035F000E01A8C01CE010E948D1A800F911FDF917D
:10360000CF911F910F910895615030F02091F100FA
:10361000FC0120830196F8CF289884E68093A207C6
:10362000089540919D0750919E0720919B073091EE
:103630009C0742175307B4F49091E8009570E1F3AA
:103640009091E80092FD19C08093F10080919D0750
:1036500090919E0701968F739927892B19F48EEF0D
:103660008093E80080919D0790919E07019690932A
:103670009E0780939D0781E0089580E00895CF9292
:10368000DF92EF92FF920F931F93CF93DF931F92DE
:10369000CDB7DEB7082F162FF42E862F880F8E5F3A
:1036A00099830E94111B83E00E94111BE02EC02E03
:1036B0009981D92E8C2D8E19811798F4F601F7FE79
:1036C00002C0849101C080810E94111B082F80E0FC
:1036D0000E94111B8023FFEFCF1ADF0A8111EACF6E
:1036E00001C081E00F90DF91CF911F910F91FF906A
:1036F000EF90DF90CF9008958091D7008160809304
:10370000D70080EA8093D80089B5806189BD89B5EA
:10371000826089BD09B400FEFDCF61E070E080E009
:1037200090E00E94CB188091D8008F7C80618093BC
:10373000D8008091E000807F8093E0000895CF93CF
:10374000DF931F92CDB7DEB71982CE0101960E949A
:10375000BA190E94D01FBE016F5F7F4F0E94491FA0
:1037600089810F90DF91CF9108952FB7FC012083BD
:10377000F89467706093E9000895CF93DF931F92E8
:10378000CDB7DEB7682FCE0101960E94B51B8091A0
:10379000F20099819FBF0F90DF91CF910895FF9222
:1037A0000F931F93CF93DF9300D0CDB7DEB7F62EE4
:1037B0008A019091A107992311F057FF03C08FEF61
:1037C0009FEF2BC0682FCE0101967A830E94B51B14
:1037D0008091F20090E0A8017A81801791070CF4A3
:1037E000AC01EF2DF72FF40E84E6FE1639F0289881
:1037F0008093A2079091F1009193F7CF4115510565
:1038000021F08091F200882321F089818FBFCA01C5
:1038100004C08BE68093E800F8CF0F900F90DF9103
:10382000CF911F910F91FF900895CF93DF931F9237
:10383000CDB7DEB741E050E0BE016F5F7F4F0E9421
:10384000CF1B019719F4898190E002C08FEF9FEFA1
:103850000F90DF91CF910895CF93DF931F92CDB753
:10386000DEB7682FCE0101960E94B51B9091E8004B
:10387000892F807295FF04C09091F20080E4891B2B
:1038800099819FBF0F90DF91CF9108956F927F92A2
:103890008F929F92AF92BF92CF92DF92EF92FF9260
:1038A0000F931F93CF93DF931F92CDB7DEB7782E80
:1038B0007B01C42EB52E8091A107882369F0042FC7
:1038C000152F8AEFD82E872D8072982E9AE3A92E75
:1038D000872D8074882E11C08FEF9FEF57C0872DE2
:1038E0000E942C1C682E81110CC0DA94A9F361E0AF
:1038F00070E080E090E00E94CB180115110579F787
:103900003BC0282F30E0021713070CF4602E672D00
:10391000CE0101960E94B51B8091E80085FF29C069
:10392000262D30E0021B130B992039F06A948FEF9B
:103930006816B1F01092F100F9CFF701862D77FEED
:1039400007C0815058F094919093F1003196F9CFCF
:10395000815020F091919093F100FACFE20EF31E86
:103960008091E80085FF0FC00115110511F4811049
:103970000AC089818FBFC1CF5D9884E68093A30779
:103980008C2D9B2D03C0A092E800F3CF0F90DF9108
:10399000CF911F910F91FF90EF90DF90CF90BF904C
:1039A000AF909F908F907F906F9008951092E90054
:1039B00010929E0710929D0790939C0780939B07FF
:1039C0000895CF92DF92FF920F931F93CF93DF93CF
:1039D00000D0CDB7DEB7F82E8A016B0101151105B5
:1039E000B1F0F601F7FE02C0849101C080814983E5
:1039F0005A830E94111B01501109FFEFCF1ADF0AF1
:103A000049815A818111EACF8FEF9FEF01C0CA012E
:103A10000F900F90DF91CF911F910F91FF90DF904A
:103A2000CF900895BF92CF92DF92EF92FF920F93C3
:103A30001F93CF93DF936C018B01EB013BEFB32E10
:103A40002097C1F07E01C134D1051CF020E4E22EA4
:103A5000F12C8091E80082FFFCCFC8018C1B9D0BEC
:103A60006E2D8C0D9D1D0E94041BB092E800CE1996
:103A7000DF09E6CFC801DF91CF911F910F91FF9031
:103A8000EF90DF90CF90BF9008951F920F920FB6E6
:103A90000F921124DF92EF92FF920F931F932F93B7
:103AA0003F934F935F936F937F938F939F93AF93C6
:103AB000BF93EF93FF93CF93DF93CDB7DEB76C97B0
:103AC000DEBFCDBF1092E9008091E80083FF23C1E3
:103AD00068E0CE0145960E94041B82EF8093E800C7
:103AE0003D8937FF05C08091E80080FFFCCF03C00F
:103AF0008EEF8093E800832F807609F0F0C02E8946
:103B00004F89D88C21110CC0303829F48091A0073E
:103B10008093F10002C01092F1001092F100F4C005
:103B2000842F90E09D29213049F43111EDC0019797
:103B300009F0EAC08091A0078D7F0AC0233059F4B4
:103B40003111E2C0019709F0DFC08091A0078260C7
:103B50008093A007D9C0253041F48091E80080FF10
:103B6000FCCF40684093E300CFC0263009F08DC001
:103B7000EB8CFC8C22E0D2122CC080E090E00E9402
:103B8000D61C0E949F1B99E08E010F5F1F4FF8010A
:103B9000292F11922A95E9F79983DA8291E09E8381
:103BA00090EA98879AEF998720919D0730919E0718
:103BB000275F3F4F3C832B838D83C7010E94D61C18
:103BC00049E050E0B80180E00E94E11C0E949F1B88
:103BD0009BC0C7010E94D61C0E94D01FBE016B5E15
:103BE0007F4F0E94721F009719F00CF08DC090C09B
:103BF00081E0D8120EC08B8D9C8D089719F481E05E
:103C000080939A0780919A0781112FC060E171E03B
:103C100031C0E3E0DE127CC08F89882349F1823015
:103C200029F440E860E18EE291E01CC0813029F483
:103C300040E86BE082E291E015C0833009F068C093
:103C40000E94D01F8E010F5F1F4FB8010E94911F6D
:103C5000F80101900020E9F73197E01BF10B40E0FB
:103C60006E2FC8010E943F1B4DC06EEF70E002C076
:103C70006FE371E06115710509F44AC0FB014491DD
:103C800050E080E80E94E11C3FC0273009F440C0AA
:103C9000283021F481E08093F10036C02930A1F56D
:103CA0003370B1F5E3E1F1E081E021E036E39081AA
:103CB000992361F08093E9002093EB009191909318
:103CC000EC003093ED008F5F873089F78EE78093AB
:103CD000EA001092EA008F898093A10715C08B8DAE
:103CE0009C8D0E94D61C898D811105C0CE01459600
:103CF0000E94C51907C00E94D01FBE016B5E7F4F96
:103D00000E94B01F882321F08EEF8093E80003C04B
:103D100081E28093EB006C960FB6F894DEBF0FBE85
:103D2000CDBFDF91CF91FF91EF91BF91AF919F9167
:103D30008F917F916F915F914F913F912F911F9143
:103D40000F91FF90EF90DF900F900FBE0F901F909C
:103D500018958093E9008091F200882319F08AE396
:103D60008093E80008951F920F920FB60F921124CE
:103D70002F933F934F935F936F937F938F939F9373
:103D8000AF93BF93CF93EF93FF93C091E1008091E6
:103D9000E100837F8093E1008093E100C3FF0FC0C7
:103DA0001092E90081E08093EB001092EC0082E336
:103DB0008093ED001092A10788E08093F000C2FF8D
:103DC00019C083E00E94A91E8091A307882339F0BF
:103DD0008091A30781508093A307882389F1809164
:103DE000A207882339F08091A20781508093A2070F
:103DF000882341F1C4FF10C08091E2008E7E816073
:103E00008093E2008091E1008F7E8093E1008091B9
:103E10009F078E7E806111C0C0FF16C08091E200B6
:103E20008E7E80618093E2008091E1008E7E80939F
:103E3000E10080919F078E7E816080939F0704C080
:103E40005D9ACDCF289AD6CFFF91EF91CF91BF91B8
:103E5000AF919F918F917F916F915F914F913F9122
:103E60002F910F900FBE0F901F9018951092A107E1
:103E70001092A00710929F070E947C1BE1EEF0E0D9
:103E800080818E7E80838DE08093E200559A209A17
:103E90000895EF92FF920F931F93CF93DF937B01CF
:103EA000FC01C281D38100E010E0209781F0E8811D
:103EB000F9810280F381E02DB701CE01099597FDCC
:103EC00008C0080F191F0884D985C02DEECFC8017E
:103ED00002C08FEF9FEFDF91CF911F910F91FF9065
:103EE000EF9008950F931F93CF93DF938B01FC0105
:103EF000C281D381209771F0E881F9810480F58136
:103F0000E02DB801CE010995009731F40884D985D8
:103F1000C02DF0CF80E090E0DF91CF911F910F9105
:103F200008950F931F93CF93DF938B01FC01C28100
:103F3000D381209771F0E881F9810680F781E02D27
:103F4000B801CE010995080F111D0884D985C02D2F
:103F5000F0CFF8011082DF91CF911F910F9108955A
:103F60000F931F93CF93DF938B01FC01C281D38109
:103F7000209771F0E881F9810190F081E02DB8017E
:103F8000CE010995811106C00884D985C02DF0CFD6
:103F900080E001C081E0DF91CF911F910F910895E2
:103FA0008091A80781110DC082E08093A40784E06E
:103FB0008093A5071092A7071092A60781E080932F
:103FC000A80784EA97E008955058BB27AA270ED087
:103FD00070C161D130F066D120F031F49F3F11F40F
:103FE0001EF456C10EF4E095E7FB4CC1E92F72D1E7
:103FF00080F3BA17620773078407950718F071F406
:104000009EF58AC10EF4E0950B2EBA2FA02D0B0160
:10401000B90190010C01CA01A0011124FF27591B0D
:1040200099F0593F50F4503E68F11A16F040A22F13
:10403000232F342F4427585FF3CF46953795279584
:10404000A795F0405395C9F77EF41F16BA0B620B83
:10405000730B840BBAF09150A1F0FF0FBB1F661FCA
:10406000771F881FC2F70EC0BA0F621F731F841F0D
:1040700048F4879577956795B795F7959E3F08F033
:10408000B3CF9395880F08F09927EE0F97958795F2
:104090000895D4D008F481E008950CD00AC102D16B
:1040A00040F0F9D030F021F45F3F19F0EBC051112E
:1040B00034C1EEC00FD198F39923C9F35523B1F35E
:1040C000951B550BBB27AA2762177307840738F087
:1040D0009F5F5F4F220F331F441FAA1FA9F333D0E6
:1040E0000E2E3AF0E0E830D091505040E695001C9A
:1040F000CAF729D0FE2F27D0660F771F881FBB1F56
:10410000261737074807AB07B0E809F0BB0B802D2F
:10411000BF01FF2793585F4F2AF09E3F510568F07B
:10412000B1C0FBC05F3FECF3983EDCF3869577951A
:104130006795B795F7959F5FC9F7880F911D96957D
:10414000879597F90895E1E0660F771F881FBB1FD9
:10415000621773078407BA0720F0621B730B840B86
:10416000BA0BEE1F88F7E0950895BCD088F09F57F2
:1041700090F0B92F9927B751A0F0D1F0660F771FB3
:10418000881F991F1AF0BA95C9F712C0B13081F093
:10419000C3D0B1E00895C0C0672F782F8827B85FDB
:1041A00039F0B93FCCF3869577956795B395D9F7F4
:1041B0003EF490958095709561957F4F8F4F9F4FFE
:1041C0000895E89409C097FB3EF49095809570950A
:1041D00061957F4F8F4F9F4F9923A9F0F92F96E953
:1041E000BB279395F695879577956795B795F111C8
:1041F000F8CFFAF4BB0F11F460FF1BC06F5F7F4F65
:104200008F4F9F4F16C0882311F096E911C0772376
:1042100021F09EE8872F762F05C0662371F096E87F
:10422000862F70E060E02AF09A95660F771F881F4E
:10423000DAF7880F9695879597F90895990F0008F2
:10424000550FAA0BE0E8FEEF16161706E807F90768
:10425000C0F012161306E407F50798F0621B730B03
:10426000840B950B39F40A2661F0232B242B252B84
:1042700021F408950A2609F4A140A6958FEF811D27
:10428000811D089597F99F6780E870E060E00895C8
:104290009FEF80EC089500240A941616170618065E
:1042A0000906089500240A9412161306140605063A
:1042B0000895092E0394000C11F4882352F0BB0FCB
:1042C00040F4BF2B11F460FF04C06F5F7F4F8F4F2E
:1042D0009F4F089557FD9058440F551F59F05F3F69
:1042E00071F04795880F97FB991F61F09F3F79F018
:1042F00087950895121613061406551FF2CF46959A
:10430000F1DF08C0161617061806991FF1CF86951B
:104310007105610508940895E894BB2766277727FF
:10432000CB0197F908958ADF08F48FEF08950BD039
:10433000C0CFB1DF28F0B6DF18F0952309F0A2CF87
:10434000A7CF1124EACFC6DFA0F3959FD1F3950F35
:1043500050E0551F629FF001729FBB27F00DB11D09
:10436000639FAA27F00DB11DAA1F649F6627B00D99
:10437000A11D661F829F2227B00DA11D621F739F82
:10438000B00DA11D621F839FA00D611D221F749F90
:104390003327A00D611D231F849F600D211D822FD7
:1043A000762F6A2F11249F5750408AF0E1F088231E
:1043B0004AF0EE0FFF1FBB1F661F771F881F91502B
:1043C0005040A9F79E3F510570F05CCFA6CF5F3FEC
:1043D000ECF3983EDCF3869577956795B795F7955E
:1043E000E7959F5FC1F7FE2B880F911D96958795E6
:1043F00097F90895DB018F939F930E948F22BF91BD
:10440000AF91A29F800D911DA39F900DB29F900D23
:1044100011240895AA1BBB1B51E107C0AA1FBB1F93
:10442000A617B70710F0A61BB70B881F991F5A9540
:10443000A9F780959095BC01CD01089597FB072EB3
:1044400016F4009407D077FD09D00E940A2207FCD9
:1044500005D03EF4909581959F4F08957095619594
:104460007F4F0895A1E21A2EAA1BBB1BFD010DC0B0
:10447000AA1FBB1FEE1FFF1FA217B307E407F50714
:1044800020F0A21BB30BE40BF50B661F771F881FF0
:10449000991F1A9469F760957095809590959B0186
:1044A000AC01BD01CF010895052E97FB1EF40094C9
:1044B0000E946B2257FD07D00E94322207FC03D0D6
:1044C0004EF40C946B2250954095309521953F4FBA
:1044D0004F4F5F4F089590958095709561957F4FF0
:1044E0008F4F9F4F0895EE0FFF1F0590F491E02D21
:1044F0000994A29FB001B39FC001A39F700D811DBD
:104500001124911DB29F700D811D1124911D0895DC
:104510000E947922B7FF0895821B930B08950E9491
:104520007922A59F900DB49F900DA49F800D911DA1
:104530001124089581E090E0F8940C949F22F8945F
:02454000FFCFAB
:10454200010001003905FFFFFFFF00E1000000004C
:10455200000000C1808100000053746174653A203C
:104562000000003100F9183000FB302C001C4726F7
:1045720000825A1F006D6A170041760E00897D0481
:10458200003131295A1B750A000000005B195B19C2
:104592005B192E012A015201000000004F129A12EB
:1045A2005B192E012A0152015B19000000004F1213
:1045B2009A1267012E012A015E0196110000000085
:1045C2004F129A1265012E012A015B01490F000068
:1045D20000004F129A1263012E012A015801FC0CAD
:1045E200000000004F129A1261012E012A015501AA
:1045F200AF0A000000005D19A419871997197319F1
:1046020084190D0A006E616E00696E66006F76662F
:04461200002E000076
:00000001FF
