:100000001EC100004DC100004BC1000049C10000ED
:1000100047C1000045C1000043C1000041C10000CC
:100020003FC100003DC100003BC1000039C10000DC
:1000300037C1000035C1000033C1000031C10000EC
:100040002FC100002DC100002BC1000029C10000FC
:1000500027C1000025C1000023C100000C94AE1987
:100060001FC100000C94191D0C944F1D19C10000F4
:1000700017C1000015C1000013C1000011C100002C
:100080000FC100000DC100000BC1000009C100003C
:1000900007C1000005C1000003C1000001C100004C
:1000A000FFC00000FDC00000FBC00000F9C0000060
:1000B000F7C00000F5C00000F3C00000F1C0000070
:1000C000EFC00000EDC00000EBC00000E9C0000080
:1000D000E7C00000E5C00000E3C00000E1C0000090
:1000E000DFC00000F11311141814B314F014F3144A
:1000F0002A154715D81ADB1ACA1ACE1AD41A121B97
:10010000DF1AE31AE91AED1AF11AF71AFB1AFF1AA5
:10011000121B051B091B0D1B00000A0B02090C0D0D
:100120000E080703040100000000000000000000AA
:1001300000000000000000000000000000000000BF
:10014000000000001211100000000000000000007C
:10015000000000000000000000000000000001029C
:1001600010202008081020401020408002010201C9
:100170000804020101020408102040808040201081
:1001800008040201800402018040201008040201DA
:100190000804020101020408102040800102040842
:1001A000102040800505050507050808080802021B
:1001B00002020A0A08080404040401010101010101
:1001C00001010303030303030303040707070C0CE4
:1001D0000C0C0C0C0C0C02020202060606060606AB
:1001E00006060B0B0B0B0B0B0B0B00002000230068
:1001F000260029002C002F0032000001000003011E
:100200000601090100002200250028002B002E0015
:100210003100340002010000050108010B0100005B
:100220002100240027002A002D00300033000101A6
:100230000000040107010A014213E917811D11247E
:100240001FBECFEFD1E2DEBFCDBF00E00CBF12E09A
:10025000A0E0B2E0E4E7F2E400E00BBF02C00790E8
:100260000D92A03CB107D9F729E0A0ECB2E001C0A3
:100270001D92A932B207E1F712E0CEE3D2E000E02E
:1002800006C022970109FE010BBF0E943021C8332E
:10029000D10780E00807A9F70E94C51D0C943821FA
:1002A000AFCE409104025091050225E038E0429F14
:1002B000C001439F900D529F900D1124875E994C71
:1002C0009093050280930402890F08951F93182FBD
:1002D000E8DF282F219F020E20E0211D1124822F0C
:1002E0001F910895609104027091050245E058E065
:1002F000649F9001659F300D749F300D1124275E1F
:10030000394C3093050220930402DC010C94112136
:100310000895982F86FD9095E92FEF739F7086FDC5
:100320009F5FE695E695E695E670F0E0E35DFD4FAC
:100330002181299F202D912D112422952F70929596
:10034000907F292B9081920F87FD02C0892F02C0D8
:10035000892F819580580895FC018585968508959B
:10036000CF93DF9300D000D0CDB7DEB7AB011C82B6
:100370001D821E82DC01ED91FC910190F081E02D47
:1003800019821A821B829E012F5F3F4FBE016C5F54
:100390007F4F199526960FB6F894DEBF0FBECDBFDE
:1003A000DF91CF91089580E090E0089586E08093FA
:1003B0006608089587E0809366080895809166082E
:1003C0008F5F863018F4809366080895109266084F
:1003D000089580E991E0089580E991E0089580E929
:1003E00091E0089580E991E00895839A0895829AB2
:1003F0000895819A0895809A08950F931F93CF933B
:10040000DF9300D0CDB7DEB78C01BE016F5F7F4FA9
:100410000E940018AE014F5F5F4F6EE170E086E40E
:1004200096E00E94CF15BE016F5F7F4FC8010E940A
:100430000018AE014F5F5F4F65E070E085E497E024
:100440000E94CF15BE016F5F7F4FC8010E94001848
:10045000AE014F5F5F4F6EE170E084E597E00E9470
:10046000CF15BE016F5F7F4FC8010E940018AE011B
:100470004F5F5F4F65E070E08EEA97E00E94CF1516
:100480000F900F900F90DF91CF911F910F910895D2
:10049000CF93DF93EC018F3F910509F010F4D82F33
:1004A000CC270E94F8199B01AC01A8E1B1E00E94A1
:1004B00026219B01AC01DE010E942621AA27BB2731
:1004C0009C013F7336952795369527953695279548
:1004D000AC0144275074452B31F04FEF57E0BA017F
:1004E000621B730B9B01E32FEE0FEE0FF0E0E25F58
:1004F000FD4F4081518132812695BA01329F600DB6
:10050000711D11249B0197FF03C03195219531097D
:1005100030586CE370E0269FB0014CE350E0359F0B
:10052000C001E0E0349F700D811D9E1F259F700D5E
:10053000811D9E1F1124DF91CF910895CF92DF92EC
:10054000EF92FF921F93CF93DF93EC010E94F81973
:10055000E8EECE2EE3E0DE2EE12CF12CA701960191
:100560000E94CD2088819981281B390B11E04A8196
:100570005B812417350710F410E008C00E94F819B9
:10058000A70196010E94CD2039832883812FDF9116
:10059000CF911F91FF90EF90DF90CF900895FC01D5
:1005A000DB013C912081230F08F42FEF208311966B
:1005B0003C9111972181230F08F42FEF218312968C
:1005C0003C912281230F08F42FEF22830895CF93CB
:1005D000DF9300D0CDB7DEB764DE803598F48FEFBF
:1005E00089838A838B838EE190E07CDE9C01220FDD
:1005F000331F280F391FBE016F5F7F4FC9018A5B10
:10060000994FCDDF4EDE8035A8F48FEF89838A8342
:100610008B8388E290E066DE9C01295C3F4FC90134
:10062000880F991F820F931FBE016F5F7F4F805607
:10063000994FB5DF0F900F900F90DF91CF910895F4
:10064000C6DF4AE06EE170E086E496E00E940B1699
:100650004AE066E970E080EA96E00C940B16FC0133
:10066000DB018C919081981708F4808311968C910E
:1006700011979181981708F4818312968C91928139
:10068000981708F48283CF010895FC0130813D332F
:1006900058F0809102029091030291958195910901
:1006A000909303028093020221812F3158F08091B0
:1006B0000002909101029195819591099093010218
:1006C0008093000280910202830F80838091000258
:1006D000820F818308954F925F926F927F929F92D3
:1006E000AF92BF92CF92DF92EF92FF920F931F9340
:1006F000CF93DF9300D0CDB7DEB70E94F8192AE080
:1007000030E040E050E00E94CD206230710581056C
:10071000910508F0CBC189E393E0B7DF01EC12E06B
:10072000C12CD12C7601C701B6010E94521F862F21
:10073000F0DD880FF80181938F0129E838E848E857
:100740005FE3C701B6010E94821E6B017C01F3E0EA
:1007500009331F0741F78091390390E0CC9720E0DF
:1007600030E097FF12C091958195910932C0E8E37E
:10077000F3E0A9E3B3E042914E9342E0E13CF40799
:10078000D1F71092C1022F5F3F4F281739077CF332
:1007900060913A0370E080E090E00E94801F20E0CA
:1007A00030E040EF51E40E94EA1E7B018C0120E022
:1007B00030E0A9010E94E61E87FF13C021C04191CD
:1007C0004D9343E0E933F407D1F7109238032F5FDC
:1007D0003F4F28173907E4F6E2ECF2E0A1ECB2E073
:1007E000EECF20E030E040E85FE3B701C8010E94AF
:1007F000302018164CF4E12CF12C00E81FE304C063
:10080000E12CF12C00E010E09701A80160E070E01D
:1008100080E89FE30E94811E6B017C013DEFA32EC7
:1008200032E0B32E00E010E099249A9443E4642E61
:1008300046E0742EF50161915F0170E080E090E088
:100840000E94801FA70196010E9434200E94521F1F
:10085000562E8091650889839A825B82B8016C5715
:100860007B4FCE0101960E94001880916508898314
:100870009A825B82B301601B710BCE0101960E94CC
:1008800000180D5F1F4F043B1105A1F69EEFA92E26
:1008900092E0B92E00E010E099249A942FE5622EA0
:1008A00028E0722EF50162915F0170E080E090E037
:1008B0000E94801FA70196010E9434200E94521FAF
:1008C000562E8091650889839A825B82B8016056B2
:1008D000794FCE0101960E940018809165088983A6
:1008E0009A825B82B301601B710BCE0101960E945C
:1008F00000180D5F1F4F043B1105A1F6E1ECF2E07B
:1009000043E0E933F40711F01192FACF01EC12E061
:10091000C12CD12C7601C701B6010E94521F862F2F
:10092000F8DC880FF80181938F0129E838E848E85E
:1009300050E4C701B6010E94821E6B017C01F2E007
:100940000F3D1F0741F780913A0390E00F9720E099
:1009500030E097FF12C091958195910932C0EEED7C
:10096000F2E0AFEDB2E042914E9342E0E13CF40799
:10097000D1F71092C1022F5F3F4F281739077CF340
:100980006091390370E080E090E00E94801F20E0D9
:1009900030E040EF52E40E94EA1E5B016C0120E06F
:1009A00030E0A9010E94E61E87FF13C023C04191D9
:1009B0004D9342E0EF3DF407D1F71092DE022F5F36
:1009C0003F4F28173907E4F6E2ECF2E0A1ECB2E081
:1009D000EECF20E030E040E85FE3B501C6010E94C1
:1009E000302018165CF4A12CB12C00E8C02E8FE347
:1009F000D82E04C0A12CB12CC12CD12C9501A6015C
:100A000060E070E080E89FE30E94811E2B013C01C2
:100A100011ECE12E12E0F12E00E010E099249A94FE
:100A2000F70161917F018091650889839A8270E066
:100A300080E090E00E94801FA30192010E94342078
:100A40000E94521F6B83B8016C5A784FCE010196F9
:100A50000E9400180D5F1F4F0A35110509F7B0EA13
:100A6000EB2EB6E0FB2E01EC12E077247A94F8012D
:100A700061918F018091650889837A8270E080E0BE
:100A800090E00E94801F9501A6010E9434200E94E0
:100A9000521F6B83B701CE0101960E940018F3E04C
:100AA000EF0EF11C42E00F3D140709F70F900F9075
:100AB0000F90DF91CF911F910F91FF90EF90DF90FA
:100AC000CF90BF90AF909F907F906F905F904F902E
:100AD00008950F931F93CF93DF9300D0CDB7DEB768
:100AE0008B01882319F0CB0188DC3CC0BE016F5F0D
:100AF0007F4FC8010E940018AE014F5F5F4F6EE14B
:100B000070E08AE294E00E94CF15BE016F5F7F4FD4
:100B1000C8010E940018AE014F5F5F4F65E070E0B2
:100B200089E295E00E94CF15BE016F5F7F4FC8013B
:100B30000E940018AE014F5F5F4F6EE170E088E3E6
:100B400095E00E94CF15BE016F5F7F4FC8010E94E4
:100B50000018AE014F5F5F4F65E070E082E995E0FD
:100B60000E94CF150F900F900F90DF91CF911F91A2
:100B70000F910895CF93DF9300D0CDB7DEB78823D0
:100B800011F025DD2EC08DDB803598F48FEF898341
:100B90008A838B838EE190E0A5DB9C01220F331FBB
:100BA000280F391FBE016F5F7F4FC901865D9B4FC4
:100BB000F6DC77DB8035A8F48FEF89838A838B831B
:100BC00088E290E08FDB9C01295C3F4FC901880FD0
:100BD000991F820F931FBE016F5F7F4F8C579B4FF2
:100BE000DEDC0F900F900F90DF91CF91089581116F
:100BF00027CD80E0BFDF4AE06EE170E08AE294E05A
:100C00000E940B164AE066E970E084E894E00C94D8
:100C10000B16DF92EF92FF920F931F93CF93DF9308
:100C200000D000D0CDB7DEB74AE066E970E0882397
:100C300009F460C080EA96E00E940B164AE06EE17B
:100C400070E086E496E00E940B1607E010E0F12CBD
:100C5000A8ECEA2EDD24DA94809165088F0D8C8350
:100C6000ED82DE82BE016F5F7F4FCE0104960E944F
:100C70000018C8010DDC9C01220F331F280F391FFB
:100C8000BE016F5F7F4FC9018056994FE8DC45E494
:100C900057E06EE170E086E496E00E94CF1541E5F2
:100CA00057E06EE170E084E597E00E94CF1580E2A6
:100CB000F80E20EA36E040E050E0FA01E056F94F45
:100CC0008081D901A154BE4F8C93818111968C9360
:100CD0008281F901EF53FE4F80834D5F5F4F2350B8
:100CE0003109443B510549F70F5F1F4F80EAF81265
:100CF000B3CF5CC084E894E00E940B164AE06EE13A
:100D000070E08AE294E00E940B1607E010E0F12CFC
:100D1000E8ECEE2EDD24DA94FC82ED82DE82BE0168
:100D20006F5F7F4FCE0104960E940018C801B0DBB0
:100D30009C01220F331F280F391FBE016F5F7F4FA9
:100D4000C9018C579B4F8BDC49E255E06EE170E0A6
:100D50008AE294E00E94CF1545E355E06EE170E031
:100D600088E395E00E94CF1580E2F80E24E834E095
:100D700080E090E0FC01EC57FB4F4081D901A15489
:100D8000BE4F4C93418111964C934281F901EF5330
:100D9000FE4F4083039623503109843B910551F760
:100DA0000F5F1F4F0F30110509F0B6CF26960FB613
:100DB000F894DEBF0FBECDBFDF91CF911F910F9191
:100DC000FF90EF90DF9008952F923F924F925F92A5
:100DD0006F927F928F929F92AF92BF92CF92DF924B
:100DE000EF92FF920F931F93CF93DF93CDB7DEB7B0
:100DF00027970FB6F894DEBF0FBECDBF8E839F83BB
:100E00007B01DA0141E0E41AF108F9018081C18037
:100E100082804C9011962C90119712962C918820DC
:100E200011F0C11001C0842D222311F0211001C046
:100E3000482E312CD12CC218D308D694DC2CCC24CB
:100E4000D794C79430E0912C821A930A9694982CE8
:100E500088249794879484190230110551F4482FFF
:100E6000552747FD5095052F001F0027001F10E054
:100E700006C00330110519F487FF08C002C0012B1A
:100E800029F4F0E88F9FC001112408C0819540E843
:100E9000849FC0011124919581959109E114F10479
:100EA00019F01E2D4F2D02C011E040E0612F742F6C
:100EB0000E94BA205B01C601612F742F0E94BA20E4
:100EC0006B01C401612F742F0E94BA203B01AA0C50
:100ED000BB1CCC0CDD1C660C771C512C542C442400
:100EE000322C2224322F22270E811F81812C912C1B
:100EF00059823A823B83B801CE0101962C833D830F
:100F00000E9400184A0C5B1C2C0C3D1C2C813D815E
:100F1000260D371D8FEF881A980A0D5F1F4FE814B2
:100F2000F90430F727960FB6F894DEBF0FBECDBF99
:100F3000DF91CF911F910F91FF90EF90DF90CF90B5
:100F4000BF90AF909F908F907F906F905F904F90E9
:100F50003F902F900895CF92DF92EF92FF920F93E0
:100F60001F93CF93DF9300D0CDB7DEB76C017B0129
:100F700002E010E09B01AC016CE370E080EA96E0D7
:100F800023DF9601A7016CE370E08EEA97E01CDF97
:100F9000BE016F5F7F4FC7010E940018AE014F5F17
:100FA0005F4F6EE170E084E597E00E94CF1545E465
:100FB00057E06EE170E086E496E00E94CF150F9056
:100FC0000F900F90DF91CF911F910F91FF90EF90B5
:100FD000DF90CF900895CF92DF92EF92FF920F9320
:100FE0001F93CF93DF9300D0CDB7DEB76B017A01AB
:100FF000882321F0BA01C601AEDF31C002E010E063
:101000009A01AB016CE370E084E894E0DDDE9601C8
:10101000A7016CE370E082E995E0D6DEBE016F5F68
:101020007F4FC7010E940018AE014F5F5F4F6EE116
:1010300070E088E395E00E94CF15809129058983AF
:1010400080912A058A8380912B058B83AE014F5FA7
:101050005F4F6EE170E08AE294E00E94CF150F903E
:101060000F900F90DF91CF911F910F91FF90EF9014
:10107000DF90CF900895FC0189E392E09183808313
:10108000138212828FEF868387838087818782878E
:10109000838781E084871686158615821482809165
:1010A000740890917508892B21F4F0937508E093EA
:1010B0007408A0917208B0917308109721F01596EA
:1010C000FC93EE931497F0937308E093720889E40D
:1010D00092E09183808308958091AB03811110C0C9
:1010E00082E893E0C8DF10929203109291038BE59F
:1010F00092E0909383038093820381E08093AB031B
:1011000020E030E046E950E060EA76E082E893E0F3
:101110000E94AF17FC018FEF868380EB878380EFFF
:1011200080878091A303811110C081E793E0A3DF42
:1011300010928103109280038DE692E090937203E7
:101140008093710381E08093A30320E030E04EE1BF
:1011500050E066E476E081E793E00E94AF17FC017F
:101160008FEF868380EB878380EF808780919B035E
:10117000811110C080E693E07EDF10927003109220
:101180006F038FE792E0909361038093600381E0A7
:1011900080939B0320E030E046E950E064E874E08F
:1011A00080E693E00E94AF17FC018FEF868380EB0F
:1011B000878380EF808780919303811110C08FE433
:1011C00093E059DF10925F0310925E0381E992E091
:1011D0009093500380934F0381E08093930320E02A
:1011E00030E04EE150E06AE274E08FE493E00E9468
:1011F000AF17FC018FEF868390EB978390EF90877A
:101200008093760826E040E052EC61E070E08CE8E4
:1012100098E00E94B91C66ED71E08DE094E00E94B8
:10122000EA186AED71E080EF93E00E94EA186EED33
:1012300071E083ED93E00E94EA1862E083E00E948F
:10124000131B62E084E00E94131B62E085E00C94B3
:10125000131BCF93DF93EC010E94041A288139817C
:10126000621B730B6A307105B8F3DF91CF9108955B
:101270009F92AF92BF92CF92DF92EF92FF920F9325
:101280001F93CF93DF93EC01E881F98191B39860CC
:1012900081B3877F81BB5A852F81D52ED21ADF82F9
:1012A000AF84AA81BB812D853C854E852F5F3F5F32
:1012B0004F5FEE80F8849984CB851181C12C0C2D71
:1012C0006C2D7C2D71811127889471117D0D08F48E
:1012D0007FEFD194889420FD170F1795889421FDF6
:1012E000170F1795889422FD170F1795889423FDE3
:1012F000170F1795889424FD170F1795889425FDCF
:10130000170F1795889426FD170F1795889427FDBA
:10131000170F17958894072F2111012FD50E102F25
:10132000002C91BB00C017FF81BB708100278894FF
:1013300000C000C0002C81BB71117E0D00C0002CCC
:1013400091BB00C016FF81BB08F47FEFE194889445
:1013500000C000C0002C81BB30FD070F00C0002C76
:1013600091BB00C015FF81BB0795889431FD070F25
:1013700000C000C0002C81BB0795889400C0002CE1
:1013800091BB00C014FF81BB32FD070F0795889405
:1013900000C000C0002C81BB33FD070F00C0002C33
:1013A00091BB00C013FF81BB0795889434FD070FE4
:1013B00000C000C0002C81BB0795889400C0002CA1
:1013C00091BB00C012FF81BB35FD070F07958894C4
:1013D00000C000C0002C81BB36FD070F00C0002CF0
:1013E00091BB00C011FF81BB0795889437FD070FA3
:1013F00000C000C0002C81BB0795889400C0002C61
:1014000091BB00C010FF81BB172F3111102FE90CC9
:1014100000C000C0002C81BB00C000C0002C91BBEC
:1014200000C017FF81BB72810027889400C000C0F4
:10143000002C81BB71117F0D00C0002C91BB00C03E
:1014400016FF81BB08F47FEFEA0DF11D00C000C05C
:10145000002C81BB40FD070F00C0002C91BB00C0D9
:1014600015FF81BB0795889441FD070F00C000C0A0
:10147000002C81BB0795889400C0002C91BB00C054
:1014800014FF81BB42FD070F0795889400C000C080
:10149000002C81BB43FD070F00C0002C91BB00C096
:1014A00013FF81BB0795889444FD070F00C000C05F
:1014B000002C81BB0795889400C0002C91BB00C014
:1014C00012FF81BB45FD070F0795889400C000C03F
:1014D000002C81BB46FD070F00C0002C91BB00C053
:1014E00011FF81BB0795889447FD070F00C000C01E
:1014F000002C81BB0795889400C0002C91BB00C0D4
:1015000010FF81BB172F4111102FF19400C000C0B4
:10151000002C81BBFC0E00C000C091BB00C017FFB7
:1015200081BB71810027889400C000C0002C81BB62
:1015300071117D0D00C0002C91BB00C016FF81BB56
:1015400008F47FEFD194889400C000C0002C81BBC8
:1015500020FD070F00C0002C91BB00C015FF81BB10
:101560000795889421FD070F00C000C0002C81BBA7
:101570000795889400C0002C91BB00C014FF81BB6C
:1015800022FD070F0795889400C000C0002C81BB86
:1015900023FD070F00C0002C91BB00C013FF81BBCF
:1015A0000795889424FD070F00C000C0002C81BB64
:1015B0000795889400C0002C91BB00C012FF81BB2E
:1015C00025FD070F0795889400C000C0002C81BB43
:1015D00026FD070F00C0002C91BB00C011FF81BB8E
:1015E0000795889427FD070F00C000C0002C81BB21
:1015F0000795889400C0002C91BB00C010FF81BBF0
:10160000172F2111102FD50E00C000C0002C81BB58
:10161000119709F086CEDF91CF911F910F91FF9026
:10162000EF90DF90CF90BF90AF909F9008950F9371
:101630001F93CF93DF93EC018B010F960ADEF89492
:10164000C80116DEF8014281538120EE31E0DA0153
:101650000E942021F4E09695879577956795FA95F5
:10166000D1F720E030E0EAE94E9F212D5E9F200D6A
:10167000311D1124620F731F811D911D693EF3E01E
:101680007F0781059105A8F1DC01CB01885E9340BD
:10169000A109B10972E0B695A795979587957A95B6
:1016A000D1F740E050E027E0829F412D929F400D0E
:1016B000511D11242091670830E0280F391F240F95
:1016C000351F8091840890918508A0918608B0917B
:1016D0008708432F5527840F951FA11DB11D8093A7
:1016E000840890938508A0938608B0938708209378
:1016F000670878940E94041A788B6F87DF91CF91E6
:101700001F910F9108959F92AF92BF92CF92DF9257
:10171000EF92FF920F931F93CF93DF93EC01E88139
:10172000F98191B3946081B38B7F81BB5A852F81FE
:10173000D52ED21ADF82AF84AA81BB812D853C854C
:101740004E852F5F3F5F4F5FEE80F8849984CB8595
:101750001181C12C0C2D6C2D7C2D71811127889449
:1017600071117D0D08F47FEFD194889420FD170F3F
:101770001795889421FD170F1795889422FD170F50
:101780001795889423FD170F1795889424FD170F3C
:101790001795889425FD170F1795889426FD170F28
:1017A0001795889427FD170F17958894072F2111F7
:1017B000012FD50E102F002C91BB00C017FF81BB4D
:1017C00070810027889400C000C0002C81BB71117B
:1017D0007E0D00C0002C91BB00C016FF81BB08F439
:1017E0007FEFE194889400C000C0002C81BB30FDE5
:1017F000070F00C0002C91BB00C015FF81BB0795EF
:10180000889431FD070F00C000C0002C81BB0795F4
:10181000889400C0002C91BB00C014FF81BB32FD36
:10182000070F0795889400C000C0002C81BB33FDD2
:10183000070F00C0002C91BB00C013FF81BB0795B0
:10184000889434FD070F00C000C0002C81BB0795B1
:10185000889400C0002C91BB00C012FF81BB35FDF5
:10186000070F0795889400C000C0002C81BB36FD8F
:10187000070F00C0002C91BB00C011FF81BB079572
:10188000889437FD070F00C000C0002C81BB07956E
:10189000889400C0002C91BB00C010FF81BB172FA3
:1018A0003111102FE90C00C000C0002C81BB00C01A
:1018B00000C0002C91BB00C017FF81BB72810027C4
:1018C000889400C000C0002C81BB71117F0D00C046
:1018D000002C91BB00C016FF81BB08F47FEFEA0D1E
:1018E000F11D00C000C0002C81BB40FD070F00C0EF
:1018F000002C91BB00C015FF81BB0795889441FD6A
:10190000070F00C000C0002C81BB0795889400C061
:10191000002C91BB00C014FF81BB42FD070F07954F
:10192000889400C000C0002C81BB43FD070F00C09D
:10193000002C91BB00C013FF81BB0795889444FD28
:10194000070F00C000C0002C81BB0795889400C021
:10195000002C91BB00C012FF81BB45FD070F07950E
:10196000889400C000C0002C81BB46FD070F00C05A
:10197000002C91BB00C011FF81BB0795889447FDE7
:10198000070F00C000C0002C81BB0795889400C0E1
:10199000002C91BB00C010FF81BB172F4111102FED
:1019A000F19400C000C0002C81BBFC0E00C000C040
:1019B00091BB00C017FF81BB71810027889400C0D4
:1019C00000C0002C81BB71117D0D00C0002C91BBAB
:1019D00000C016FF81BB08F47FEFD194889400C04B
:1019E00000C0002C81BB20FD070F00C0002C91BB64
:1019F00000C015FF81BB0795889421FD070F00C02B
:101A000000C0002C81BB0795889400C0002C91BBBE
:101A100000C014FF81BB22FD070F0795889400C00A
:101A200000C0002C81BB23FD070F00C0002C91BB20
:101A300000C013FF81BB0795889424FD070F00C0E9
:101A400000C0002C81BB0795889400C0002C91BB7E
:101A500000C012FF81BB25FD070F0795889400C0C9
:101A600000C0002C81BB26FD070F00C0002C91BBDD
:101A700000C011FF81BB0795889427FD070F00C0A8
:101A800000C0002C81BB0795889400C0002C91BB3E
:101A900000C010FF81BB172F2111102FD50E00C0E1
:101AA00000C0002C81BB119709F086CEDF91CF9149
:101AB0001F910F91FF90EF90DF90CF90BF90AF906C
:101AC0009F9008950F931F93CF93DF93EC018B01A9
:101AD0000F96BFDBF894C80116DEF80142815381EE
:101AE00020EE31E0DA010E94202124E096958795CE
:101AF000779567952A95D1F720E030E0EAE94E9F87
:101B0000212D5E9F200D311D1124620F731F811D39
:101B1000911D693EF3E07F0781059105A8F1DC0185
:101B2000CB01885E9340A109B10912E0B695A79553
:101B3000979587951A95D1F740E050E027E0829F6E
:101B4000412D929F400D511D11242091670830E0D6
:101B5000280F391F240F351F809184089091850824
:101B6000A0918608B0918708432F5527840F951FB1
:101B7000A11DB11D8093840890938508A0938608C9
:101B8000B09387082093670878940E94041A788B92
:101B90006F87DF91CF911F910F9108959F92AF9220
:101BA000BF92CF92DF92EF92FF920F931F93CF934A
:101BB000DF93EC01E881F98191B3926081B38D7F6D
:101BC00081BB5A852F81D52ED21ADF82AF84AA819C
:101BD000BB812D853C854E852F5F3F5F4F5FEE803B
:101BE000F8849984CB851181C12C0C2D6C2D7C2D12
:101BF00071811127889471117D0D08F47FEFD194C4
:101C0000889420FD170F1795889421FD170F1795BD
:101C1000889422FD170F1795889423FD170F1795A9
:101C2000889424FD170F1795889425FD170F179595
:101C3000889426FD170F1795889427FD170F179581
:101C40008894072F2111012FD50E102F002C91BB46
:101C500000C017FF81BB70810027889400C000C0BE
:101C6000002C81BB71117E0D00C0002C91BB00C007
:101C700016FF81BB08F47FEFE194889400C000C098
:101C8000002C81BB30FD070F00C0002C91BB00C0B1
:101C900015FF81BB0795889431FD070F00C000C078
:101CA000002C81BB0795889400C0002C91BB00C01C
:101CB00014FF81BB32FD070F0795889400C000C058
:101CC000002C81BB33FD070F00C0002C91BB00C06E
:101CD00013FF81BB0795889434FD070F00C000C037
:101CE000002C81BB0795889400C0002C91BB00C0DC
:101CF00012FF81BB35FD070F0795889400C000C017
:101D0000002C81BB36FD070F00C0002C91BB00C02A
:101D100011FF81BB0795889437FD070F00C000C0F5
:101D2000002C81BB0795889400C0002C91BB00C09B
:101D300010FF81BB172F3111102FE90C00C000C01C
:101D4000002C81BB00C000C0002C91BB00C017FF5D
:101D500081BB72810027889400C000C0002C81BB29
:101D600071117F0D00C0002C91BB00C016FF81BB1C
:101D700008F47FEFEA0DF11D00C000C0002C81BB0C
:101D800040FD070F00C0002C91BB00C015FF81BBB8
:101D90000795889441FD070F00C000C0002C81BB4F
:101DA0000795889400C0002C91BB00C014FF81BB34
:101DB00042FD070F0795889400C000C0002C81BB2E
:101DC00043FD070F00C0002C91BB00C013FF81BB77
:101DD0000795889444FD070F00C000C0002C81BB0C
:101DE0000795889400C0002C91BB00C012FF81BBF6
:101DF00045FD070F0795889400C000C0002C81BBEB
:101E000046FD070F00C0002C91BB00C011FF81BB35
:101E10000795889447FD070F00C000C0002C81BBC8
:101E20000795889400C0002C91BB00C010FF81BBB7
:101E3000172F4111102FF19400C000C0002C81BB5E
:101E4000FC0E00C000C091BB00C017FF81BB7181B8
:101E50000027889400C000C0002C81BB71117D0D4B
:101E600000C0002C91BB00C016FF81BB08F47FEFBF
:101E7000D194889400C000C0002C81BB20FD070FC6
:101E800000C0002C91BB00C015FF81BB0795889452
:101E900021FD070F00C000C0002C81BB079588946E
:101EA00000C0002C91BB00C014FF81BB22FD070FB6
:101EB0000795889400C000C0002C81BB23FD070F4C
:101EC00000C0002C91BB00C013FF81BB0795889414
:101ED00024FD070F00C000C0002C81BB079588942B
:101EE00000C0002C91BB00C012FF81BB25FD070F75
:101EF0000795889400C000C0002C81BB26FD070F09
:101F000000C0002C91BB00C011FF81BB07958894D5
:101F100027FD070F00C000C0002C81BB07958894E7
:101F200000C0002C91BB00C010FF81BB172F2111F6
:101F3000102FD50E00C000C0002C81BB119709F0F6
:101F400086CEDF91CF911F910F91FF90EF90DF90A0
:101F5000CF90BF90AF909F9008950F931F93CF9312
:101F6000DF93EC018B010F9674D9F894C80116DE4B
:101F7000F8014281538120EE31E0DA010E942021F4
:101F8000E4E09695879577956795EA95D1F720E0F7
:101F900030E0EAE94E9F212D5E9F200D311D112476
:101FA000620F731F811D911D693EF3E07F0781055C
:101FB0009105A8F1DC01CB01885E9340A109B1092C
:101FC00032E0B695A795979587953A95D1F740E079
:101FD00050E027E0829F412D929F400D511D11241A
:101FE0002091670830E0280F391F240F351F80919A
:101FF000840890918508A0918608B0918708432FA6
:102000005527840F951FA11DB11D809384089093BF
:102010008508A0938608B093870820936708789472
:102020000E94041A788B6F87DF91CF911F910F91D7
:1020300008959F92AF92BF92CF92DF92EF92FF925C
:102040000F931F93CF93DF93EC01E881F98191B354
:10205000916081B38E7F81BB5A852F81D52ED21A94
:10206000DF82AF84AA81BB812D853C854E852F5FA1
:102070003F5F4F5FEE80F8849984CB851181C12C3E
:102080000C2D6C2D7C2D71811127889471117D0D83
:1020900008F47FEFD194889420FD170F179588944A
:1020A00021FD170F1795889422FD170F1795889417
:1020B00023FD170F1795889424FD170F1795889403
:1020C00025FD170F1795889426FD170F17958894EF
:1020D00027FD170F17958894072F2111012FD50E73
:1020E000102F002C91BB00C017FF81BB708100270F
:1020F000889400C000C0002C81BB71117E0D00C00F
:10210000002C91BB00C016FF81BB08F47FEFE19467
:10211000889400C000C0002C81BB30FD070F00C0B8
:10212000002C91BB00C015FF81BB0795889431FD41
:10213000070F00C000C0002C81BB0795889400C029
:10214000002C91BB00C014FF81BB32FD070F079527
:10215000889400C000C0002C81BB33FD070F00C075
:10216000002C91BB00C013FF81BB0795889434FD00
:10217000070F00C000C0002C81BB0795889400C0E9
:10218000002C91BB00C012FF81BB35FD070F0795E6
:10219000889400C000C0002C81BB36FD070F00C032
:1021A000002C91BB00C011FF81BB0795889437FDBF
:1021B000070F00C000C0002C81BB0795889400C0A9
:1021C000002C91BB00C010FF81BB172F3111102FC5
:1021D000E90C00C000C0002C81BB00C000C0002C76
:1021E00091BB00C017FF81BB72810027889400C09B
:1021F00000C0002C81BB71117F0D00C0002C91BB71
:1022000000C016FF81BB08F47FEFEA0DF11D00C08E
:1022100000C0002C81BB40FD070F00C0002C91BB0B
:1022200000C015FF81BB0795889441FD070F00C0D2
:1022300000C0002C81BB0795889400C0002C91BB86
:1022400000C014FF81BB42FD070F0795889400C0B2
:1022500000C0002C81BB43FD070F00C0002C91BBC8
:1022600000C013FF81BB0795889444FD070F00C091
:1022700000C0002C81BB0795889400C0002C91BB46
:1022800000C012FF81BB45FD070F0795889400C071
:1022900000C0002C81BB46FD070F00C0002C91BB85
:1022A00000C011FF81BB0795889447FD070F00C050
:1022B00000C0002C81BB0795889400C0002C91BB06
:1022C00000C010FF81BB172F4111102FF19400C0E7
:1022D00000C0002C81BBFC0E00C000C091BB00C040
:1022E00017FF81BB71810027889400C000C0002CBB
:1022F00081BB71117D0D00C0002C91BB00C016FF89
:1023000081BB08F47FEFD194889400C000C0002CFA
:1023100081BB20FD070F00C0002C91BB00C015FF42
:1023200081BB0795889421FD070F00C000C0002CD9
:1023300081BB0795889400C0002C91BB00C014FF9E
:1023400081BB22FD070F0795889400C000C0002CB8
:1023500081BB23FD070F00C0002C91BB00C013FF01
:1023600081BB0795889424FD070F00C000C0002C96
:1023700081BB0795889400C0002C91BB00C012FF60
:1023800081BB25FD070F0795889400C000C0002C75
:1023900081BB26FD070F00C0002C91BB00C011FFC0
:1023A00081BB0795889427FD070F00C000C0002C53
:1023B00081BB0795889400C0002C91BB00C010FF22
:1023C00081BB172F2111102FD50E00C000C0002C8B
:1023D00081BB119709F086CEDF91CF911F910F91AC
:1023E000FF90EF90DF90CF90BF90AF909F900895B7
:1023F0000F931F93CF93DF93EC018B010F960E94F5
:102400002909F894C80115DEF8014281538120EEB4
:1024100031E0DA010E94202104E0969587957795B6
:1024200067950A95D1F720E030E0EAE94E9F212D2B
:102430005E9F200D311D1124620F731F811D911DA0
:10244000693EF3E07F0781059105A8F1DC01CB012E
:10245000885E9340A109B109F2E0B695A7959795DA
:102460008795FA95D1F740E050E027E0829F412D13
:10247000929F400D511D11242091670830E0280FD4
:10248000391F240F351F8091840890918508A091F1
:102490008608B0918708432F5527840F951FA11DEB
:1024A000B11D8093840890938508A0938608B0930B
:1024B0008708209367087894A7D7788B6F87DF9178
:1024C000CF911F910F910895FC01118A108A0895F0
:1024D000FF920F931F93CF93DF93EC018091C00283
:1024E0008F5F982F97709093C00280FD02C080E0AC
:1024F00001C080E891FD8064947009F0806290E1F1
:10250000F92EF80E20E030E000E011E0FE01E20FCD
:10251000F31F6485662331F070E0C8010E94BA2081
:102520006F5F01C060E061874F2D469F040E40E061
:10253000411D1124411102C0168202C04150468340
:10254000662311F0615061872F5F3F4F23303105C3
:10255000E9F6DF91CF911F910F91FF900895EF92CF
:10256000FF920F931F93CF93DF93CDB7DEB76297A0
:102570000FB6F894DEBF0FBECDBF8C017A01F90112
:10258000DC011C968C917A8369835C834B835E8328
:102590004D8390819D8791819E8792819F87813015
:1025A00021F4CE01019694DF06C01C861B861A8694
:1025B000198618861F82188AB701CE01019684DF1A
:1025C000D801ED91FC910484F585E02DBE016F5F8B
:1025D0007F4FC801199562960FB6F894DEBF0FBE03
:1025E000CDBFDF91CF911F910F91FF90EF90089594
:1025F000EF92FF920F931F93CF93DF93CDB7DEB788
:1026000062970FB6F894DEBF0FBECDBF8C017A0182
:10261000F901DC011C968C917A8369835C834B837E
:102620005E834D8390819D8791819E8792819F8754
:10263000813021F4CE0101964BDF06C01C861B863B
:102640001A86198618861F8283E0888BB701CE010F
:1026500001963ADFD801ED91FC910484F585E02DD7
:10266000BE016F5F7F4FC801199562960FB6F8944F
:10267000DEBF0FBECDBFDF91CF911F910F91FF90B5
:10268000EF90089541E050E063E070E08DE094E069
:102690005AD541E050E064E070E080EF93E053D51C
:1026A00041E050E065E070E083ED93E04CC5CF92EF
:1026B000DF92EF92FF920F931F93CF93DF9300D09F
:1026C00000D0CDB7DEB78091CB03811118C090D672
:1026D00060934703709348038093490390934A03A0
:1026E00084E190E0A0E0B0E080934B0390934C0332
:1026F000A0934D03B0934E0381E08093CB0378D633
:10270000C0904703D0904803E0904903F0904A03FB
:102710006C197D098E099F09C0904B03D0904C0322
:10272000E0904D03F0904E036C157D058E059F05DE
:1027300070F05ED66093470370934803809349031B
:1027400090934A03809165088F5F8093650880911C
:10275000C303811114C04CD620E63AEE40E050E0AD
:102760000E94CD20309344032093430384E190E002
:10277000909346038093450381E08093C30338D64A
:10278000F0E6CF2EFAEEDF2EE12CF12CA701960118
:102790000E94CD208091430390914403281B390B64
:1027A00080914503909146032817390770F020D691
:1027B000A70196010E94CD20309344032093430348
:1027C00085E00E946601809366088091660890E02B
:1027D0008830910508F07BC1FC01EE58FF4F0C9446
:1027E0000B218091650892E3980F9983E8ECFE2E07
:1027F000FA821FEF1B838C8302E30D831E83BE01CD
:102800006F5F7F4FCE0104960E94AB0780916508F1
:1028100092E3980F9983FA821B838C830D831E8326
:102820000FC181E00E94090680E00E94090651C1A3
:102830004AE066E970E080EA96E0EDD14AE06EE1B8
:1028400070E086E496E0E7D11091650880E40E948C
:102850006601810F8C8308EC0D831FEF1E83BE0180
:102860006F5F7F4FCE010496CBD386E990E00E9444
:1028700072019C01220F331F280F391FBE016F5FA9
:102880007F4FC9018056994F0E94CF02F090650892
:1028900080E40E9466018F0D8C830D831E83BE0130
:1028A0006F5F7F4FCE010496ABD38EE190E00E9424
:1028B00072019C01220F331F280F391FBE016F5F69
:1028C0007F4FC9018A5B994F0E94CF024AE066E9B7
:1028D00070E084E894E09FD14AE06EE170E08AE223
:1028E00094E099D1F090650880E40E9466018F0D14
:1028F0008C830D831E83BE016F5F7F4FCE010496D4
:102900007FD386E990E00E9472019C01220F331F61
:10291000280F391FBE016F5F7F4FC9018C579B4F36
:102920000E94CF02F090650880E40E9466018F0D3E
:102930008C830D831E83BE016F5F7F4FCE01049693
:102940005FD38EE190E00E9472019C01220F331F41
:10295000280F391FBE016F5F7F4FC901865D9B4FF6
:102960000E94CF02B6C0809165088C831D821FEF44
:102970001E83BE016F5F7F4FCE01049641D3AE012F
:102980004F5F5F4F66E970E080EA96E008D1809182
:10299000650889831A831B83CE0101960E94FD017D
:1029A000809165088C831D821E83BE016F5F7F4FFF
:1029B000CE01049625D3AE014F5F5F4F6CE370E00C
:1029C00084E894E0ECD080916508805889831A836C
:1029D0001B83BE016F5F7F4F80E00E94690579C055
:1029E0000E946B0376C080916508809363089CE920
:1029F000980F9093640824E6280F20936208998327
:102A000018EC1A830FEF0B830E94890190916308E1
:102A10009C831D838E83BE016F5F7F4FCE01049622
:102A20000E94AB078091620889831A830B8380918F
:102A300065080E948901909163089C831D838E83A1
:102A4000AE014F5F5F4FBE016C5F7F4F80E00E9421
:102A5000EB073FC00E9420038091BB03811114C08B
:102A6000C7D428EE33E040E050E00E94CD20309300
:102A7000400320933F038AE090E0909342038093C9
:102A8000410381E08093BB038FE393E01DC080E0AE
:102A90000E94F7058091B303811114C0A9D428EED8
:102AA00033E040E050E00E94CD2030933C0320937F
:102AB0003B038AE090E090933E0380933D0381E0E6
:102AC0008093B3038BE393E00E949E0281111092E6
:102AD00066088CE898E03ED6181619063CF58CE896
:102AE00098E051D68133E9F08233E9F08033F1F494
:102AF000809166088F5F863018F48093660802C064
:102B00001092660866E072E08CE898E00E940F1E62
:102B10004AE050E0609166088CE898E00E946C1EE4
:102B200005C086E001C087E0809366086091760862
:102B300086E798E012D14AE050E060E070E086E776
:102B400098E098D18DE094E049D380EF93E046D3AC
:102B500083ED93E043D326960FB6F894DEBF0FBE05
:102B6000CDBFDF91CF911F910F91FF90EF90DF903C
:102B7000CF900895FC012081269F020E20E0211DA8
:102B800020832181269F020E20E0211D21832281A6
:102B9000269F020E20E0211D228311240895FA01B0
:102BA00020E030E00396261737076CF44081DC0103
:102BB00013974C93418111964C93428111964C93FB
:102BC0002F5F3F4FEFCF0895CF92DF92EF92FF92AA
:102BD0000F931F93CF93DF931F92CDB7DEB77B0187
:102BE0008C01C12CD12CCE14DF0459F0642FC80104
:102BF0004983C0DF8FEFC81AD80A0D5F1F4F498184
:102C0000F2CF0F90DF91CF911F910F91FF90EF9036
:102C1000DF90CF9008954095D7CF8F929F92AF923B
:102C2000BF92EF92FF920F931F93CF93DF93EC012C
:102C3000188219821A824423B9F1E0E0F0E08B0196
:102C40000A5F1F4F7B0189E0E80EF11C842E912C56
:102C5000A12CB12CD801AE0FBF1F2C91D701AE0F04
:102C6000BF1F6C912223E1F06623D1F030E040E0F9
:102C700050E02F5F3F4F4F4F5F4F70E080E090E09C
:102C80006F5F7F4F8F4F9F4F0E9497209B01AC013A
:102C9000C501B4010E949720DE01AE0FBF1F8C93C7
:102CA0003196E330F105B1F6CE01DF91CF911F915E
:102CB0000F91FF90EF90BF90AF909F908F900895ED
:102CC000CF92DF92EF92FF92CF93DF93EC0180914E
:102CD0006C0890916D089C012F5F3F4F30936D08F9
:102CE00020936C08861797078CF182D39B01AC0167
:102CF000E0916C08F0916D0888EE93E0E89FB001D8
:102D0000E99F700DF89F700D1124882777FD80953D
:102D1000982FC0906808D0906908E0906A08F090F9
:102D20006B082C193D094E095F090E94CD203A839A
:102D3000298310926D0810926C085AD3609368082A
:102D40007093690880936A0890936B08DF91CF9124
:102D5000FF90EF90DF90CF9008958F929F92AF9267
:102D6000BF92EF92FF920F931F93CF93DF9300D008
:102D7000CDB7DEB78C01F62EF80183819481A58151
:102D8000B681892B8A2B8B2BC9F03ED380906E089D
:102D900090906F08A0907008B09071086819790938
:102DA0008A099B09D80113968D909D90AD90BC9097
:102DB0001697681579058A059B05F0F225D360936F
:102DC0006E0870936F088093700890937108D80113
:102DD0001B96ED91FC911C97309751F0D8011796F6
:102DE0004D915D916D917C911A978F2D1995F82ECB
:102DF000A0907408B0907508A114B10449F1F501D0
:102E0000E484D80111968D919C9112978436910596
:102E100008F41486D501ED91FC91828093804F2DAA
:102E2000B501CE010196F9DEF50145855685628131
:102E300073819E012F5F3F4FC501F4011995D501A4
:102E40001C96EC921C971496AD90BC901597D4CF1D
:102E500069E170E0C80134DF0F900F900F90DF91AF
:102E6000CF911F910F91FF90EF90BF90AF909F90E7
:102E70008F9008958F929F92AF92BF92CF92DF92E0
:102E8000EF92FF92CF93DF93EC016A017B01B0D206
:102E90004B015C0161E070E080E090E0D8D2688195
:102EA000CE015BDF5AD2A4D2681979098A099B093D
:102EB0006C157D058E059F0568F3DF91CF91FF901E
:102EC000EF90DF90CF90BF90AF909F908F9008953C
:102ED000CF92DF92EF92FF920F931F93CF93DF93E6
:102EE000EC014423F1F06115710581F19B0140E093
:102EF00050E060E472E48FE090E00E94EF20CB802D
:102F0000DC80ED80FE8089019A010C151D052E05DF
:102F10003F0510F4970186010B831C832D833E83AC
:102F200015C06115710571F09B0140E050E060E44F
:102F300072E48FE090E00E94EF202B833C834D836E
:102F40005E8304C01B821C821D821E82DF91CF9192
:102F50001F910F91FF90EF90DF90CF900895CF9247
:102F6000DF92EF92FF920F931F93CF93DF93EC01C9
:102F70006B018A017901121613061CF07A0100E038
:102F800010E0E881F9810480F581E02DCE011995EA
:102F9000C801880F991F800F911F8C0D9D1D9B8369
:102FA0008A83FE86ED86E881F9810284F385E02D2F
:102FB000CE01199541E0BC0186E798E089DFCE019A
:102FC000DF91CF911F910F91FF90EF90DF90CF9005
:102FD00008958FEF80937608109278081092770802
:102FE00010928208109281088FEF9FEFDC0180938E
:102FF0007D0890937E08A0937F08B0938008089581
:10300000FC01DB01408161817281242F2F71220F2D
:10301000220F220F522F35E5539F050E50E0511D10
:103020001124352F942F9074842F807247FD1FC078
:1030300091110AC0811103C03095452F11C045E59B
:10304000450F20E03BEA2FC081110CC03AEA239FD4
:10305000020E20E0211D11243BEA321B4AEA450FF3
:1030600020E021C080E0452F4095252F0DC0911113
:1030700010C081110BC03AEA239F020E20E0211DEF
:1030800011244BEA421B2B5A30E00DC0252F20950E
:1030900009C0811103C03B5A2BEA03C0365580E0BA
:1030A00025E5251B40E06F3F09F423C06623F1F0BE
:1030B000332321F0369F030E30E0311D442321F0ED
:1030C000469F040E40E0411D222321F0269F020E60
:1030D00020E0211D1124562F5095559F050E50E0DC
:1030E000511D1124350F450F250F03C02FEF4FEF52
:1030F0003FEF7F3F09F420C050E0772321F0779F16
:10310000512D09F05F5F5523A1F0332321F0359F46
:10311000030E30E0311D442321F0459F040E40E0B2
:10312000411D222321F0259F020E20E0211D1124A4
:1031300003C020E040E030E03C9311964C9311979F
:1031400012962C930895CF92DF92FF920F931F93C4
:10315000CF93DF931F92CDB7DEB76C01F62E8A01B5
:1031600060E08F2D79835FD2F601F08279817183DF
:1031700028E532E03383228328EE33E0358324834D
:10318000108E178A1286012B51F021E030E0378330
:1031900026831186108661E08F2D7ED207C0F6014E
:1031A0001782168281E090E091878087F60116866B
:1031B0001586108A1786128A118A148A138A168A2B
:1031C000158A0F90DF91CF911F910F91FF90DF90A3
:1031D000CF900895FC017487638708958F929F9222
:1031E000AF92BF92CF92DF92EF92FF920F931F9315
:1031F000CF93DF93EC01888184D27C01F9D02F89B1
:10320000388D2115310579F428853985E216F306C4
:1032100009F096C021E030E0388F2F8B698F7A8FCC
:103220008B8F9C8F8DC021303105C9F52E813F8158
:10323000E216F30619F482E090E02EC02885398565
:10324000E216F30609F07CC04C815D818A012227D9
:1032500017FD2095322FC98CDA8CEB8CFC8C0C0D71
:103260001D1D2E1D3F1D061717072807390708F0DB
:1032700067C081E08A87EF85F889309709F0199552
:10328000E989FA89309709F01995ED89FE89309717
:1032900009F0199586E090E0988F8F8B51C022300D
:1032A0003105F9F44A815B814A01AA2497FCA09474
:1032B000BA2C098D1A8D2B8D3C8D800E911EA21E6D
:1032C000B31E86169706A806B90618F4EB85FC858A
:1032D0001EC088859985E816F90691F583E090E08F
:1032E000DBCF2330310541F48E819F81E816F9064A
:1032F00039F5ED85FE850BC02630310509F58E8147
:103300009F81E816F90649F41A86EB89FC89309703
:1033100009F01995188E1F8A13C081E08A87ED89FC
:10332000FE89309769F0DF91CF911F910F91FF9047
:10333000EF90DF90CF90BF90AF909F908F901994B7
:10334000DF91CF911F910F91FF90EF90DF90CF9081
:10335000BF90AF909F908F90089508951F920F9205
:103360000FB60F9211242F933F938F939F93AF9398
:10337000BF938091840890918508A0918608B091B0
:1033800087083091830823E0230F2D3720F401961E
:10339000A11DB11D05C026E8230F0296A11DB11D78
:1033A000209383088093840890938508A0938608CF
:1033B000B09387088091880890918908A0918A0825
:1033C000B0918B080196A11DB11D80938808909340
:1033D0008908A0938A08B0938B08BF91AF919F9101
:1033E0008F913F912F910F900FBE0F901F901895C6
:1033F0002FB7F894609184087091850880918608B1
:10340000909187082FBF08953FB7F894809188085E
:1034100090918908A0918A08B0918B0826B5A89B45
:1034200005C02F3F19F00196A11DB11D3FBF6627B2
:10343000782F892F9A2F620F711D811D911D42E0F7
:10344000660F771F881F991F4A95D1F708958F92AD
:103450009F92AF92BF92CF92DF92EF92FF926B0159
:103460007C01D2DF4B015C01C114D104E104F10401
:10347000E1F073DFC9DF681979098A099B09683EA1
:1034800073408105910580F321E0C21AD108E1085B
:10349000F10888EE880E83E0981EA11CB11CC114AF
:1034A000D104E104F10431F7DFCFFF90EF90DF901A
:1034B000CF90BF90AF909F908F900895789484B5EF
:1034C000826084BD84B5816084BD85B5826085BD20
:1034D00085B5816085BDEEE6F0E080818160808306
:1034E000E1E8F0E0108280818260808380818160E9
:1034F0008083E0E8F0E0808181608083E1EBF0E0B0
:10350000808184608083E0EBF0E080818160808353
:10351000E1E9F0E080818260808380818160808346
:10352000E0E9F0E0808181608083E1EAF0E0808181
:1035300082608083808181608083E0EAF0E0808126
:1035400081608083E1E2F1E080818260808380811C
:1035500081608083E0E2F1E0808181608083EAE73E
:10356000F0E08081846080838081826080838081BC
:10357000816080838081806880831092C10008957B
:1035800090E0FC013197E231F10508F04BC0E658BC
:10359000FF4F41C6809180008F7703C080918000EB
:1035A0008F7D80938000089580918000877FF9CF80
:1035B00084B58F7702C084B58F7D84BD08958091D6
:1035C000B0008F7703C08091B0008F7D8093B000F2
:1035D0000895809190008F7707C0809190008F7D33
:1035E00003C080919000877F809390000895809120
:1035F000A0008F7707C08091A0008F7D03C08091CD
:10360000A000877F8093A0000895809120018F778C
:1036100007C0809120018F7D03C080912001877FAA
:10362000809320010895CF93DF9390E0FC01E25A4C
:10363000FE4F2491FC01EC55FE4F8491882349F103
:1036400090E0880F991FFC01E25EFD4FA591B491B7
:103650008C5F9D4FFC01C591D4919FB7611108C04B
:10366000F8948C91209582238C93888182230AC0C0
:10367000623051F4F8948C91322F309583238C93DF
:103680008881822B888304C0F8948C91822B8C9340
:103690009FBFDF91CF9108950F931F93CF93DF9337
:1036A0001F92CDB7DEB7282F30E0F901E85EFE4F5C
:1036B0008491F901E25AFE4F1491F901EC55FE4F45
:1036C00004910023C1F0882319F0698359DF6981CF
:1036D000E02FF0E0EE0FFF1FEC5FFD4FA591B491DE
:1036E0009FB7F8948C91611103C01095812301C09C
:1036F000812B8C939FBF0F90DF91CF911F910F91E2
:103700000895CF93DF93282F30E0F901E85EFE4F54
:103710008491F901E25AFE4FD491F901EC55FE4F24
:10372000C491CC2389F081112BDFEC2FF0E0EE0F58
:10373000FF1FE651FE4FA591B4912C912D2381E0FE
:1037400090E021F480E002C080E090E0DF91CF9132
:1037500008958AD5FC01818D228D90E0805C9F4F79
:10376000821B91098F7399270895FC01918D828D99
:10377000981731F0828DE80FF11D858D90E0089546
:103780008FEF9FEF0895FC01918D828D981761F066
:10379000828DDF01A80FB11D5D968C91928D9F5F88
:1037A0009F73928F90E008958FEF9FEF089588E7C1
:1037B0009DE1892B39F080E090E0892B19F098D1B8
:1037C000811125C080E090E0892B41F080E090E0FD
:1037D000892B21F00E94000081111CC080E090E044
:1037E000892B41F080E090E0892B21F00E940000BD
:1037F000811113C080E090E0892BA1F080E090E07F
:10380000892B81F00E94000081110AC008950E9456
:103810000000D8CF0E940000E1CF0E940000EACF54
:103820000C9400000895FC01848DDF01A80FB11DE8
:10383000A35ABF4F2C91848D90E001968F739927E6
:10384000848FA689B7892C93A089B1898C918064D3
:103850008C93938D848D981306C00288F389E02D94
:1038600080818F7D80830895CF93DF93EC01888DD5
:103870008823C1F0EA89FB89808185FD05C0A8897C
:10388000B9898C9186FD0EC00FB607FCF5CF8081FB
:1038900085FFF2CFA889B9898C9185FFEDCFCE0144
:1038A000C2DFE8CFDF91CF910895CF92DF92FF92F0
:1038B0000F931F93CF93DF931F92CDB7DEB76C01A9
:1038C00081E0D60158968C9358975B969C915B97B4
:1038D0005C968C915C97981307C05096ED91FC9183
:1038E0005197808185FD2DC0F601038D10E00F5F9B
:1038F0001F4F0F731127F02EF601848DF81210C0A0
:103900000FB607FCF9CFD6015096ED91FC91519777
:10391000808185FFF1CFC601698385DF6981ECCFA6
:10392000838DE80FF11DE35AFF4F6083D6015B964C
:103930000C935B975296ED91FC9153978081806236
:103940000CC0D6015696ED91FC9157976083509626
:10395000ED91FC91519780818064808381E090E0BB
:103960000F90DF91CF911F910F91FF90DF90CF903B
:103970000895BF92CF92DF92EF92FF92CF93DF93A1
:10398000EC016A017B01B22EE889F98982E080832B
:10399000411581EE58076105710599F060E079E005
:1039A0008DE390E0A7019601F8D321503109410938
:1039B00051095695479537952795211580E1380788
:1039C00090F0E889F989108260E874E88EE190E06F
:1039D000A7019601E2D321503109410951095695B9
:1039E000479537952795EC85FD853083EE85FF85D6
:1039F0002083188EEC89FD89B082EA89FB89808159
:103A000080618083EA89FB89808188608083EA897C
:103A1000FB89808180688083EA89FB8980818F7D32
:103A20008083DF91CF91FF90EF90DF90CF90BF9098
:103A300008951F920F920FB60F9211240BB60F929A
:103A40002F938F939F93EF93FF93E0919C08F091B6
:103A50009D088081E091A208F091A30882FD12C028
:103A600090818091A5088F5F8F732091A60882179F
:103A700051F0E091A508F0E0E457F74F958F80935F
:103A8000A50801C08081FF91EF919F918F912F91A7
:103A90000F900BBE0F900FBE0F901F9018951F92A6
:103AA0000F920FB60F9211240BB60F922F933F93E4
:103AB0004F935F936F937F938F939F93AF93BF9336
:103AC000EF93FF938CE898E0AEDEFF91EF91BF910A
:103AD000AF919F918F917F916F915F914F913F91A6
:103AE0002F910F900BBE0F900FBE0F901F90189547
:103AF0008CE898E02FDE21E0892B09F420E0822F6A
:103B0000089510928F0810928E0888EE93E0A0E03E
:103B1000B0E08093900890939108A0939208B0939E
:103B2000930883EA92E090938D0880938C0885EC4B
:103B300090E0909399088093980884EC90E090939B
:103B40009B0880939A0880EC90E090939D08809366
:103B50009C0881EC90E090939F0880939E0882ECF3
:103B600090E09093A1088093A00886EC90E0909359
:103B7000A3088093A2081092A5081092A60810929C
:103B8000A7081092A8080895089598DCFDDF0E9408
:103B90006C08C7EDDBE10E9457132097E1F307DEC5
:103BA000FACFCF92DF92EF92FF920F931F93CF93B2
:103BB000DF937C016A01EB0100E010E00C151D05AC
:103BC00071F06991D701ED91FC910190F081E02DA8
:103BD000C7011995892B19F00F5F1F4FEFCFC8014F
:103BE000DF91CF911F910F91FF90EF90DF90CF90D9
:103BF00008956115710581F0DB010D900020E9F752
:103C0000AD0141505109461B570BDC01ED91FC9170
:103C10000280F381E02D199480E090E00895E9CFCF
:103C20006FEA72E0E6CF8F929F92AF92BF92DF92DF
:103C3000EF92FF920F931F93CF93DF93CDB7DEB731
:103C4000A1970FB6F894DEBF0FBECDBF7C01F42F55
:103C5000D52ECB0119A2223008F42AE08E010F5D87
:103C60001F4F822E912CA12CB12C6F2F7D2DA501E1
:103C7000940193D2F22FD32ECA01015011096A3058
:103C800014F4E0E301C0E7E3E60FD801EC93232B43
:103C9000242B252B51F7B801C701ABDFA1960FB636
:103CA000F894DEBF0FBECDBFDF91CF911F910F9172
:103CB000FF90EF90DF90BF90AF909F908F9008950E
:103CC0002115310541F4DC01ED91FC910190F08169
:103CD000E02D642F1994A7CF0F931F93CF93DF93F9
:103CE000EC019A01462F50E060E070E0E9DF8C01C2
:103CF000CE0196DF800F911FDF91CF911F910F9121
:103D000008955058BB27AA270ED070C161D130F05A
:103D100066D120F031F49F3F11F41EF456C10EF429
:103D2000E095E7FB4CC1E92F72D180F3BA17620727
:103D300073078407950718F071F49EF58AC10EF495
:103D4000E0950B2EBA2FA02D0B01B90190010C01AB
:103D5000CA01A0011124FF27591B99F0593F50F4C3
:103D6000503E68F11A16F040A22F232F342F44271B
:103D7000585FF3CF469537952795A795F040539513
:103D8000C9F77EF41F16BA0B620B730B840BBAF0E3
:103D90009150A1F0FF0FBB1F661F771F881FC2F74E
:103DA0000EC0BA0F621F731F841F48F48795779562
:103DB0006795B795F7959E3F08F0B3CF9395880F19
:103DC00008F09927EE0F979587950895D4D008F4B9
:103DD00081E008950CD00AC102D140F0F9D030F052
:103DE00021F45F3F19F0EBC0511134C1EEC00FD187
:103DF00098F39923C9F35523B1F3951B550BBB27B2
:103E0000AA2762177307840738F09F5F5F4F220F5E
:103E1000331F441FAA1FA9F333D00E2E3AF0E0E857
:103E200030D091505040E695001CCAF729D0FE2FA3
:103E300027D0660F771F881FBB1F26173707480735
:103E4000AB07B0E809F0BB0B802DBF01FF279358EB
:103E50005F4F2AF09E3F510568F0B1C0FBC05F3F45
:103E6000ECF3983EDCF3869577956795B795F795D3
:103E70009F5FC9F7880F911D9695879597F90895CB
:103E8000E1E0660F771F881FBB1F62177307840767
:103E9000BA0720F0621B730B840BBA0BEE1F88F776
:103EA000E0950895BCD088F09F5790F0B92F9927DE
:103EB000B751A0F0D1F0660F771F881F991F1AF035
:103EC000BA95C9F712C0B13081F0C3D0B1E00895FE
:103ED000C0C0672F782F8827B85F39F0B93FCCF37F
:103EE000869577956795B395D9F73EF4909580952B
:103EF000709561957F4F8F4F9F4F0895E89409C04B
:103F000097FB3EF490958095709561957F4F8F4F0C
:103F10009F4F9923A9F0F92F96E9BB279395F69522
:103F2000879577956795B795F111F8CFFAF4BB0FA0
:103F300011F460FF1BC06F5F7F4F8F4F9F4F16C004
:103F4000882311F096E911C0772321F09EE8872F8E
:103F5000762F05C0662371F096E8862F70E060E04A
:103F60002AF09A95660F771F881FDAF7880F9695C3
:103F7000879597F90895990F0008550FAA0BE0E867
:103F8000FEEF16161706E807F907C0F0121613061B
:103F9000E407F50798F0621B730B840B950B39F45B
:103FA0000A2661F0232B242B252B21F408950A26C1
:103FB00009F4A140A6958FEF811D811D089597F901
:103FC0009F6780E870E060E008959FEF80EC0895BF
:103FD00000240A94161617061806090608950024E8
:103FE0000A9412161306140605060895092E039462
:103FF000000C11F4882352F0BB0F40F4BF2B11F4D6
:1040000060FF04C06F5F7F4F8F4F9F4F089557FD34
:104010009058440F551F59F05F3F71F04795880F36
:1040200097FB991F61F09F3F79F0879508951216CD
:1040300013061406551FF2CF4695F1DF08C0161679
:1040400017061806991FF1CF86957105610508942A
:104050000895E894BB2766277727CB0197F9089541
:104060008ADF08F48FEF08950BD0C0CFB1DF28F0BE
:10407000B6DF18F0952309F0A2CFA7CF1124EACF1D
:10408000C6DFA0F3959FD1F3950F50E0551F629FB7
:10409000F001729FBB27F00DB11D639FAA27F00DA1
:1040A000B11DAA1F649F6627B00DA11D661F829FC8
:1040B0002227B00DA11D621F739FB00DA11D621FAD
:1040C000839FA00D611D221F749F3327A00D611DCA
:1040D000231F849F600D211D822F762F6A2F1124AC
:1040E0009F5750408AF0E1F088234AF0EE0FFF1FFF
:1040F000BB1F661F771F881F91505040A9F79E3F36
:10410000510570F05CCFA6CF5F3FECF3983EDCF337
:10411000869577956795B795F795E7959F5FC1F772
:10412000FE2B880F911D9695879597F90895DB01D1
:104130008F939F938BD0BF91AF91A29F800D911DC4
:10414000A39F900DB29F900D11240895AA1BBB1B35
:1041500051E107C0AA1FBB1FA617B70710F0A61B87
:10416000B70B881F991F5A95A9F780959095BC01A8
:10417000CD01089597FB072E16F4009406D077FD25
:1041800008D0E4DF07FC05D03EF4909581959F4F61
:104190000895709561957F4F0895A1E21A2EAA1B8C
:1041A000BB1BFD010DC0AA1FBB1FEE1FFF1FA217E7
:1041B000B307E407F50720F0A21BB30BE40BF50BE4
:1041C000661F771F881F991F1A9469F7609570956D
:1041D000809590959B01AC01BD01CF010895052EFE
:1041E00097FB16F400940FD057FD05D0D6DF07FCDF
:1041F00002D046F408C050954095309521953F4F28
:104200004F4F5F4F089590958095709561957F4FC2
:104210008F4F9F4F0895EE0FFF1F0590F491E02DF3
:104220001994A29FB001B39FC001A39F700D811D7F
:104230001124911DB29F700D811D1124911D0895AF
:10424000F0DFB7FF0895821B930B0895EADFA59F67
:10425000900DB49F900DA49F800D911D1124089581
:104260000790F691E02D199481E090E0F89400C059
:04427000F894FFCFF0
:1042740001000100390553746174653A200000009F
:104284003100F9183000FB302C001C472600825AFC
:104294001F006D6A170041760E00897D04003131DC
:1042A400295A1B750A00000000A91BA91BA91BB0F1
:1042B40001AC01D30100000000AF12F812A91BB039
:1042C40001AC01D301A91B00000000AF12F812FBDE
:1042D40001B001AC01F201F81100000000AF12F8C6
:1042E40012F901B001AC01EF01AD0F00000000AF05
:1042F40012F812F701B001AC01EC01620D000000EC
:1043040000AF12F812F501B001AC01E901170B007E
:10431400000000551CD11DAA1BC31BB51B341C0D6A
:104324000A006E616E00696E66006F7666002E008C
:00000001FF
